:100000000C94E2000C940A010C940A010C940A016D
:100010000C940A010C940A010C940A010C940A0134
:100020000C940A010C940A010C940A010C940A0124
:100030000C940A010C940A010C940A010C940A0114
:100040000C94F1040C940A010C943D040C941704D4
:100050000C940A010C940A010C940A010C940A01F4
:100060000C940A010C940A01005EBCE2613FDD833E
:10007000C29C7E20A3FD1F419DC3217FFCA2401E88
:100080005F01E3BD3E6082DC237D9FC1421CFEA078
:10009000E1BF5D0380DE3C62BEE0025CDF81633D68
:1000A0007C22C09E1D43A1FF4618FAA427799BC558
:1000B00084DA3866E5BB5907DB856739BAE4065848
:1000C0001947A5FB7826C49A653BD987045AB8E638
:1000D000A7F91B45C6987A24F8A6441A99C7257B28
:1000E0003A6486D85B05E7B98CD2306EEDB3510F18
:1000F0004E10F2AC2F7193CD114FADF3702ECC9208
:10010000D38D6F31B2EC0E50AFF1134DCE90722CF7
:100110006D33D18F0C52B0EE326C8ED0530DEFB1E7
:10012000F0AE4C1291CF2D73CA947628ABF51749D7
:100130000856B4EA6937D58B5709EBB536688AD4C7
:1001400095CB2977F4AA4816E9B7550B88D6346AB7
:100150002B7597C94A14F6A8742AC896154BA9F7A7
:10016000B6E80A54D7896B35000000002400270048
:100170002A0000000000250028002B0000000008D5
:10018000000201000003040700000000000000005E
:1001900000000000230026002900040404040404D5
:1001A0000404020202020202030303030303010226
:1001B00004081020408001020408102001020408F5
:1001C00010204C0D11241FBECFEFD8E0DEBFCDBFF5
:1001D00022E0A0E9B1E001C01D92A63CB207E1F720
:1001E00011E0A0E0B1E0E6E6F1E202C005900D9278
:1001F000A039B107D9F710E0C2EED0E004C02197D2
:10020000FE010E94A610C13ED107C9F70E9448090D
:100210000C94B1100C940000DC01ED91FC91019064
:10022000F081E02D0994CF92DF92EF92FF920F932D
:100230001F93CF93DF936C017A018B01C0E0D0E074
:10024000CE15DF0589F0D8016D918D01D601ED91B4
:10025000FC910190F081E02DC6010995892B11F4E4
:100260007E0102C02196ECCFC701DF91CF911F9193
:100270000F91FF90EF90DF90CF900895FC01918D4A
:10028000828D981761F0828DDF01A80FB11D5D96F8
:100290008C91928D9F5F9F73928F90E008958FEF66
:1002A0009FEF0895FC01918D828D981731F0828D1A
:1002B000E80FF11D858D90E008958FEF9FEF089571
:1002C000FC01918D228D892F90E0805C9F4F821BD5
:1002D00091098F739927089588EA91E00E9460013F
:1002E00021E0892B09F420E0822F0895FC01848D00
:1002F000DF01A80FB11DA35ABF4F2C91848D90E050
:1003000001968F739927848FA689B7892C93A0892A
:10031000B1898C9180648C93938D848D981306C0E1
:100320000288F389E02D80818F7D80830895EF928C
:10033000FF920F931F93CF93DF93EC0181E0888F9F
:100340009B8D8C8D981305C0E889F989808185FD86
:1003500024C0F62E0B8D10E00F5F1F4F0F73112777
:10036000E02E8C8DE8120CC00FB607FCFACFE8899E
:10037000F989808185FFF5CFCE010E947601F1CF0A
:100380008B8DFE01E80FF11DE35AFF4FF0820B8FBA
:10039000EA89FB898081806207C0EE89FF896083DA
:1003A000E889F98980818064808381E090E0DF9131
:1003B000CF911F910F91FF90EF900895CF93DF930E
:1003C000EC01888D8823C9F0EA89FB89808185FD4D
:1003D00005C0A889B9898C9186FD0FC00FB607FCAE
:1003E000F5CF808185FFF2CFA889B9898C9185FFEF
:1003F000EDCFCE010E947601E7CFDF91CF91089536
:1004000080E090E0892B29F00E946C0181110C940E
:1004100000000895833081F028F4813099F0823013
:10042000A1F008958730A9F08830B9F08430D1F474
:10043000809180008F7D03C0809180008F778093B2
:100440008000089584B58F7702C084B58F7D84BD08
:1004500008958091B0008F7703C08091B0008F7DA8
:100460008093B00008953FB7F894809195019091E2
:100470009601A0919701B091980126B5A89B05C05F
:100480002F3F19F00196A11DB11D3FBFBA2FA92F13
:10049000982F8827820F911DA11DB11DBC01CD0190
:1004A00042E0660F771F881F991F4A95D1F708957C
:1004B0008F929F92AF92BF92CF92DF92EF92FF9274
:1004C0006B017C010E9433024B015C01C114D10419
:1004D000E104F104F1F00E943302DC01CB01881940
:1004E0009909AA09BB09883E9340A105B10570F39B
:1004F00021E0C21AD108E108F10888EE880E83E0F5
:10050000981EA11CB11CC114D104E104F10419F717
:10051000DDCFFF90EF90DF90CF90BF90AF909F9096
:100520008F9008952FB7F894609191017091920186
:1005300080919301909194012FBF089508950E9496
:10054000AC106115710579F0FB0101900020E9F70D
:100550003197AF01461B570BDC01ED91FC910280F6
:10056000F381E02D099480E090E008954F925F922E
:100570006F927F92EF92FF920F931F93CF93DF932F
:10058000CDB7DEB7A1970FB6F894DEBF0FBECDBFD3
:100590007C01FA01CB0119A2223008F42AE08E0175
:1005A0000F5D1F4F422E512C612C712CBF01A301F6
:1005B00092010E943D0FF901CA01015011096A30F0
:1005C00014F4605D01C0695CD8016C93232B242B6B
:1005D000252B61F7B801C7010E94A102A1960FB6B1
:1005E000F894DEBF0FBECDBFDF91CF911F910F9169
:1005F000FF90EF907F906F905F904F900895CF9213
:10060000DF92EF92FF92CF93DF936C01990FEE0888
:10061000FF08F7FE1BC06DE280EA92E00E940C0129
:10062000EC0144275527BA014C195D096E097F0971
:100630002AE080EA92E00E94B6028C0F9D1FDF91B3
:10064000CF91FF90EF90DF90CF9008952AE0B7010F
:10065000A60180EA92E0DF91CF91FF90EF90DF90CA
:10066000CF900C94B6024F925F926F927F928F92CE
:100670009F92AF92BF92CF92DF92EF92FF92CF9371
:10068000DF93EC016A017B01B22E9A01AB01C70135
:10069000B6010E947910882319F068E271E027C042
:1006A00026013701E89477F82FEF3FEF4FE75FE738
:1006B000C301B2010E94791081110DC02FEF3FEFED
:1006C0004FE75FE7C301B2010E94190E18161CF430
:1006D0006CE271E00CC02FEF3FEF4FE75FE4C70122
:1006E000B6010E94741018169CF460E371E0CE010C
:1006F000DF91CF91FF90EF90DF90CF90BF90AF90C0
:100700009F908F907F906F905F904F900C94A1027C
:100710002FEF3FEF4FE75FECC701B6010E94190EC4
:1007200087FDE3CF20E030E0A901C701B6010E94B8
:10073000190E87FF0AC06DE2CE010E940C014C0128
:10074000F7FAF094F7F8F09402C0812C912CA12CC8
:1007500060E070E080E09FE3AB1441F020E030E027
:1007600040E251E40E94CC0FA394F6CF9B01AC0170
:10077000C701B6010E94600F2B013C010E94451089
:100780006B017C010E941E0E9B01AC01C301B201F2
:100790000E945F0F2B013C012AE0B701A601CE01A8
:1007A0000E94B6027C01E80CF91CBB2031F06EE21D
:1007B000CE010E940C01E80EF91EDB2CDD2029F190
:1007C00020E030E040E251E4C301B2010E947F0E1C
:1007D0002B013C010E9445104B01A12CB12C2AE0B9
:1007E000B501A401CE010E94B602E80EF91EC501B2
:1007F000B4010E941E0E9B01AC01C301B2010E9414
:100800005F0F2B013C01DA94D9CFC701DF91CF9163
:10081000FF90EF90DF90CF90BF90AF909F908F9020
:100820007F906F905F904F9008950C94A1021F925B
:100830000F920FB60F9211242F933F934F935F9314
:100840006F937F938F939F93AF93BF93EF93FF9398
:1008500088EA91E00E947601FF91EF91BF91AF91FC
:100860009F918F917F916F915F914F913F912F91C8
:100870000F900FBE0F901F9018951F920F920FB6FA
:100880000F9211242F938F939F93EF93FF93E091F7
:10089000B801F091B9018081E091BE01F091BF01F2
:1008A00082FD12C090818091C1018F5F8F73209172
:1008B000C201821751F0E091C101F0E0E855FE4F0E
:1008C000958F8093C10101C08081FF91EF919F912D
:1008D0008F912F910F900FBE0F901F9018951F931F
:1008E000CF93DF93282F30E0F901E458FE4F849135
:1008F000F901E255FE4FD491F901E656FE4FC4913D
:10090000CC23C9F0162F81110E940A02EC2FF0E0CF
:10091000EE0FFF1FEE58FE4FA591B4918FB7F894DC
:10092000111105C09C91ED2FE095E92302C0EC91D7
:10093000ED2BEC938FBFDF91CF911F910895CF9353
:10094000DF93EC0160E08E810E946F0461E08E8194
:100950000E946F0460E08E810E946F048BE891E03A
:100960000197F1F7DF91CF910895CF93DF9390E056
:10097000FC01E255FE4F2491FC01E656FE4F8491A6
:10098000882361F190E0880F991FFC01E859FE4F20
:10099000C591D491FC01EE58FE4FA591B49161111F
:1009A00009C09FB7F8948881209582238883EC91B1
:1009B0002E230BC0623061F49FB7F8943881822FE8
:1009C000809583238883EC912E2B2C939FBF06C0A8
:1009D0008FB7F894E8812E2B28838FBFDF91CF91BA
:1009E00008951F920F920FB60F9211242F933F93E9
:1009F0008F939F93AF93BF938091910190919201B8
:100A0000A0919301B09194013091900123E0230FC4
:100A10002D3720F40196A11DB11D05C026E8230F36
:100A20000296A11DB11D2093900180939101909396
:100A30009201A0939301B0939401809195019091BC
:100A40009601A0919701B09198010196A11DB11D49
:100A50008093950190939601A0939701B09398018C
:100A6000BF91AF919F918F913F912F910F900FBEAA
:100A70000F901F901895DC01E0E0615038F08D91E7
:100A8000E827F0E0E859FF4FE491F7CF8E2F089563
:100A9000FC0190810180F281E02DF8948181892B05
:100AA00081832281892F809528232283A7E0B0E0CB
:100AB0001197F1F7218182238183A3E2B0E011979E
:100AC000F1F780817894EFECF0E03197F1F798231B
:100AD00081E009F480E00895FC0190810180F281B9
:100AE000E02D892F809560FF12C0F8942281822327
:100AF00082838181892B8183A3E2B0E01197F1F792
:100B00008281982B9283789487ED90E011C0F894BD
:100B10002281822382838181892B8183AFEFB0E0A0
:100B20001197F1F78281982B928378948FE090E06F
:100B30000197F1F70895CF92DF92EF92FF920F9312
:100B40001F93CF93DF931F92CDB7DEB76C01E62ED4
:100B500008E010E0FF24F39461E08F2D8E2109F46A
:100B600060E0C60149830E946C05FF0C0150110929
:100B700049810115110581F7411115C0F894D6017D
:100B80001196ED91FC91129791818C91809589231A
:100B900081831196ED91FC91129792818C918095B1
:100BA0008923828378940F90DF91CF911F910F91C9
:100BB000FF90EF90DF90CF900895CF92DF92EF9269
:100BC000FF920F931F93CF93DF931F92CDB7DEB7A2
:100BD0008C01F62E40E065E579830E949B05CF2CC1
:100BE0007981D72E760188E0E80EF11CF60161913B
:100BF0006F0140E0C8010E949B05CE14DF04B1F7ED
:100C00000F90DF91CF911F910F91FF90EF90DF90A8
:100C1000CF900895FC0190810180F281E02DF8943D
:100C20008181292F20958223818378948DE743E069
:100C300050E0815021F1DA011197F1F73081392329
:100C4000C1F3F8948281822382838181892B8183FD
:100C50007894ABE7B7E01197F1F7F89481812823F6
:100C60002183A3E1B1E01197F1F78081982381E01E
:100C700009F080E07894E3E6F6E03197F1F7089523
:100C8000CF92DF92EF92FF920F931F93CF93DF9358
:100C90007C016C0187E0C80ED11CC0E0D0E0062FBB
:100CA00010E0B8010C2E02C0759567950A94E2F722
:100CB0006170F60181916F010E946F042196C4302A
:100CC000D10579F7C701DF91CF911F910F91FF9067
:100CD000EF90DF90CF900C949F04CF92DF92EF9231
:100CE000FF920F931F93CF93DF93EC01F62E642FA7
:100CF0008C810E946F048D818F3F19F060E00E940B
:100D00006F048F850F2D10E084FF25C06E0187E0F2
:100D1000C80ED11CE12CF12CB8010E2C02C0759527
:100D200067950A94E2F76170F60181916F010E9464
:100D30006F04FFEFEF1AFF0A88E0E816F10461F78D
:100D4000CE01DF91CF911F910F91FF90EF90DF9037
:100D5000CF900C949F04B80184E0759567958A95AF
:100D6000E1F7CE010E9440066F2DCE01DF91CF91B9
:100D70001F910F91FF90EF90DF90CF900C94400661
:100D800041E00E946D0681E090E0089540E00C94FF
:100D90006D06AF92BF92CF92DF92EF92FF920F93C8
:100DA0001F93CF93DF938B01BC01809192029091AE
:100DB00093020E94DD0540E06EEB809192029091DB
:100DC00093020E949B05E801680189E0C80ED11CCE
:100DD000A0909202B090930288E0E82EF12C01E0FE
:100DE00010E0C5010E9448058111102B000F81E021
:100DF000E81AF108B1F71993CC15DD0549F7809190
:100E00009202909193020E940A0691E0813009F0CB
:100E100090E0892FDF91CF911F910F91FF90EF907C
:100E2000DF90CF90BF90AF900895EF92FF920F9315
:100E30001F93CF93DF93EC01623018F08F858860A9
:100E40008F876B8B1C8A80E48D8B80E18E8B80E595
:100E50008F8B61E08C810E94B5048D818F3F19F0EA
:100E600061E00E94B50461E08E810E94B5047E01BC
:100E700087E0E80EF11C00E010E08F8584FD03C0E0
:100E800084E090E002C088E090E0081719074CF475
:100E900061E0F70181917F010E94B5040F5F1F4F50
:100EA000ECCF8BE39DE00197F1F760E08C810E942D
:100EB0006F0460E08E810E946F048D818F3F19F076
:100EC00060E00E946F046F8564FD1DC063E0CE0189
:100ED0000E9440060BE416E4C8010197F1F763E0B5
:100EE000CE010E944006C8010197F1F763E0CE01F0
:100EF0000E94400683E592E00197F1F762E0CE019F
:100F00000E94400616C06062CE010E94C6068BE4B5
:100F100096E40197F1F76F856062CE010E94C606E4
:100F200083E592E00197F1F76F856062CE010E9440
:100F3000C6066F856062CE010E94C60684E0888B7B
:100F40006CE0CE010E94C60661E0CE010E94C6069A
:100F50008BE39FE10197F1F782E0898B66E0CE0198
:100F6000DF91CF911F910F91FF90EF900C94C606E7
:100F7000E8EAF1E0A089B18982E08C93A485B58587
:100F80001C92A685B7858FEC8C93108EA489B589A9
:100F900086E08C93A289B3898C9180618C93A2891D
:100FA000B3898C9188608C93A289B3898C91806875
:100FB0008C930288F389E02D80818F7D8083089552
:100FC000AF92BF92CF92DF92EF92FF920F931F9357
:100FD000CF93DF931F92CDB7DEB75C01D62EE72EFD
:100FE000FC018585811105C0C5010E940A06811199
:100FF00006C0F50113861586148680E065C040E0C2
:1010000060EFC5010E949B0501E0F12CC12C11E0AD
:10101000C5010E944805682FC50169830E944805E3
:101020006981613019F48130B9F433C04F2D50E03B
:1010300068131BC0F5018385181730F4E40FF51F02
:101040008381802349F402C0181731F060E0193021
:1010500058F4F501148708C0F501EF0DF11D8381E7
:10106000802B838361E009C0C12EF501E40FF51FD9
:101070009381802F809589238383C5010E946C050D
:101080001F5F000F11F4F39401E0F7E0FF1508F083
:10109000BFCF113408F4ADCFF501C386C11002C033
:1010A00081E08587F5018381882309F4A2CFD501EA
:1010B0001396ED2DFE2D9501255F3F4F8D91819368
:1010C000A217B307D9F781E00F90DF91CF911F915D
:1010D0000F91FF90EF90DF90CF90BF90AF90089569
:1010E0000F931F93CF93DF93CDB7DEB729970FB63A
:1010F000F894DEBF0FBECDBFFC012081203161F12D
:101100008C0180919202909193020E940A0688239A
:1011100009F1BE016F5F7F4FC8010E94C906882395
:10112000C9F068E0CE0101960E943B0599858913BC
:1011300011C08D818F3361F020F48F3159F489E033
:101140000CC08F3519F08F3739F004C08BE005C023
:101150008AE003C080E001C08CE029960FB6F894C5
:10116000DEBF0FBECDBFDF91CF911F910F910895CC
:10117000CF93DF93CDB7DEB761970FB6F894DEBF9C
:101180000FBECDBFE0919202F091930213861586B7
:101190001486DF011B96CF0103961E92A817B9078C
:1011A000E1F7BE01665F7F4FCF010E94E007882311
:1011B00041F067E0CE010A960E943B0599898917A4
:1011C00029F060E070E08EEF92EC59C080919202BD
:1011D000909193020E940A068823F1F1BE016F5F8D
:1011E0007F4FCE010A960E94C9068823A9F168E0C4
:1011F000CE0101960E943B05998589132DC0698116
:1012000048E0649FB00111248A81282F30E0322FFA
:101210002227330F330F330F262B372B8A8580314C
:10122000C9F4688570E08F81AB01481B5109CA0180
:101230009695982F8827979587950E947E106051E4
:101240007109207F53E0220F331F5A95E1F7620F97
:10125000731F04C0B90102C060E874EE613854EE37
:1012600075070CF4AECF072E000C880B990B0E946B
:10127000200E20E030E040E05CE30E947F0E6196AB
:101280000FB6F894DEBF0FBECDBFDF91CF910895AA
:10129000CF93DF93CDB7DEB728970FB6F894DEBFB4
:1012A0000FBECDBF789484B5826084BD84B5816063
:1012B00084BD85B5826085BD85B5816085BD809121
:1012C0006E00816080936E00109281008091810099
:1012D0008260809381008091810081608093810091
:1012E000809180008160809380008091B100846053
:1012F0008093B1008091B00081608093B0008091B4
:101300007A00846080937A0080917A008260809372
:101310007A0080917A00816080937A0080917A00CF
:10132000806880937A001092C10010928902109216
:101330008A0210928B0210928C0210924702109235
:1013400048021092490210924A0260ED77E080E074
:1013500090E00E94580288EA91E09093880280937E
:1013600087020E94B8070E9492026093470270931E
:1013700048028093490290934A0264E371E08091AD
:101380008702909188020E9415046AE070E080E074
:1013900090E00E94580281E080935B020E94B807AF
:1013A000E0919202F0919302138615861486DF0174
:1013B0001B9633961E92AE17BF07E1F7109291026B
:1013C00011E0BE016F5F7F4F809192029091930276
:1013D0000E94E007882309F44AC067E0CE01019625
:1013E0000E943B0598858913ECCF80918D02811175
:1013F00027C080919202909193020E940A06BE013A
:101400006F5F7F4F80919202909193020E94DD0561
:1014100040E064EB80919202909193020E949B05C0
:1014200080919202909193020E944805082F80912A
:101430009202909193020E940A06002309F45FC26F
:1014400000918E02CE0101960E947008801718F458
:1014500080918E0204C0CE0101960E947008809394
:101460008E02809191028F5F80939102AACF60E4F7
:1014700080EA92E00E94C60600E011E0D8016D917A
:101480008D0180EA92E00E94C006B1E008301B079F
:10149000A9F761E089E00E94B50462E088E00E945B
:1014A000B50466E471E088EA91E00E9415042AE040
:1014B00040E054E060E070E088EA91E00E94B6020B
:1014C00063E471E088EA91E00E94A1020E94920226
:1014D000AB01BC0140939A0150939B0160939C0126
:1014E00070939D012AE088EA91E00E94B60263E4CD
:1014F00071E088EA91E00E94A10238EC232E312CA1
:1015000048EE842E43E0942EA12CB12C0E9492022E
:10151000672B682B692B41F40E949202623071059F
:101520008105910508F40EC10E9492026093A40106
:101530007093A5018093A6019093A7010091A0014B
:101540001091A1012091A2013091A30160177107B0
:101550008207930740F46093A0017093A1018093E8
:10156000A2019093A3010091A0011091A1012091EB
:10157000A2013091A3016B017C01C01AD10AE20AD9
:10158000F30A970186010A3F11052105310508F488
:10159000D9C06093A0017093A1018093A2019093A0
:1015A000A30184EF91E0A0E0B0E080935302909318
:1015B0005402A0935502B093560210925702109213
:1015C00058021092590210925A0280914B02909147
:1015D0004C02A0914D02B0914E0280934F02909325
:1015E0005002A0935102B09352020E949202609363
:1015F0004B0270934C0280934D0290934E020E94D6
:10160000920260934702709348028093490290933C
:101610004A020E9492022B013C0165E571E0809133
:101620008702909188020E9415042AE041E050E070
:1016300060E070E080918702909188020E94B6027B
:101640006CE571E080918702909188020E941504F8
:101650002AE0B301A20180918702909188020E9442
:10166000B6026EE571E080918702909188020E9437
:10167000150480914B0290914C02A0914D02B091C3
:101680004E02B301A201481B590B6A0B7B0B2AE0E7
:1016900080918702909188020E94B6026EE571E007
:1016A00080918702909188020E94150440914B021C
:1016B00050914C0260914D0270914E0280914F0208
:1016C00090915002A0915102B0915202481B590BC7
:1016D0006A0B7B0B2AE080918702909188020E941E
:1016E000B60260E671E080918702909188020E94C4
:1016F00015040E949202AB01BC012AE0809187028E
:10170000909188020E94B60200918702109188028F
:1017100062E671E0C8010E94A10263E471E0C801C1
:101720000E94A10262E070E080E090E00E94580216
:101730000E94920260934B0270934C0280934D0280
:1017400090934E0280919202909193020E940A0619
:1017500040E06CEC80919202909193020E949B0574
:1017600040918D0264E480919202909193020E94D4
:101770009B0580918F028823D9F1E0918E02E95078
:10178000E33040F4F0E0EE0FFF1FE65FFE4F008114
:10179000118102C00EEE12E080919002882311F1B7
:1017A00080918D0281111EC00E9492022B013C018A
:1017B0006801110FEE08FF08809192029091930248
:1017C0000E9448058130A1F00E949202DC01CB0109
:1017D0008C199D09AE09BF0984159505A605B705A5
:1017E00058F306C0B801110F880B990B0E945802DC
:1017F00069E671E088EA91E00E9415040E94B80849
:10180000AB01BC0122E088EA91E00E94330363E46B
:1018100071E088EA91E00E94A10200910801109114
:10182000090161E08BE00E94B5040115110511F476
:1018300060E004C00F3F110529F461E08BE00E94D5
:101840006F0443C0E7E8F1E084918330F9F048F495
:101850008130B9F08230A1F584B5806284BD08BDC5
:1018600034C08730E9F0883019F1843049F580912F
:10187000800080628093800010938B0000938A0028
:1018800024C084B5806884BD07BD1FC080918000DE
:10189000806880938000109389000093880015C0B1
:1018A0008091B00080688093B0000093B3000DC0B9
:1018B0008091B00080628093B0000093B40005C0B6
:1018C000003811050CF0B9CFB3CFE4E8F1E0849112
:1018D000E6EBF1E01491E2EAF1E00491002391F0EB
:1018E00081110E940A02E02FF0E0EE0FFF1FE05787
:1018F000FE4FA591B4918C91182321F0C8C010938C
:101900008D029ECD61E089E00E946F048091990173
:10191000811108C081E080939901309209012092E1
:10192000080109C085E0C82ED12CD0920901C092CF
:1019300008011092990162E080EA92E00E94150786
:10194000E1E08091B3028111E0E0E195F0E0E05642
:10195000FD4F6489606880EA92E00E94C60660E8F4
:1019600071E080EA92E00E9415040E94B808AB0181
:10197000BC0122E080EA92E00E94330360E080EA4A
:1019800092E00E940C0166E871E080EA92E00E9419
:101990001504E091B302E23010F4E15001C0E1E03F
:1019A000F0E0E056FD4F6489606880EA92E00E94B2
:1019B000C6060E94920200919A0110919B0120910B
:1019C0009C0130919D01601B710B820B930BA50153
:1019D00094010E943D0FCA01B9010E941E0E0E948F
:1019E0003E108B01CB016CE370E00E947E106B0116
:1019F00068E871E080EA92E00E94150480E090E0DF
:101A00000E94FF02C6016CE370E00E947E106C0130
:101A1000CB010E94FF026EE571E080EA92E00E9435
:101A200015048AE0C816D10434F46EE871E080EA47
:101A300092E00E941504C6010E94FF026EE571E06B
:101A400080EA92E00E941504C8016CE370E00E94F5
:101A50007E108C010A9734F46EE871E080EA92E01F
:101A60000E941504C8010E94FF0280919E0190917E
:101A70009F01019690939F0180939E0164EF71E016
:101A800080E090E00E9458020E9400023FCD60E09A
:101A900089E00E946F044FCF1092AB011092AA010F
:101AA00088EE93E0A0E0B0E08093AC019093AD01AC
:101AB000A093AE01B093AF0184E191E09093A901AE
:101AC0008093A80185EC90E09093B5018093B401D8
:101AD00084EC90E09093B7018093B60180EC90E0A5
:101AE0009093B9018093B80181EC90E09093BB0191
:101AF0008093BA0182EC90E09093BD018093BC0189
:101B000086EC90E09093BF018093BE011092C101DA
:101B10001092C2011092C3011092C40110924B02A4
:101B200010924C0210924D0210924E0210924F02EF
:101B300010925002109251021092520210925302CF
:101B400010925402109255021092560210925702AF
:101B5000109258021092590210925A021092A30247
:101B60001092A20284E291E09093A1028093A002DD
:101B700082E08093A4028FEF8093A50283E080939C
:101B8000A60284E08093A70285E08093A80286E005
:101B90008093A90287E08093AA021092AB02109270
:101BA000AC021092AD021092AE021092AF0261E050
:101BB00080EA92E00E94150760E08EE00E94B50482
:101BC000ECEBF1E0E491E093B802E8EAF1E0E491B3
:101BD000F0E0EE0FFF1FE057FE4F85919491909338
:101BE000BA028093B9021092C3021092C5021092F9
:101BF000C402E3ECF2E0129282E0EB3BF807D9F783
:101C00008EE992E090939F0280939E0288EB92E08F
:101C100090939302809392021092910210928D02FF
:101C200089E080938E0281E080938F0280939002FE
:101C300008950E945B0E08F481E00895E89409C0BD
:101C400097FB3EF490958095709561957F4F8F4FEF
:101C50009F4F9923A9F0F92F96E9BB279395F69505
:101C6000879577956795B795F111F8CFFAF4BB0F83
:101C700011F460FF1BC06F5F7F4F8F4F9F4F16C0E7
:101C8000882311F096E911C0772321F09EE8872F71
:101C9000762F05C0662371F096E8862F70E060E02D
:101CA0002AF09A95660F771F881FDAF7880F9695A6
:101CB000879597F90895990F0008550FAA0BE0E84A
:101CC000FEEF16161706E807F907C0F012161306FE
:101CD000E407F50798F0621B730B840B950B39F43E
:101CE0000A2661F0232B242B252B21F408950A26A4
:101CF00009F4A140A6958FEF811D811D08950E94D2
:101D0000920E0C94030F0E94F50E38F00E94FC0E08
:101D100020F0952311F00C94EC0E0C94F20E11248B
:101D20000C94370F0E94140F70F3959FC1F3950F19
:101D300050E0551F629FF001729FBB27F00DB11D4F
:101D4000639FAA27F00DB11DAA1F649F6627B00DDF
:101D5000A11D661F829F2227B00DA11D621F739FC8
:101D6000B00DA11D621F839FA00D611D221F749FD6
:101D70003327A00D611D231F849F600D211D822F1D
:101D8000762F6A2F11249F5750409AF0F1F0882344
:101D90004AF0EE0FFF1FBB1F661F771F881F915071
:101DA0005040A9F79E3F510580F00C94EC0E0C9426
:101DB000370F5F3FE4F3983ED4F3869577956795A8
:101DC000B795F795E7959F5FC1F7FE2B880F911D9B
:101DD0009695879597F9089597F99F6780E870E041
:101DE00060E008959FEF80EC089500240A94161691
:101DF000170618060906089500240A9412161306F9
:101E0000140605060895092E0394000C11F4882386
:101E100052F0BB0F40F4BF2B11F460FF04C06F5FA2
:101E20007F4F8F4F9F4F089557FD9058440F551F78
:101E300059F05F3F71F04795880F97FB991F61F04C
:101E40009F3F79F087950895121613061406551FC3
:101E5000F2CF4695F1DF08C0161617061806991F2F
:101E6000F1CF86957105610508940895E894BB2724
:101E700066277727CB0197F90895A1E21A2EAA1BAE
:101E8000BB1BFD010DC0AA1FBB1FEE1FFF1FA2172A
:101E9000B307E407F50720F0A21BB30BE40BF50B27
:101EA000661F771F881F991F1A9469F760957095B0
:101EB000809590959B01AC01BD01CF0108955058CC
:101EC000BB27AA270E94770F0C94030F0E94F50EE0
:101ED00038F00E94FC0E20F039F49F3F19F426F4EC
:101EE0000C94F20E0EF4E095E7FB0C94EC0EE92F47
:101EF0000E94140F58F3BA176207730784079507F7
:101F000020F079F4A6F50C94360F0EF4E0950B2E24
:101F1000BA2FA02D0B01B90190010C01CA01A0013B
:101F20001124FF27591B99F0593F50F4503E68F196
:101F30001A16F040A22F232F342F4427585FF3CFD7
:101F4000469537952795A795F0405395C9F77EF4A8
:101F50001F16BA0B620B730B840BBAF09150A1F0F1
:101F6000FF0FBB1F661F771F881FC2F70EC0BA0F77
:101F7000621F731F841F48F4879577956795B795FF
:101F8000F7959E3F08F0B0CF9395880F08F09927FA
:101F9000EE0F9795879508950E94E00F0C94030F1C
:101FA0000E94FC0E58F00E94F50E40F029F45F3FAD
:101FB00029F00C94EC0E51110C94370F0C94F20E86
:101FC0000E94140F68F39923B1F3552391F3951BE5
:101FD000550BBB27AA2762177307840738F09F5F4A
:101FE0005F4F220F331F441FAA1FA9F335D00E2EB7
:101FF0003AF0E0E832D091505040E695001CCAF724
:102000002BD0FE2F29D0660F771F881FBB1F2617E6
:1020100037074807AB07B0E809F0BB0B802DBF01BD
:10202000FF2793585F4F3AF09E3F510578F00C948C
:10203000EC0E0C94370F5F3FE4F3983ED4F3869593
:1020400077956795B795F7959F5FC9F7880F911DAD
:102050009695879597F90895E1E0660F771F881F99
:10206000BB1F621773078407BA0720F0621B730B4C
:10207000840BBA0BEE1F88F7E09508950E94451077
:102080006894B1110C94370F08950E941C0F88F0CA
:102090009F5798F0B92F9927B751B0F0E1F0660F2C
:1020A000771F881F991F1AF0BA95C9F714C0B1306D
:1020B00091F00E94360FB1E008950C94360F672F0F
:1020C000782F8827B85F39F0B93FCCF3869577959C
:1020D0006795B395D9F73EF4909580957095619585
:1020E0007F4F8F4F9F4F08950E945B0E08F48FEF34
:1020F00008950E945B0E880B990B089597FB072E9D
:1021000016F4009407D077FD09D00E94921007FCC6
:1021100005D03EF4909581959F4F089570956195F7
:102120007F4F0895AA1BBB1B51E107C0AA1FBB1F0D
:10213000A617B70710F0A61BB70B881F991F5A9553
:10214000A9F780959095BC01CD010895EE0FFF1F72
:102150000590F491E02D099481E090E0F8940C94BE
:06216000B110F894FFCF5E
:10216600040A110A0400000014005E00BC00770196
:10217600000000009701130160013E015201DE01DB
:1021860000000000C00613016E616E00696E6600F5
:102196006F766600564D4450565F317C315F564D22
:1021A6004450560D0A00454550524F4D206C656E01
:1021B6006774683A00564D4450455F003A323A001B
:1021C6007C005F564D44504500416B7475616C6EE2
:1021D600612074656D70657261747572613A200074
:1021E60054656D703A00430054696D653A003000DD
:00000001FF
