:100000000C94E2000C940A010C940A010C940A016D
:100010000C940A010C940A010C940A010C940A0134
:100020000C940A010C940A010C940A010C940A0124
:100030000C940A010C940A010C940A010C940A0114
:100040000C9466030C940A010C946C020C94460206
:100050000C940A010C940A010C940A010C940A01F4
:100060000C940A010C940A01005EBCE2613FDD833E
:10007000C29C7E20A3FD1F419DC3217FFCA2401E88
:100080005F01E3BD3E6082DC237D9FC1421CFEA078
:10009000E1BF5D0380DE3C62BEE0025CDF81633D68
:1000A0007C22C09E1D43A1FF4618FAA427799BC558
:1000B00084DA3866E5BB5907DB856739BAE4065848
:1000C0001947A5FB7826C49A653BD987045AB8E638
:1000D000A7F91B45C6987A24F8A6441A99C7257B28
:1000E0003A6486D85B05E7B98CD2306EEDB3510F18
:1000F0004E10F2AC2F7193CD114FADF3702ECC9208
:10010000D38D6F31B2EC0E50AFF1134DCE90722CF7
:100110006D33D18F0C52B0EE326C8ED0530DEFB1E7
:10012000F0AE4C1291CF2D73CA947628ABF51749D7
:100130000856B4EA6937D58B5709EBB536688AD4C7
:1001400095CB2977F4AA4816E9B7550B88D6346AB7
:100150002B7597C94A14F6A8742AC896154BA9F7A7
:10016000B6E80A54D7896B35000000002400270048
:100170002A0000000000250028002B0000000008D5
:10018000000201000003040700000000000000005E
:1001900000000000230026002900040404040404D5
:1001A0000404020202020202030303030303010226
:1001B00004081020408001020408102001020408F5
:1001C00010208B0E11241FBECFEFD8E0DEBFCDBFB5
:1001D00022E0A6E6B1E001C01D92A73AB207E1F71E
:1001E00011E0A0E0B1E0ECE2F3E202C005900D9274
:1001F000A636B107D9F710E0C2EED0E004C02197CF
:10020000FE010E948911C13ED107C9F70E9436093B
:100210000C9494110C940000FC01918D828D981720
:1002200061F0828DDF01A80FB11D5D968C91928DDA
:100230009F5F9F73928F90E008958FEF9FEF0895D7
:10024000FC01918D828D981731F0828DE80FF11DA0
:10025000858D90E008958FEF9FEF0895FC01918DBB
:10026000228D892F90E0805C9F4F821B91098F73B4
:100270009927089589E891E00E942E0121E0892BB9
:1002800009F420E0822F0895FC01848DDF01A80F7E
:10029000B11DA35ABF4F2C91848D90E001968F73AE
:1002A0009927848FA689B7892C93A089B1898C91CD
:1002B00080648C93938D848D981306C00288F38993
:1002C000E02D80818F7D80830895EF92FF920F93C0
:1002D0001F93CF93DF93EC0181E0888F9B8D8C8DF2
:1002E000981305C0E889F989808185FD24C0F62E20
:1002F0000B8D10E00F5F1F4F0F731127E02E8C8DB9
:10030000E8120CC00FB607FCFACFE889F9898081A2
:1003100085FFF5CFCE010E944401F1CF8B8DFE0108
:10032000E80FF11DE35AFF4FF0820B8FEA89FB893A
:100330008081806207C0EE89FF896083E889F9893E
:1003400080818064808381E090E0DF91CF911F9174
:100350000F91FF90EF900895CF93DF93EC01888D7C
:100360008823C9F0EA89FB89808185FD05C0A889B9
:10037000B9898C9186FD0FC00FB607FCF5CF80813F
:1003800085FFF2CFA889B9898C9185FFEDCFCE0189
:100390000E944401E7CFDF91CF91089580E090E083
:1003A000892B29F00E943A0181110C9400000895D4
:1003B000833081F028F4813099F08230A1F00895E3
:1003C0008730A9F08830B9F08430D1F48091800072
:1003D0008F7D03C0809180008F7780938000089587
:1003E00084B58F7702C084B58F7D84BD08958091D8
:1003F000B0008F7703C08091B0008F7D8093B000F4
:1004000008953FB7F89480916B0190916C01A09191
:100410006D01B0916E0126B5A89B05C02F3F19F064
:100420000196A11DB11D3FBFBA2FA92F982F882774
:10043000820F911DA11DB11DBC01CD0142E0660FCF
:10044000771F881F991F4A95D1F708950895EF9255
:10045000FF920F931F93CF93DF931F92CDB7DEB719
:100460008C017B01FB01608169830E947C106981A2
:10047000681719F0C8010E948410C7010F90DF911E
:10048000CF911F910F91FF90EF9008951F920F92BF
:100490000FB60F9211242F933F934F935F936F9357
:1004A0007F938F939F93AF93BF93EF93FF9389E8CD
:1004B00091E00E944401FF91EF91BF91AF919F9114
:1004C0008F917F916F915F914F913F912F910F90FD
:1004D0000FBE0F901F9018951F920F920FB60F929C
:1004E00011242F938F939F93EF93FF93E0919901A2
:1004F000F0919A018081E0919F01F091A00182FD2D
:1005000012C090818091A2018F5F8F732091A3010F
:10051000821751F0E091A201F0E0E757FE4F958F6E
:100520008093A20101C08081FF91EF919F918F91F3
:100530002F910F900FBE0F901F9018951F93CF9380
:10054000DF93282F30E0F901E458FE4F8491F90140
:10055000E255FE4FD491F901E656FE4FC491CC23EB
:10056000C9F0162F81110E94D801EC2FF0E0EE0F98
:10057000FF1FEE58FE4FA591B4918FB7F89411115B
:1005800005C09C91ED2FE095E92302C0EC91ED2B85
:10059000EC938FBFDF91CF911F910895CF93DF939D
:1005A000EC0160E08E810E949E0261E08E810E94DB
:1005B0009E0260E08E810E949E028BE891E001978E
:1005C000F1F7DF91CF910895CF93DF9390E0FC0195
:1005D000E255FE4F2491FC01E656FE4F849188239C
:1005E00061F190E0880F991FFC01E859FE4FC59119
:1005F000D491FC01EE58FE4FA591B491611109C050
:100600009FB7F8948881209582238883EC912E23CC
:100610000BC0623061F49FB7F8943881822F8095C7
:1006200083238883EC912E2B2C939FBF06C08FB71A
:10063000F894E8812E2B28838FBFDF91CF91089506
:100640008F929F92AF92BF92CF92DF92EF92FF92E2
:100650006B017C010E9401024B015C01C114D104B9
:10066000E104F104F1F00E940102DC01CB018819E0
:100670009909AA09BB09883E9340A105B10570F309
:1006800021E0C21AD108E108F10888EE880E83E063
:10069000981EA11CB11CC114D104E104F10419F786
:1006A000DDCFFF90EF90DF90CF90BF90AF909F9005
:1006B0008F9008952FB7F894609167017091680149
:1006C0008091690190916A012FBF08951F920F9246
:1006D0000FB60F9211242F933F938F939F93AF9355
:1006E000BF938091670190916801A0916901B091D9
:1006F0006A013091660123E0230F2D3720F4019623
:10070000A11DB11D05C026E8230F0296A11DB11D34
:10071000209366018093670190936801A09369011B
:10072000B0936A0180916B0190916C01A0916D0171
:10073000B0916E010196A11DB11D80936B01909344
:100740006C01A0936D01B0936E01BF91AF919F9129
:100750008F913F912F910F900FBE0F901F90189582
:10076000DC01E0E0615038F08D91E827F0E0E859D5
:10077000FF4FE491F7CF8E2F0895FC019081018007
:10078000F281E02DF8948181892B81832281892F48
:10079000809528232283A7E0B0E01197F1F721810B
:1007A00082238183A3E2B0E01197F1F780817894EE
:1007B000EFECF0E03197F1F7982381E009F480E065
:1007C0000895FC0190810180F281E02D892F8095B0
:1007D00060FF12C0F8942281822382838181892B59
:1007E0008183A3E2B0E01197F1F78281982B928385
:1007F000789487ED90E011C0F8942281822382835F
:100800008181892B8183AFEFB0E01197F1F782816D
:10081000982B928378948FE090E00197F1F70895F8
:10082000CF92DF92EF92FF920F931F93CF93DF93BC
:100830001F92CDB7DEB76C01E62E08E010E0FF2472
:10084000F39461E08F2D8E2109F460E0C6014983A5
:100850000E94E103FF0C01501109498101151105A6
:1008600081F7411115C0F894D6011196ED91FC91D4
:10087000129791818C918095892381831196ED91B6
:10088000FC91129792818C91809589238283789430
:100890000F90DF91CF911F910F91FF90EF90DF901C
:1008A000CF900895CF92DF92EF92FF920F931F9314
:1008B000CF93DF931F92CDB7DEB78C01F62E40E0C9
:1008C00065E579830E941004CF2C7981D72E7601BB
:1008D00088E0E80EF11CF60161916F0140E0C8016B
:1008E0000E941004CE14DF04B1F70F90DF91CF9176
:1008F0001F910F91FF90EF90DF90CF900895FC0132
:1009000090810180F281E02DF8948181292F20953A
:100910008223818378948DE743E050E0815021F178
:10092000DA011197F1F730813923C1F3F89482810C
:10093000822382838181892B81837894ABE7B7E01E
:100940001197F1F7F894818128232183A3E1B1E085
:100950001197F1F78081982381E009F080E0789485
:10096000E3E6F6E03197F1F70895CF92DF92EF9248
:10097000FF920F931F93CF93DF937C016C0187E06D
:10098000C80ED11CC0E0D0E0062F10E0B8010C2E3C
:1009900002C0759567950A94E2F76170F60181913E
:1009A0006F010E949E022196C430D10579F7C701DC
:1009B000DF91CF911F910F91FF90EF90DF90CF903B
:1009C0000C94CE02CF92DF92EF92FF920F931F937F
:1009D000CF93DF93EC01F62E642F8C810E949E0250
:1009E0008D818F3F19F060E00E949E028F850F2D50
:1009F00010E084FF25C06E0187E0C80ED11CE12CF9
:100A0000F12CB8010E2C02C0759567950A94E2F797
:100A10006170F60181916F010E949E02FFEFEF1A53
:100A2000FF0A88E0E816F10461F7CE01DF91CF916B
:100A30001F910F91FF90EF90DF90CF900C94CE021A
:100A4000B80184E0759567958A95E1F7CE010E941B
:100A5000B5046F2DCE01DF91CF911F910F91FF90C3
:100A6000EF90DF90CF900C94B50441E00E94E20437
:100A700081E090E0089540E00C94E204CF92DF9290
:100A8000EF92FF920F931F93CF93DF936C017A0144
:100A90008B01C0E0D0E0CE15DF0589F0D8016D9163
:100AA0008D01D601ED91FC910190F081E02DC60100
:100AB0000995892B11F47E0102C02196ECCFC70164
:100AC000DF91CF911F910F91FF90EF90DF90CF902A
:100AD0000895AF92BF92CF92DF92EF92FF920F9361
:100AE0001F93CF93DF938B01BC0180917302909190
:100AF00074020E94520440E06EEB80917302909168
:100B000074020E941004E801680189E0C80ED11C3B
:100B1000A0907302B090740288E0E82EF12C01E0FE
:100B200010E0C5010E94BD038111102B000F81E070
:100B3000E81AF108B1F71993CC15DD0549F7809152
:100B40007302909174020E947F0491E0813009F059
:100B500090E0892FDF91CF911F910F91FF90EF903F
:100B6000DF90CF90BF90AF9008950E948F11EF92C9
:100B7000FF920F931F93CF93DF93EC01623018F035
:100B80008F8588608F876B8B1C8A80E48D8B80E1DA
:100B90008E8B80E58F8B61E08C810E94E4028D81D9
:100BA0008F3F19F061E00E94E40261E08E810E94B3
:100BB000E4027E0187E0E80EF11C00E010E08F8582
:100BC00084FD03C084E090E002C088E090E0081754
:100BD00019074CF461E0F70181917F010E94E40262
:100BE0000F5F1F4FECCF8BE39DE00197F1F760E0C3
:100BF0008C810E949E0260E08E810E949E028D8107
:100C00008F3F19F060E00E949E026F8564FD1DC059
:100C100063E0CE010E94B5040BE416E4C80101971D
:100C2000F1F763E0CE010E94B504C8010197F1F726
:100C300063E0CE010E94B50483E592E00197F1F7ED
:100C400062E0CE010E94B50416C06062CE010E942F
:100C50003B058BE496E40197F1F76F856062CE0166
:100C60000E943B0583E592E00197F1F76F85606292
:100C7000CE010E943B056F856062CE010E943B055C
:100C800084E0888B6CE0CE010E943B0561E0CE01E0
:100C90000E943B058BE39FE10197F1F782E0898B8E
:100CA00066E0CE01DF91CF911F910F91FF90EF9001
:100CB0000C943B05E9E8F1E0A089B18982E08C93CE
:100CC000A485B5851C92A685B7858FEC8C93108E74
:100CD000A489B58986E08C93A289B3898C918061BF
:100CE0008C93A289B3898C9188608C93A289B389F3
:100CF0008C9180688C930288F389E02D80818F7DB0
:100D000080830895AF92BF92CF92DF92EF92FF92CD
:100D10000F931F93CF93DF931F92CDB7DEB75C0184
:100D2000D62EE72EFC018585811105C0C5010E94E4
:100D30007F04811106C0F50113861586148680E0B4
:100D400065C040E060EFC5010E94100401E0F12C95
:100D5000C12C11E0C5010E94BD03682FC501698344
:100D60000E94BD036981613019F48130B9F433C048
:100D70004F2D50E068131BC0F5018385181730F420
:100D8000E40FF51F8381802349F402C0181731F066
:100D900060E0193058F4F501148708C0F501EF0D33
:100DA000F11D8381802B838361E009C0C12EF50191
:100DB000E40FF51F9381802F809589238383C501DC
:100DC0000E94E1031F5F000F11F4F39401E0F7E0CC
:100DD000FF1508F0BFCF113408F4ADCFF501C3867D
:100DE000C11002C081E08587F5018381882309F461
:100DF000A2CFD5011396ED2DFE2D9501255F3F4F16
:100E00008D918193A217B307D9F781E00F90DF91FD
:100E1000CF911F910F91FF90EF90DF90CF90BF90F7
:100E2000AF900895CF93DF93CDB7DEB761970FB63C
:100E3000F894DEBF0FBECDBFE0917302F091740253
:100E4000138615861486DF011B96CF0103961E922A
:100E5000A817B907E1F7BE01665F7F4FCF010E9477
:100E60008206882341F067E0CE010A960E94B00313
:100E70009989891729F060E070E08EEF92EC59C0F3
:100E800080917302909174020E947F048823F1F193
:100E9000BE016F5F7F4FCE010A960E9469058823CD
:100EA000A9F168E0CE0101960E94B00399858913EB
:100EB0002DC0698148E0649FB00111248A81282FE8
:100EC00030E0322F2227330F330F330F262B372BEF
:100ED0008A858031C9F4688570E08F81AB01481B39
:100EE0005109CA019695982F8827979587950E9452
:100EF000611160517109207F53E0220F331F5A9511
:100F0000E1F7620F731F04C0B90102C060E874EE1C
:100F1000613854EE75070CF4AECF072E000C880B29
:100F2000990B0E945F0F20E030E040E05CE30E94FC
:100F3000BE0F61960FB6F894DEBF0FBECDBFDF9136
:100F4000CF9108950F931F93CF93DF93CDB7DEB763
:100F500029970FB6F894DEBF0FBECDBFFC012081EC
:100F6000203161F18C0180917302909174020E9492
:100F70007F04882309F1BE016F5F7F4FC8010E9483
:100F800069058823C9F068E0CE0101960E94B0038C
:100F90009985891311C08D818F3361F020F48F31D1
:100FA00059F489E00CC08F3519F08F3739F004C03F
:100FB0008BE005C08AE003C080E001C08CE0299688
:100FC0000FB6F894DEBF0FBECDBFDF91CF911F915A
:100FD0000F9108958F929F92AF92BF92CF92DF921E
:100FE000EF92FF92CF93DF938091730290917402FE
:100FF0000E947F0440E06CEC809173029091740237
:101000000E94100440916E0264E4809173029091FA
:1010100074020E94100480917002882309F445C074
:10102000E0916F02E950E33040F4F0E0EE0FFF1F73
:10103000E65FFE4FC081D18102C0CEEED2E080914A
:101040007102882311F180916E0281111EC00E94ED
:101050005A034B015C016E01DD0FEE08FF08809121
:101060007302909174020E94BD038130F1F00E94DE
:101070005A03DC01CB018C199D09AE09BF09881503
:101080009905AA05BB0558F310C0BE01DD0F880BFA
:10109000990BDF91CF91FF90EF90DF90CF90BF90B1
:1010A000AF909F908F900C942003DF91CF91FF9091
:1010B000EF90DF90CF90BF90AF909F908F9008956A
:1010C000DC01ED91FC910190F081E02D0994611516
:1010D000710579F0FB0101900020E9F73197AF012C
:1010E000461B570BDC01ED91FC910280F381E02D52
:1010F000099480E090E008954F925F926F927F9202
:10110000EF92FF920F931F93CF93DF93CDB7DEB78C
:10111000A1970FB6F894DEBF0FBECDBF7C01FA01D8
:10112000CB0119A2223008F42AE08E010F5D1F4F77
:10113000422E512C612C712CBF01A30192010E94FF
:101140009210F901CA01015011096A3014F4605D6E
:1011500001C0695CD8016C93232B242B252B61F7EC
:10116000B801C7010E946708A1960FB6F894DEBFC8
:101170000FBECDBFDF91CF911F910F91FF90EF90E8
:101180007F906F905F904F900895CF92DF92EF9293
:10119000FF92CF93DF936C01990FEE08FF08F7FEE3
:1011A00016C06DE289E891E00E946008EC014427D6
:1011B0005527BA014C195D096E097F092AE089E8B3
:1011C00091E00E947C087C01EC0EFD1E08C02AE024
:1011D000B701A60189E891E00E947C087C0167E3E1
:1011E00071E089E891E00E9467088E0D9F1DDF91F4
:1011F000CF91FF90EF90DF90CF900895CF92DF9244
:10120000EF92FF920F931F93CF93DF936B01770FB2
:10121000EE08FF08F7FE1BC0EC016DE20E946008BB
:101220008C0144275527BA014C195D096E097F09C5
:101230002AE0CE010E947C08800F911FDF91CF91A0
:101240001F910F91FF90EF90DF90CF9008952AE0CB
:10125000B701A601DF91CF911F910F91FF90EF9001
:10126000DF90CF900C947C080C946708CF93DF93A9
:10127000CDB7DEB729970FB6F894DEBF0FBECDBF4E
:10128000789484B5826084BD84B5816084BD85B561
:10129000826085BD85B5816085BD80916E0081606D
:1012A00080936E0010928100809181008260809313
:1012B0008100809181008160809381008091800015
:1012C0008160809380008091B10084608093B10040
:1012D0008091B00081608093B00080917A0084603A
:1012E00080937A0080917A00826080937A00809166
:1012F0007A00816080937A0080917A008068809380
:101300007A001092C10010926A0210926B02109241
:101310006C0210926D021092280210922902109213
:101320002A0210922B0260ED77E080E090E00E94AC
:10133000200389E891E090936902809368020E94FB
:101340005A060E945A0360932802709329028093E0
:101350002A0290932B0268E271E0809168029091DA
:1013600069020E9434096AE070E080E090E00E9427
:10137000200381E080933C020E945A06E0917302B0
:10138000F0917402138615861486DF011B9633963E
:101390001E92AE17BF07E1F71092720211E0BE0174
:1013A0006F5F7F4F80917302909174020E9482065A
:1013B000882309F44AC067E0CE0101960E94B00379
:1013C00098858913ECCF80916E02811127C080919E
:1013D0007302909174020E947F04BE016F5F7F4F81
:1013E00080917302909174020E94520440E064EB79
:1013F00080917302909174020E9410048091730294
:10140000909174020E94BD03082F80917302909105
:1014100074020E947F04002309F4F4C100916F025A
:10142000CE0101960E94A207801718F480916F02E6
:1014300004C0CE0101960E94A20780936F028091A2
:1014400072028F5F80937202AACF60E481E892E01B
:101450000E943B0500E011E0D8016D918D0181E80B
:1014600092E00E943505B1E008301B07A9F761E062
:1014700089E00E94E40261E08CE00E94E40262E004
:1014800088E00E94E4020E945A0360937401709302
:101490007501809376019093770162E081E892E094
:1014A0000E94B70500E010E0C8010E947C1088236C
:1014B00021F060E0C8010E9484100F5F1F4F0115EA
:1014C000E1E01E0789F798EE892E93E0992EA12C72
:1014D000B12C0CE310E024E8222E23E0322E0E94EF
:1014E0005A03672B682B692B41F40E945A03623020
:1014F00071058105910508F40FC10E945A0360939C
:101500008501709386018093870190938801C09034
:101510008101D0908201E0908301F09084016C15EC
:101520007D058E059F0540F46093810170938201D3
:101530008093830190938401C0908101D0908201B7
:10154000E0908301F09084019B01AC012C193D09CE
:101550004E095F0969017A013AEFC316D104E1042B
:10156000F10408F4D9C060938101709382018093E3
:1015700083019093840184EF91E0A0E0B0E0809338
:10158000340290933502A0933602B0933702109242
:1015900038021092390210923A0210923B02809166
:1015A0002C0290912D02A0912E02B0912F028093D7
:1015B000300290933102A0933202B09333020E9422
:1015C0005A0360932C0270932D0280932E02909305
:1015D0002F020E945A03609328027093290280937D
:1015E0002A0290932B020E945A036B017C016AE34A
:1015F00071E080916802909169020E9434092AE0AA
:1016000041E050E060E070E08091680290916902F2
:101610000E947C0861E471E0809168029091690207
:101620000E9434092AE0B701A601809168029091D6
:1016300069020E947C0863E471E0809168029091E5
:1016400069020E94340980912C0290912D02A09190
:101650002E02B0912F02B701A601481B590B6A0B4D
:101660007B0B2AE080916802909169020E947C08BD
:1016700063E471E080916802909169020E943409EC
:1016800040912C0250912D0260912E0270912F02F8
:101690008091300290913102A0913202B0913302D8
:1016A000481B590B6A0B7B0B2AE0809168029091D2
:1016B00069020E947C0865E471E080916802909163
:1016C00069020E9434090E945A03AB01BC012AE05E
:1016D00080916802909169020E947C08E090680203
:1016E000F090690267E471E0C7010E94670867E350
:1016F00071E0C7010E94670862E070E080E090E05E
:101700000E9420030E945A0360932C0270932D02C2
:1017100080932E0290932F020E94EA07E090080126
:10172000F090090161E08BE00E94E402E114F10411
:1017300011F460E005C09FEFE916F10429F461E0BF
:101740008BE00E949E0244C0E7E8F1E08491833080
:10175000F9F048F48130B9F08230A1F584B58062A7
:1017600084BDE8BC35C08730E9F0883019F1843099
:1017700049F580918000806280938000F0928B0018
:10178000E0928A0025C084B5806884BDE7BC20C093
:1017900080918000806880938000F0928900E092C0
:1017A000880016C08091B00080688093B000E092FD
:1017B000B3000EC08091B00080628093B000E092D0
:1017C000B40006C0F0E8EF16F1040CF0B8CFB1CFCA
:1017D000E4E8F1E08491E6EBF1E0F490E2EAF1E094
:1017E000E490EE2091F081110E94D801EE2DF0E0FE
:1017F000EE0FFF1FE057FE4FA591B4918C91F82298
:1018000021F084C210936E0209CE61E089E00E944B
:101810009E0280916F0181110AC081E080936F0167
:1018200028EC30E0309309012093080108C041E022
:1018300050E0509309014093080110926F01E1E0DC
:10184000809194028111E0E0E195F0E0EF57FD4FC7
:101850006489606881E892E00E943B056EE471E073
:1018600081E892E00E9434090E9412076B017C011A
:101870009B01AC010E945C11882319F064E571E0C2
:101880001AC026013701E89477F82FEF3FEF4FE7B2
:101890005FE7C301B2010E945C11811111C02FEFFB
:1018A0003FEF4FE75FE7C301B2010E94580F1816E0
:1018B0003CF468E571E081E892E00E9467087DC031
:1018C0002FEF3FEF4FE75FE4C701B6010E945711CA
:1018D00018161CF46CE571E0EECF2FEF3FEF4FE7E9
:1018E0005FECC701B6010E94580F87FDF3CF20E0DF
:1018F00030E0A901C701B6010E94580F87FF09C057
:101900006DE281E892E00E946008F7FAF094F7F83F
:10191000F0942AE037ED43EA5BE3C701B6010E9489
:10192000B5102B013C010E9428116B017C010E9423
:101930005D0F9B01AC01C301B2010E94B4102B01E9
:101940003C012AE0B701A60181E892E00E947C08F0
:101950006EE281E892E00E94600820E030E040E220
:1019600051E4C301B2010E94BE0F2B013C010E9451
:1019700028116B01E12CF12C2AE0B701A60181E8C6
:1019800092E00E947C08C701B6010E945D0F9B0196
:10199000AC01C301B2010E94B41020E030E040E28B
:1019A00051E40E94BE0F0E942811AB0160E070E07C
:1019B0002AE081E892E00E947C0860E081E892E001
:1019C0000E94600860E671E081E892E00E943409BC
:1019D000E0919402E23010F4E15001C0E1E0F0E067
:1019E000EF57FD4F6489606881E892E00E943B05F3
:1019F0000E945A03C0907401D0907501E090760166
:101A0000F09077016C197D098E099F09A501940159
:101A10000E94921030937B0120937A01C901B80192
:101A20000E946111CB017093730160937201B80140
:101A30000E946111709371016093700160E070E029
:101A400081E892E00E94FE0860917001709171013E
:101A500081E892E00E94FE0863E471E081E892E090
:101A60000E9434098091720190917301B8010E9423
:101A700061118A3091056CF462E671E081E892E0D0
:101A80000E9434098091720190917301B8010E9403
:101A90006111BC0181E892E00E94FE0863E471E0FC
:101AA00081E892E00E94340980917A0190917B0153
:101AB000B8010E9461118A3091056CF462E671E010
:101AC00081E892E00E94340980917A0190917B0133
:101AD000B8010E946111BC0181E892E00E94FE08F9
:101AE000E0919402E23010F4E15001C0E1E0F0E056
:101AF000EF57FD4F6489645F606881E892E00E945F
:101B00003B0560917C0170917D0181E892E00E942B
:101B1000FE0880917F019091800101969093800151
:101B200080937F0164EF71E080E090E00E942003E9
:101B300080917E018111E3C0E0907C01F0907D01F5
:101B40005CEFE51653E0F5060CF0D5C080917A0104
:101B500090917B01B1010E946111892B09F05DC058
:101B60000E94EA070E94120720E030E040E251E4C0
:101B70000E94BE0F2B013C0120E030E0A9010E9431
:101B8000571120E030E040E05FE387FD05C0C3016E
:101B9000B2010E94B51004C0C301B2010E94B4108A
:101BA0000E9421114CE9460F4983BE016F5F7F4FB0
:101BB000C70149870E94270260917C0170917D01D5
:101BC0006F5F7F4F70937D0160937C0189E891E0A6
:101BD0000E94FE0864E671E089E891E00E94340901
:101BE000498550E060E070E02AE089E891E00E94D9
:101BF0007C0864E671E089E891E00E9434098091F4
:101C00007A0190917B010E94C50880917A019091A0
:101C10007B01909379018093780120917A01309132
:101C20007B01C901B1010E946111019709F06BC0EC
:101C300021503109809178019091790182179307A1
:101C400009F461C00E94EA070E94120720E030E018
:101C500040E251E40E94BE0F6B017C0120E030E0C5
:101C6000A9010E94571120E030E040E05FE387FDCA
:101C700005C0C701B6010E94B51004C0C701B60176
:101C80000E94B4100E9421114CE9460F4983BE0105
:101C90006F5F7F4F80917C0190917D0149870E9409
:101CA000270260917C0170917D016F5F7F4F70937F
:101CB0007D0160937C0189E891E00E94FE0864E662
:101CC00071E089E891E00E943409498550E060E0C4
:101CD00070E02AE089E891E00E947C0864E671E007
:101CE00089E891E00E94340980917A0190917B010A
:101CF0000E94C50808C081E080937E0104C061E0B5
:101D00008CE00E949E020E94CE01E9CB60E089E057
:101D10000E949E0294CD10928C0110928B0188EE4D
:101D200093E0A0E0B0E080938D0190938E01A093AA
:101D30008F01B093900184E191E090938A018093A8
:101D4000890185EC90E0909396018093950184EC55
:101D500090E0909398018093970180EC90E09093AD
:101D60009A018093990181EC90E090939C0180937B
:101D70009B0182EC90E090939E0180939D0186EC04
:101D800090E09093A00180939F011092A201109285
:101D9000A3011092A4011092A50110922C0210929E
:101DA0002D0210922E0210922F02109230021092E9
:101DB00031021092320210923302109234021092C9
:101DC00035021092360210923702109238021092A9
:101DD000390210923A0210923B0210928402109241
:101DE000830284E291E0909382028093810282E0F8
:101DF000809385028FEF8093860283E08093870231
:101E000084E08093880285E08093890286E0809355
:101E10008A0287E080938B0210928C0210928D02CE
:101E200010928E0210928F021092900261E081E86F
:101E300092E00E94B70560E08EE00E94E402ECEBC5
:101E4000F1E0E491E0939902E8EAF1E0E491F0E056
:101E5000EE0FFF1FE057FE4F8591949190939B02E8
:101E600080939A021092A4021092A6021092A502E8
:101E7000E4EAF2E0129282E0EC39F807D9F786E260
:101E800092E09093800280937F0289E992E09093A0
:101E90007402809373021092720210926E0289E0B3
:101EA00080936F0281E080937002809371020895A5
:101EB0000E949A0F08F481E00895E89409C097FB06
:101EC0003EF490958095709561957F4F8F4F9F4F11
:101ED0009923A9F0F92F96E9BB279395F695879555
:101EE00077956795B795F111F8CFFAF4BB0F11F418
:101EF00060FF1BC06F5F7F4F8F4F9F4F16C08823BF
:101F000011F096E911C0772321F09EE8872F762FF4
:101F100005C0662371F096E8862F70E060E02AF035
:101F20009A95660F771F881FDAF7880F9695879521
:101F300097F90895990F0008550FAA0BE0E8FEEFF6
:101F400016161706E807F907C0F012161306E4077D
:101F5000F50798F0621B730B840B950B39F40A2676
:101F600061F0232B242B252B21F408950A2609F454
:101F7000A140A6958FEF811D811D08950E94D10F6C
:101F80000C9442100E94341038F00E943B1020F054
:101F9000952311F00C942B100C94311011240C94F7
:101FA00076100E94531070F3959FC1F3950F50E087
:101FB000551F629FF001729FBB27F00DB11D639FFB
:101FC000AA27F00DB11DAA1F649F6627B00DA11DA1
:101FD000661F829F2227B00DA11D621F739FB00D47
:101FE000A11D621F839FA00D611D221F749F3327B7
:101FF000A00D611D231F849F600D211D822F762F50
:102000006A2F11249F5750409AF0F1F088234AF02C
:10201000EE0FFF1FBB1F661F771F881F9150504098
:10202000A9F79E3F510580F00C942B100C9476106C
:102030005F3FE4F3983ED4F3869577956795B7951F
:10204000F795E7959F5FC1F7FE2B880F911D969539
:10205000879597F9089597F99F6780E870E060E0A9
:1020600008959FEF80EC089500240A941616170631
:1020700018060906089500240A9412161306140679
:1020800005060895092E0394000C11F4882352F0DC
:10209000BB0F40F4BF2B11F460FF04C06F5F7F4F94
:1020A0008F4F9F4F089557FD9058440F551F59F07B
:1020B0005F3F71F04795880F97FB991F61F09F3F35
:1020C00079F087950895121613061406551FF2CF5E
:1020D0004695F1DF08C0161617061806991FF1CFAE
:1020E00086957105610508940895E894BB276627D5
:1020F0007727CB0197F90895F999FECF92BD81BD5D
:10210000F89A992780B50895262FF999FECF1FBA1E
:1021100092BD81BD20BD0FB6F894FA9AF99A0FBE10
:1021200001960895A1E21A2EAA1BBB1BFD010DC04A
:10213000AA1FBB1FEE1FFF1FA217B307E407F50777
:1021400020F0A21BB30BE40BF50B661F771F881F53
:10215000991F1A9469F760957095809590959B01E9
:10216000AC01BD01CF0108955058BB27AA270E949A
:10217000CC100C9442100E94341038F00E943B1096
:1021800020F039F49F3F19F426F40C9431100EF42A
:10219000E095E7FB0C942B10E92F0E94531058F3A5
:1021A000BA17620773078407950720F079F4A6F53C
:1021B0000C9475100EF4E0950B2EBA2FA02D0B0188
:1021C000B90190010C01CA01A0011124FF27591B7C
:1021D00099F0593F50F4503E68F11A16F040A22F82
:1021E000232F342F4427585FF3CF469537952795F3
:1021F000A795F0405395C9F77EF41F16BA0B620BF2
:10220000730B840BBAF09150A1F0FF0FBB1F661F38
:10221000771F881FC2F70EC0BA0F621F731F841F7B
:1022200048F4879577956795B795F7959E3F08F0A1
:10223000B0CF9395880F08F09927EE0F9795879563
:1022400008950E9428116894B1110C947610089595
:102250000E945B1088F09F5798F0B92F9927B751CB
:10226000B0F0E1F0660F771F881F991F1AF0BA953A
:10227000C9F714C0B13091F00E947510B1E0089513
:102280000C947510672F782F8827B85F39F0B93F05
:10229000CCF3869577956795B395D9F73EF49095ED
:1022A0008095709561957F4F8F4F9F4F08950E9445
:1022B0009A0F08F48FEF08950E949A0F880B990BDC
:1022C000089597FB072E16F4009407D077FD09D0E8
:1022D0000E94751107FC05D03EF4909581959F4FA3
:1022E0000895709561957F4F0895AA1BBB1B51E11E
:1022F00007C0AA1FBB1FA617B70710F0A61BB70B76
:10230000881F991F5A95A9F780959095BC01CD011A
:102310000895EE0FFF1F0590F491E02D099481E0E0
:0C23200090E0F8940C949411F894FFCF16
:10232C00040A110A0400000014005E00BC007701CE
:10233C000000000065013E052E010C012001AC01DE
:10234C000000000035053E05564D4450565F317C6B
:10235C00315F564D4450560D0A00564D4450455F62
:10236C00003A323A007C005F564D445045005465AB
:10237C006D703A006E616E00696E66006F76660075
:06238C00430030003B009D
:107E0000112484B714BE81FFF0D085E080938100F7
:107E100082E08093C00088E18093C10086E0809377
:107E2000C20080E18093C4008EE0C9D0259A86E02C
:107E300020E33CEF91E0309385002093840096BBD3
:107E4000B09BFECF1D9AA8958150A9F7CC24DD24C4
:107E500088248394B5E0AB2EA1E19A2EF3E0BF2EE7
:107E6000A2D0813461F49FD0082FAFD0023811F036
:107E7000013811F484E001C083E08DD089C08234E0
:107E800011F484E103C0853419F485E0A6D080C0E4
:107E9000853579F488D0E82EFF2485D0082F10E0AE
:107EA000102F00270E291F29000F111F8ED06801E7
:107EB0006FC0863521F484E090D080E0DECF843638
:107EC00009F040C070D06FD0082F6DD080E0C81688
:107ED00080E7D80618F4F601B7BEE895C0E0D1E017
:107EE00062D089930C17E1F7F0E0CF16F0E7DF06D8
:107EF00018F0F601B7BEE89568D007B600FCFDCFD4
:107F0000A601A0E0B1E02C9130E011968C91119780
:107F100090E0982F8827822B932B1296FA010C0160
:107F200087BEE89511244E5F5F4FF1E0A038BF0790
:107F300051F7F601A7BEE89507B600FCFDCF97BE46
:107F4000E89526C08437B1F42ED02DD0F82E2BD052
:107F50003CD0F601EF2C8F010F5F1F4F84911BD097
:107F6000EA94F801C1F70894C11CD11CFA94CF0C13
:107F7000D11C0EC0853739F428D08EE10CD085E9AC
:107F80000AD08FE07ACF813511F488E018D01DD067
:107F900080E101D065CF982F8091C00085FFFCCF94
:107FA0009093C60008958091C00087FFFCCF809118
:107FB000C00084FD01C0A8958091C6000895E0E648
:107FC000F0E098E1908380830895EDDF803219F02E
:107FD00088E0F5DFFFCF84E1DECF1F93182FE3DFCA
:107FE0001150E9F7F2DF1F91089580E0E8DFEE27F6
:047FF000FF270994CA
:027FFE00040479
:0400000300007E007B
:00000001FF