:100000000C94E2000C940A010C940A010C940A016D
:100010000C940A010C940A010C940A010C940A0134
:100020000C940A010C940A010C940A010C940A0124
:100030000C940A010C940A010C940A010C940A0114
:100040000C94B8030C940A010C94BE020C94980210
:100050000C940A010C940A010C940A010C940A01F4
:100060000C940A010C940A01005EBCE2613FDD833E
:10007000C29C7E20A3FD1F419DC3217FFCA2401E88
:100080005F01E3BD3E6082DC237D9FC1421CFEA078
:10009000E1BF5D0380DE3C62BEE0025CDF81633D68
:1000A0007C22C09E1D43A1FF4618FAA427799BC558
:1000B00084DA3866E5BB5907DB856739BAE4065848
:1000C0001947A5FB7826C49A653BD987045AB8E638
:1000D000A7F91B45C6987A24F8A6441A99C7257B28
:1000E0003A6486D85B05E7B98CD2306EEDB3510F18
:1000F0004E10F2AC2F7193CD114FADF3702ECC9208
:10010000D38D6F31B2EC0E50AFF1134DCE90722CF7
:100110006D33D18F0C52B0EE326C8ED0530DEFB1E7
:10012000F0AE4C1291CF2D73CA947628ABF51749D7
:100130000856B4EA6937D58B5709EBB536688AD4C7
:1001400095CB2977F4AA4816E9B7550B88D6346AB7
:100150002B7597C94A14F6A8742AC896154BA9F7A7
:10016000B6E80A54D7896B35000000002400270048
:100170002A0000000000250028002B0000000008D5
:10018000000201000003040700000000000000005E
:1001900000000000230026002900040404040404D5
:1001A0000404020202020202030303030303010226
:1001B00004081020408001020408102001020408F5
:1001C0001020730E11241FBECFEFD8E0DEBFCDBFCD
:1001D00022E0A4E6B1E001C01D92A43AB207E1F723
:1001E00011E0A0E0B1E0E0EEF3E202C005900D9274
:1001F000A436B107D9F710E0C2EED0E004C02197D1
:10020000FE010E94E311C13ED107C9F70E94040A12
:100210000C94EE110C940000FC01918D828D9817C6
:1002200061F0828DDF01A80FB11D5D968C91928DDA
:100230009F5F9F73928F90E008958FEF9FEF0895D7
:10024000FC01918D828D981731F0828DE80FF11DA0
:10025000858D90E008958FEF9FEF0895FC01918DBB
:10026000228D892F90E0805C9F4F821B91098F73B4
:100270009927089586E891E00E942E0121E0892BBC
:1002800009F420E0822F0895FC01848DDF01A80F7E
:10029000B11DA35ABF4F2C91848D90E001968F73AE
:1002A0009927848FA689B7892C93A089B1898C91CD
:1002B00080648C93938D848D981306C00288F38993
:1002C000E02D80818F7D80830895EF92FF920F93C0
:1002D0001F93CF93DF93EC0181E0888F9B8D8C8DF2
:1002E000981305C0E889F989808185FD24C0F62E20
:1002F0000B8D10E00F5F1F4F0F731127E02E8C8DB9
:10030000E8120CC00FB607FCFACFE889F9898081A2
:1003100085FFF5CFCE010E944401F1CF8B8DFE0108
:10032000E80FF11DE35AFF4FF0820B8FEA89FB893A
:100330008081806207C0EE89FF896083E889F9893E
:1003400080818064808381E090E0DF91CF911F9174
:100350000F91FF90EF900895CF93DF93EC01888D7C
:100360008823C9F0EA89FB89808185FD05C0A889B9
:10037000B9898C9186FD0FC00FB607FCF5CF80813F
:1003800085FFF2CFA889B9898C9185FFEDCFCE0189
:100390000E944401E7CFDF91CF91089580E090E083
:1003A000892B29F00E943A0181110C9400000895D4
:1003B000833081F028F4813099F08230A1F00895E3
:1003C0008730A9F08830B9F08430D1F48091800072
:1003D0008F7D03C0809180008F7780938000089587
:1003E00084B58F7702C084B58F7D84BD08958091D8
:1003F000B0008F7703C08091B0008F7D8093B000F4
:100400000895CF93DF93282F30E0F901E458FE4F91
:100410008491F901E255FE4FD491F901E656FE4F61
:10042000C491CC2391F081110E94D801EC2FF0E00F
:10043000EE0FFF1FE057FE4FA591B491EC91ED2315
:1004400081E090E021F480E002C080E090E0DF9164
:10045000CF9108953FB7F8948091690190916A0116
:10046000A0916B01B0916C0126B5A89B05C02F3FF0
:1004700019F00196A11DB11D3FBFBA2FA92F982FCA
:100480008827820F911DA11DB11DBC01CD0142E045
:10049000660F771F881F991F4A95D1F70895089511
:1004A000CF92DF92EF92FF9220E030E040E251E401
:1004B0000E94A60F6B017C0120E030E0A9010E94A0
:1004C000B11120E030E040E05FE387FD05C0C701E7
:1004D000B6010E949D1004C0C701B6010E949C1085
:1004E0000E947B118CE9860FFF90EF90DF90CF90F8
:1004F0000895EF92FF920F931F93CF93DF931F9274
:10050000CDB7DEB78C017B01FB01608169830E945E
:1005100064106981681719F0C8010E946C10C70146
:100520000F90DF91CF911F910F91FF90EF90089561
:100530001F920F920FB60F9211242F933F934F9358
:100540005F936F937F938F939F93AF93BF93EF933B
:10055000FF9386E891E00E944401FF91EF91BF91E3
:10056000AF919F918F917F916F915F914F913F914B
:100570002F910F900FBE0F901F9018951F920F9202
:100580000FB60F9211242F938F939F93EF93FF93A6
:10059000E0919601F09197018081E0919C01F091AA
:1005A0009D0182FD12C0908180919F018F5F8F73AA
:1005B0002091A001821751F0E0919F01F0E0EA57ED
:1005C000FE4F958F80939F0101C08081FF91EF9135
:1005D0009F918F912F910F900FBE0F901F901895A4
:1005E0001F93CF93DF93282F30E0F901E458FE4F9B
:1005F0008491F901E255FE4FD491F901E656FE4F80
:10060000C491CC23C9F0162F81110E94D801EC2F80
:10061000F0E0EE0FFF1FEE58FE4FA591B4918FB79B
:10062000F894111105C09C91ED2FE095E92302C0CB
:10063000EC91ED2BEC938FBFDF91CF911F9108953B
:10064000CF93DF93EC0160E08E810E94F00261E0C5
:100650008E810E94F00260E08E810E94F0028BE8A1
:1006600091E00197F1F7DF91CF910895CF93DF9358
:1006700090E0FC01E255FE4F2491FC01E656FE4F4E
:100680008491882361F190E0880F991FFC01E8595B
:10069000FE4FC591D491FC01EE58FE4FA591B49147
:1006A000611109C09FB7F8948881209582238883BF
:1006B000EC912E230BC0623061F49FB7F89438811F
:1006C000822F809583238883EC912E2B2C939FBFC0
:1006D00006C08FB7F894E8812E2B28838FBFDF9157
:1006E000CF9108958F929F92AF92BF92CF92DF9257
:1006F000EF92FF926B017C010E942A024B015C0188
:10070000C114D104E104F104F1F00E942A02DC01D9
:10071000CB0188199909AA09BB09883E9340A10514
:10072000B10570F321E0C21AD108E108F10888EEA2
:10073000880E83E0981EA11CB11CC114D104E104F1
:10074000F10419F7DDCFFF90EF90DF90CF90BF90CD
:10075000AF909F908F9008952FB7F89460916501A6
:100760007091660180916701909168012FBF089593
:100770001F920F920FB60F9211242F933F938F93D6
:100780009F93AF93BF938091650190916601A09173
:100790006701B09168013091640123E0230F2D3788
:1007A00020F40196A11DB11D05C026E8230F029675
:1007B000A11DB11D20936401809365019093660192
:1007C000A0936701B09368018091690190916A01DB
:1007D000A0916B01B0916C010196A11DB11D809398
:1007E000690190936A01A0936B01B0936C01BF9172
:1007F000AF919F918F913F912F910F900FBE0F90CE
:100800001F901895DC01E0E0615038F08D91E827E9
:10081000F0E0E859FF4FE491F7CF8E2F0895FC01E7
:1008200090810180F281E02DF8948181892B818370
:100830002281892F809528232283A7E0B0E0119799
:10084000F1F7218182238183A3E2B0E01197F1F7D0
:1008500080817894EFECF0E03197F1F7982381E014
:1008600009F480E00895FC0190810180F281E02D7F
:10087000892F809560FF12C0F894228182238283A1
:100880008181892B8183A3E2B0E01197F1F7828106
:10089000982B9283789487ED90E011C0F894228190
:1008A000822382838181892B8183AFEFB0E011970E
:1008B000F1F78281982B928378948FE090E00197F2
:1008C000F1F70895CF92DF92EF92FF920F931F936B
:1008D000CF93DF931F92CDB7DEB76C01E62E08E011
:1008E00010E0FF24F39461E08F2D8E2109F460E085
:1008F000C60149830E943304FF0C0150110949814C
:100900000115110581F7411115C0F894D601119612
:10091000ED91FC91129791818C918095892381832F
:100920001196ED91FC91129792818C91809589237B
:10093000828378940F90DF91CF911F910F91FF9058
:10094000EF90DF90CF900895CF92DF92EF92FF92D9
:100950000F931F93CF93DF931F92CDB7DEB78C0118
:10096000F62E40E065E579830E946204CF2C798100
:10097000D72E760188E0E80EF11CF60161916F0137
:1009800040E0C8010E946204CE14DF04B1F70F906A
:10099000DF91CF911F910F91FF90EF90DF90CF905B
:1009A0000895FC0190810180F281E02DF89481810D
:1009B000292F20958223818378948DE743E050E0AE
:1009C000815021F1DA011197F1F730813923C1F318
:1009D000F8948281822382838181892B8183789418
:1009E000ABE7B7E01197F1F7F894818128232183D1
:1009F000A3E1B1E01197F1F78081982381E009F03C
:100A000080E07894E3E6F6E03197F1F70895CF922D
:100A1000DF92EF92FF920F931F93CF93DF937C01AE
:100A20006C0187E0C80ED11CC0E0D0E0062F10E0BA
:100A3000B8010C2E02C0759567950A94E2F76170B3
:100A4000F60181916F010E94F0022196C430D10518
:100A500079F7C701DF91CF911F910F91FF90EF9030
:100A6000DF90CF900C942003CF92DF92EF92FF9211
:100A70000F931F93CF93DF93EC01F62E642F8C819D
:100A80000E94F0028D818F3F19F060E00E94F00219
:100A90008F850F2D10E084FF25C06E0187E0C80E02
:100AA000D11CE12CF12CB8010E2C02C07595679574
:100AB0000A94E2F76170F60181916F010E94F002E1
:100AC000FFEFEF1AFF0A88E0E816F10461F7CE01A4
:100AD000DF91CF911F910F91FF90EF90DF90CF901A
:100AE0000C942003B80184E0759567958A95E1F729
:100AF000CE010E9407056F2DCE01DF91CF911F918E
:100B00000F91FF90EF90DF90CF900C94070541E09C
:100B10000E94340581E090E0089540E00C94340593
:100B2000EF92FF920F931F93CF93DF93EC0162300C
:100B300018F08F8588608F876B8B1C8A80E48D8B83
:100B400080E18E8B80E58F8B61E08C810E94360383
:100B50008D818F3F19F061E00E94360361E08E8144
:100B60000E9436037E0187E0E80EF11C00E010E0F1
:100B70008F8584FD03C084E090E002C088E090E0AF
:100B8000081719074CF461E0F70181917F010E9479
:100B900036030F5F1F4FECCF8BE39DE00197F1F71A
:100BA00060E08C810E94F00260E08E810E94F00281
:100BB0008D818F3F19F060E00E94F0026F8564FD27
:100BC0001DC063E0CE010E9407050BE416E4C801D6
:100BD0000197F1F763E0CE010E940705C801019774
:100BE000F1F763E0CE010E94070583E592E00197EB
:100BF000F1F762E0CE010E94070516C06062CE01E7
:100C00000E948D058BE496E40197F1F76F85606291
:100C1000CE010E948D0583E592E00197F1F76F8583
:100C20006062CE010E948D056F856062CE010E94D8
:100C30008D0584E0888B6CE0CE010E948D0561E01B
:100C4000CE010E948D058BE39FE10197F1F782E0D1
:100C5000898B66E0CE01DF91CF911F910F91FF90BC
:100C6000EF900C948D05E6E8F1E0A089B18982E06F
:100C70008C93A485B5851C92A685B7858FEC8C9343
:100C8000108EA489B58986E08C93A289B3898C9152
:100C900080618C93A289B3898C9188608C93A2899E
:100CA000B3898C9180688C930288F389E02D8081D0
:100CB0008F7D80830895AF92BF92CF92DF92EF92A3
:100CC000FF920F931F93CF93DF931F92CDB7DEB7A1
:100CD0005C01D62EE72EFC018585811105C0C5017A
:100CE0000E94D104811106C0F50113861586148671
:100CF00080E065C040E060EFC5010E94620401E051
:100D0000F12CC12C11E0C5010E940F04682FC50110
:100D100069830E940F046981613019F48130B9F44C
:100D200033C04F2D50E068131BC0F50183851817A1
:100D300030F4E40FF51F8381802349F402C01817B3
:100D400031F060E0193058F4F501148708C0F5015E
:100D5000EF0DF11D8381802B838361E009C0C12EDB
:100D6000F501E40FF51F9381802F809589238383FC
:100D7000C5010E9433041F5F000F11F4F39401E0DA
:100D8000F7E0FF1508F0BFCF113408F4ADCFF5013F
:100D9000C386C11002C081E08587F5018381882365
:100DA00009F4A2CFD5011396ED2DFE2D9501255FF7
:100DB0003F4F8D918193A217B307D9F781E00F9030
:100DC000DF91CF911F910F91FF90EF90DF90CF9027
:100DD000BF90AF900895AF92BF92CF92DF92EF9203
:100DE000FF920F931F93CF93DF938B01BC018091F0
:100DF0007002909171020E94A40440E06EEB809119
:100E00007002909171020E946204E801680189E019
:100E1000C80ED11CA0907002B090710288E0E82E3C
:100E2000F12C01E010E0C5010E940F048111102B8C
:100E3000000F81E0E81AF108B1F71993CC15DD0530
:100E400049F780917002909171020E94D10491E063
:100E5000813009F090E0892FDF91CF911F910F91A0
:100E6000FF90EF90DF90CF90BF90AF9008950F93D9
:100E70001F93CF93DF93CDB7DEB729970FB6F894C2
:100E8000DEBF0FBECDBFFC012081203161F18C019E
:100E900080917002909171020E94D104882309F11F
:100EA000BE016F5F7F4FC8010E94EB068823C9F027
:100EB00068E0CE0101960E9402049985891311C051
:100EC0008D818F3361F020F48F3159F489E00CC0AB
:100ED0008F3519F08F3739F004C08BE005C08AE0F8
:100EE00003C080E001C08CE029960FB6F894DEBF05
:100EF0000FBECDBFDF91CF911F910F910895E0916B
:100F00007E02F0917F020190F081E02D682F8EE744
:100F100092E009944F925F926F927F928F929F928C
:100F2000AF92BF92CF92DF92EF92FF926B017C0162
:100F3000B42E9B01AC010E94B611882319F068E51C
:100F400071E027C026013701E89477F82FEF3FEFD3
:100F50004FE75FE7C301B2010E94B61181110DC0D6
:100F60002FEF3FEF4FE75FE7C301B2010E94400F51
:100F700018161CF46CE571E00CC02FEF3FEF4FE743
:100F80005FE4C701B6010E94B111181694F460E63F
:100F900071E08EE792E0FF90EF90DF90CF90BF90EE
:100FA000AF909F908F907F906F905F904F900C9438
:100FB000A4092FEF3FEF4FE75FECC701B6010E9496
:100FC000400F87FDE4CF20E030E0A901C701B60162
:100FD0000E94400F87FF09C08DE20E947F074C01ED
:100FE000F7FAF094F7F8F09402C0812C912CA12C20
:100FF00060E070E080E09FE3AB1441F020E030E07F
:1010000040E251E40E940911A394F6CF9B01AC0188
:10101000C701B6010E949D102B013C010E94821164
:101020006B017C010E94450F9B01AC01C301B20121
:101030000E949C102B013C012AE0B701A6018EE71B
:1010400092E00E94B9097C01E80CF91CBB2029F050
:101050008EE20E947F07E80EF91EDB2CDD2031F1C5
:1010600020E030E040E251E4C301B2010E94A60F4B
:101070002B013C010E9482114B01A12CB12C2AE0D2
:10108000B501A4018EE792E00E94B909E80EF91EAD
:10109000C501B4010E94450F9B01AC01C301B2011F
:1010A0000E949C102B013C01DA94D8CFC701FF901D
:1010B000EF90DF90CF90BF90AF909F908F907F90F8
:1010C0006F905F904F900895CF92DF92EF92FF92D2
:1010D0000F931F93CF93DF936C017A018B01C0E0D4
:1010E000D0E0CE15DF0589F0D8016D918D01D601D4
:1010F000ED91FC910190F081E02DC6010995892BBD
:1011000011F47E0102C02196ECCFC701DF91CF918F
:101110001F910F91FF90EF90DF90CF9008950E9464
:10112000E9110F931F93CF93DF93CDB7DEB761978C
:101130000FB6F894DEBF0FBECDBF082FE09170024E
:10114000F0917102138615861486DF011B96339683
:101150001E92AE17BF07E1F710E0BE01665F7F4F3A
:1011600080917002909171020E945B06882369F061
:10117000101308C067E0CE010A960E940204998904
:10118000891741F01F5F011740F760E070E08EEFB4
:1011900092EC59C080917002909171020E94D1042A
:1011A0008823F1F1BE016F5F7F4FCE010A960E9446
:1011B000EB068823A9F168E0CE0101960E940204A3
:1011C000998589132DC0698148E0649FB00111247D
:1011D0008A81282F30E0322F2227330F330F330F2D
:1011E000262B372B8A858031C9F4688570E08F8182
:1011F000AB01481B5109CA019695982F88279795EE
:1012000087950E94BB1160517109207F53E0220F26
:10121000331F5A95E1F7620F731F04C0B90102C072
:1012200060E874EE613854EE75070CF4AECF072E0B
:10123000000C880B990B0E94470F20E030E040E043
:101240005CE30E94A60F61960FB6F894DEBF0FBE56
:10125000CDBFDF91CF911F910F9108958F929F92F3
:10126000AF92BF92CF92DF92EF92FF92CF93DF9334
:1012700080917002909171020E94D10440E06CEC68
:1012800080917002909171020E94620440916B0201
:1012900064E480917002909171020E9462048091D6
:1012A0006D02882309F445C0E0916C02E950E330F7
:1012B00040F4F0E0EE0FFF1FEE5DFE4FC081D181E4
:1012C00002C0CEEED2E080916E02882311F18091AF
:1012D0006B0281111EC00E94AC034B015C016E01C8
:1012E000DD0FEE08FF0880917002909171020E945C
:1012F0000F048130F1F00E94AC03DC01CB018C19AA
:101300009D09AE09BF0988159905AA05BB0558F3C3
:1013100010C0BE01DD0F880B990BDF91CF91FF90BC
:10132000EF90DF90CF90BF90AF909F908F900C94F4
:101330007203DF91CF91FF90EF90DF90CF90BF903D
:10134000AF909F908F9008956115710579F0FB0122
:1013500001900020E9F73197AF01461B570BDC01E4
:10136000ED91FC910280F381E02D099480E090E002
:1013700008954F925F926F927F92EF92FF920F9338
:101380001F93CF93DF93CDB7DEB7A1970FB6F89435
:10139000DEBF0FBECDBF7C01FA01CB0119A2223006
:1013A00008F42AE08E010F5D1F4F422E512C612C54
:1013B000712CBF01A30192010E947A10F901CA01A8
:1013C000015011096A3014F4605D01C0695CD801F4
:1013D0006C93232B242B252B61F7B801C7010E94A6
:1013E000A409A1960FB6F894DEBF0FBECDBFDF9162
:1013F000CF911F910F91FF90EF907F906F905F9032
:101400004F9008950C94A409CF93DF93CDB7DEB726
:101410002C970FB6F894DEBF0FBECDBF789484B57D
:10142000826084BD84B5816084BD85B5826085BDE0
:1014300085B5816085BD80916E00816080936E006E
:101440001092810080918100826080938100809160
:101450008100816080938100809180008160809311
:1014600080008091B10084608093B1008091B000D1
:1014700081608093B00080917A00846080937A00CC
:1014800080917A00826080937A0080917A008160F6
:1014900080937A0080917A00806880937A0010921D
:1014A000C1001092670210926802109269021092B5
:1014B0006A021092250210922602109227021092C0
:1014C000280260ED77E080E090E00E94720386E8F9
:1014D00091E090936602809365020E9433060E9419
:1014E000AC036093250270932602809327029093A9
:1014F000280268E271E080916502909166020E9484
:10150000020A6AE070E080E090E00E94720381E0ED
:10151000809339020E943306E0917002F0917102CB
:10152000138615861486DF011B9633961E92AE171E
:10153000BF07E1F710926F0211E0BE016F5F7F4FAE
:1015400080917002909171020E945B06882309F4D9
:101550004AC067E0CE0101960E9402049885891373
:10156000ECCF80916B02811127C080917002909125
:1015700071020E94D104BE016F5F7F4F80917002A3
:10158000909171020E94A40440E064EB809170028B
:10159000909171020E946204809170029091710298
:1015A0000E940F04082F80917002909171020E9496
:1015B000D104002309F494C300916C02CE0101967A
:1015C0000E943707801718F480916C0204C0CE0186
:1015D00001960E94370780936C0280916F028F5FA3
:1015E00080936F02AACF60E48EE792E00E948D059F
:1015F00000E011E0F80161918F018EE792E00E9416
:101600008705F1E008301F07A9F761E089E00E9433
:10161000360361E08CE00E94360362E088E00E94BD
:10162000360362E08DE00E9436030E94AC036093B3
:10163000720170937301809374019093750162E05D
:101640008EE792E00E94900584EF282E3324339495
:10165000412C512C772473940CE310E094E8A92ECC
:1016600093E0B92E28EC822E912C0E94AC03672BBC
:10167000682B692B41F40E94AC036230710581052F
:10168000910508F40BC10E94AC0360938201709332
:1016900083018093840190938501C0907E01D09056
:1016A0007F01E0908001F09081016C157D058E0531
:1016B0009F0540F460937E0170937F0180938001C9
:1016C00090938101C0907E01D0907F01E0908001D5
:1016D000F09081019B01AC012C193D094E095F0975
:1016E00069017A013AEFC316D104E104F10408F468
:1016F000D5C060937E0170937F01809380019093A9
:101700008101209231023092320240923302509293
:101710003402109235021092360210923702109263
:1017200038028091290290912A02A0912B02B09157
:101730002C0280932D0290932E02A0932F02B0933F
:1017400030020E94AC036093290270932A028093B6
:101750002B0290932C020E94AC036093250270939D
:10176000260280932702909328020E94AC036B010B
:101770007C016AE371E080916502909166020E94AB
:10178000020A2AE041E050E060E070E080916502EA
:10179000909166020E94B90961E471E0809165024E
:1017A000909166020E94020A2AE0B701A601809188
:1017B0006502909166020E94B90963E471E080912C
:1017C0006502909166020E94020A8091290290911E
:1017D0002A02A0912B02B0912C02B701A601481B4E
:1017E000590B6A0B7B0B2AE080916502909166028F
:1017F0000E94B90963E471E08091650290916602EC
:101800000E94020A4091290250912A0260912B0203
:1018100070912C0280912D0290912E02A0912F02A6
:10182000B0913002481B590B6A0B7B0B2AE0809168
:101830006502909166020E94B90965E471E08091A9
:101840006502909166020E94020A0E94AC03AB01FD
:10185000BC012AE080916502909166020E94B9095C
:10186000E0906502F090660267E471E0C7010E94B3
:10187000A40967E371E0C7010E94A40962E070E077
:1018800080E090E00E9472030E94AC036093290202
:1018900070932A0280932B0290932C028DE00E9479
:1018A0000102892B21F570927D0161E08CE00E949C
:1018B000F00268EE73E080E090E00E94720360E066
:1018C0008CE00E94F00264EF71E080E090E00E9402
:1018D000720361E08CE00E94F0026AEF70E080E049
:1018E00090E00E94720360E08CE00E94F002809120
:1018F0007D01882309F4EBC1E0900801F090090113
:1019000061E08BE00E943603E114F10411F460E021
:1019100005C04FEFE416F10429F461E08BE00E946A
:10192000F00244C0E7E8F1E084918330F9F048F434
:101930008130B9F08230A1F584B5806284BDE8BC05
:1019400035C08730E9F0883019F1843049F580914D
:101950008000806280938000F0928B00E0928A0089
:1019600025C084B5806884BDE7BC20C0809180001C
:10197000806880938000F0928900E092880016C011
:101980008091B00080688093B000E092B3000EC0F8
:101990008091B00080628093B000E092B40006C0F5
:1019A000F0E8EF16F1040CF0B8CFB1CF88E00E9458
:1019B0000102892BB1F461E089E00E94F00280917C
:1019C0006D01811107C070926D01909209018092A2
:1019D00008010BC0109209011092080110926D01CC
:1019E00004C060E089E00E94F0020E942E09E1E05C
:1019F000809191028111E0E0E195F0E0E258FD4F25
:101A0000648960688EE792E00E948D056EE471E063
:101A10008EE792E00E94020A80E00E94910842E074
:101A20000E948A0780E00E947F0764E571E08EE7EC
:101A300092E00E94020AE0919102E23010F4E1503B
:101A400001C0E1E0F0E0E258FD4F648960688EE794
:101A500092E00E948D056EE471E08EE792E00E94B4
:101A6000020A81E00E94910842E00E948A0780E019
:101A70000E947F0764E571E08EE792E00E94020A0F
:101A80000E94AC03C0907201D0907301E090740189
:101A9000F09075016C197D098E099F0928EE33E0DD
:101AA00040E050E00E947A10309379012093780151
:101AB000C901B8010E94BB11CB0170937101609301
:101AC0007001B8010E94BB1170936F0160936E01A9
:101AD000E0919102E23010F4E15001C0E1E0F0E069
:101AE000E258FD4F6489625F60688EE792E00E9471
:101AF0008D0540917A0150917B01052E000C660BFB
:101B0000770B77FF12C08DE249875A876B877C87F6
:101B10000E947F0749855A856B857C857095609505
:101B2000509541955F4F6F4F7F4F2AE08EE792E0CF
:101B30000E94B90980917C018111C5C0E0907A01B1
:101B4000F0907B0120E6E216F1040CF0B9C0809120
:101B5000780190917901B5010E94BB11892B09F0A0
:101B600050C00E942E0980E00E9491080E945002FD
:101B7000D82E8983BE016F5F7F4FC7010E94790213
:101B800081E00E9491080E945002F82E8983809182
:101B90007A0190917B01BE016F5F7F4F805A9F4F0A
:101BA0000E94790280917A0190917B010196909335
:101BB0007B0180937A014D2D50E060E070E02AE0D7
:101BC00086E891E00E94B90966E571E086E891E057
:101BD0000E94020A4F2D50E060E070E02AE086E8A3
:101BE00091E00E94B90967E371E086E891E00E9404
:101BF000A409809178019091790190937701809365
:101C000076012091780130917901C901B5010E94D6
:101C1000BB11019709F05BC0215031098091760119
:101C2000909177018217930709F451C00E942E0901
:101C300080E00E9491080E945002E82E8983BE0134
:101C40006F5F7F4F80917A0190917B010E947902B2
:101C5000C0907A01D0907B01C601019690937B01E0
:101C600080937A0181E00E9491080E945002F82E30
:101C70008983BE016F5F7F4FC6018F599F4F0E94BE
:101C800079024E2D50E060E070E02AE086E891E0B5
:101C90000E94B90966E571E086E891E00E94020AB7
:101CA0004F2D50E060E070E02AE086E891E00E946D
:101CB000B90967E371E086E891E00E94A40907C0D2
:101CC00070927C0104C061E08CE00E94F00264EF3D
:101CD00071E080E090E00E9472030E94CE01C5CCCA
:101CE00010936B0269CC109289011092880188EEE2
:101CF00093E0A0E0B0E080938A0190938B01A093E1
:101D00008C01B0938D018EE091E0909387018093D8
:101D1000860185EC90E0909393018093920184EC8E
:101D200090E0909395018093940180EC90E09093E3
:101D300097018093960181EC90E0909399018093B4
:101D4000980182EC90E090939B0180939A0186EC3D
:101D500090E090939D0180939C0110929F011092BE
:101D6000A0011092A1011092A201109229021092DA
:101D70002A0210922B0210922C0210922D02109225
:101D80002E0210922F021092300210923102109205
:101D900032021092330210923402109235021092E5
:101DA000360210923702109238021092810210927D
:101DB00080028EE191E090937F0280937E0282E028
:101DC000809382028FEF8093830283E0809384026A
:101DD00084E08093850285E08093860286E080938C
:101DE000870287E0809388021092890210928A020B
:101DF00010928B0210928C0210928D0261E08EE79D
:101E000092E00E94900560E083E10E943603E1ECDD
:101E1000F1E0E491E0939602EDEAF1E0E491F0E084
:101E2000EE0FFF1FE057FE4F85919491909398021B
:101E3000809397021092A1021092A3021092A20224
:101E4000E1EAF2E0129282E0E939F807D9F78FE48B
:101E500092E090937D0280937C0286E992E09093D9
:101E600071028093700210926F0210926B0289E0EF
:101E700080936C0281E080936D0280936E020895DE
:101E80000E94820F08F481E00895E89409C097FB4E
:101E90003EF490958095709561957F4F8F4F9F4F41
:101EA0009923A9F0F92F96E9BB279395F695879585
:101EB00077956795B795F111F8CFFAF4BB0F11F448
:101EC00060FF1BC06F5F7F4F8F4F9F4F16C08823EF
:101ED00011F096E911C0772321F09EE8872F762F25
:101EE00005C0662371F096E8862F70E060E02AF066
:101EF0009A95660F771F881FDAF7880F9695879552
:101F000097F90895990F0008550FAA0BE0E8FEEF26
:101F100016161706E807F907C0F012161306E407AD
:101F2000F50798F0621B730B840B950B39F40A26A6
:101F300061F0232B242B252B21F408950A2609F484
:101F4000A140A6958FEF811D811D08950E94B90FB4
:101F50000C942A100E941C1038F00E94231020F0CC
:101F6000952311F00C9413100C94191011240C9457
:101F70005E100E943B1070F3959FC1F3950F50E0E7
:101F8000551F629FF001729FBB27F00DB11D639F2B
:101F9000AA27F00DB11DAA1F649F6627B00DA11DD1
:101FA000661F829F2227B00DA11D621F739FB00D77
:101FB000A11D621F839FA00D611D221F749F3327E7
:101FC000A00D611D231F849F600D211D822F762F80
:101FD0006A2F11249F5750409AF0F1F088234AF05D
:101FE000EE0FFF1FBB1F661F771F881F91505040C9
:101FF000A9F79E3F510580F00C9413100C945E10CD
:102000005F3FE4F3983ED4F3869577956795B7954F
:10201000F795E7959F5FC1F7FE2B880F911D969569
:10202000879597F9089597F99F6780E870E060E0D9
:1020300008959FEF80EC089500240A941616170661
:1020400018060906089500240A94121613061406A9
:1020500005060895092E0394000C11F4882352F00C
:10206000BB0F40F4BF2B11F460FF04C06F5F7F4FC4
:102070008F4F9F4F089557FD9058440F551F59F0AB
:102080005F3F71F04795880F97FB991F61F09F3F65
:1020900079F087950895121613061406551FF2CF8E
:1020A0004695F1DF08C0161617061806991FF1CFDE
:1020B00086957105610508940895E894BB27662705
:1020C0007727CB0197F90895F999FECF92BD81BD8D
:1020D000F89A992780B50895262FF999FECF1FBA4F
:1020E00092BD81BD20BD0FB6F894FA9AF99A0FBE41
:1020F00001960895A1E21A2EAA1BBB1BFD010DC07B
:10210000AA1FBB1FEE1FFF1FA217B307E407F507A7
:1021100020F0A21BB30BE40BF50B661F771F881F83
:10212000991F1A9469F760957095809590959B0119
:10213000AC01BD01CF0108955058BB27AA270E94CA
:10214000B4100C942A100E941C1038F00E94231026
:1021500020F039F49F3F19F426F40C9419100EF472
:10216000E095E7FB0C941310E92F0E943B1058F305
:10217000BA17620773078407950720F079F4A6F56C
:102180000C945D100EF4E0950B2EBA2FA02D0B01D0
:10219000B90190010C01CA01A0011124FF27591BAC
:1021A00099F0593F50F4503E68F11A16F040A22FB2
:1021B000232F342F4427585FF3CF46953795279523
:1021C000A795F0405395C9F77EF41F16BA0B620B22
:1021D000730B840BBAF09150A1F0FF0FBB1F661F69
:1021E000771F881FC2F70EC0BA0F621F731F841FAC
:1021F00048F4879577956795B795F7959E3F08F0D2
:10220000B0CF9395880F08F09927EE0F9795879593
:1022100008950E941D110C942A100E94231058F05A
:102220000E941C1040F029F45F3F29F00C94131019
:1022300051110C945E100C9419100E943B1068F31D
:102240009923B1F3552391F3951B550BBB27AA276F
:1022500062177307840738F09F5F5F4F220F331FA9
:10226000441FAA1FA9F335D00E2E3AF0E0E832D071
:1022700091505040E695001CCAF72BD0FE2F29D074
:10228000660F771F881FBB1F261737074807AB0746
:10229000B0E809F0BB0B802DBF01FF2793585F4FBB
:1022A0003AF09E3F510578F00C9413100C945E1098
:1022B0005F3FE4F3983ED4F3869577956795B7959D
:1022C000F7959F5FC9F7880F911D9695879597F9A8
:1022D0000895E1E0660F771F881FBB1F6217730721
:1022E0008407BA0720F0621B730B840BBA0BEE1F36
:1022F00088F7E09508950E9482116894B1110C94BA
:102300005E1008950E94431088F09F5798F0B92FEF
:102310009927B751B0F0E1F0660F771F881F991F1A
:102320001AF0BA95C9F714C0B13091F00E945D104F
:10233000B1E008950C945D10672F782F8827B85F5F
:1023400039F0B93FCCF3869577956795B395D9F772
:102350003EF490958095709561957F4F8F4F9F4F7C
:1023600008950E94820F08F48FEF08950E94820F53
:10237000880B990B089597FB072E16F4009407D04D
:1023800077FD09D00E94CF1107FC05D03EF490954F
:1023900081959F4F0895709561957F4F0895AA1B71
:1023A000BB1B51E107C0AA1FBB1FA617B70710F040
:1023B000A61BB70B881F991F5A95A9F78095909572
:1023C000BC01CD010895EE0FFF1F0590F491E02DA3
:1023D000099481E090E0F8940C94EE11F894FFCF0A
:1023E000040A110A04000000C80000000000650192
:1023F00064082E010C012001AC01000000008705DB
:1024000064085E00BC007701564D4450565F317C35
:10241000315F564D4450560D0A00564D4450455FAD
:10242000003A323A007C005F564D445045005465F6
:102430006D703A0043003B006E616E00696E66008D
:042440006F7666004D
:00000001FF
