:100000000C94E2000C940A010C940A010C940A016D
:100010000C940A010C940A010C940A010C940A0134
:100020000C940A010C940A010C940A010C940A0124
:100030000C940A010C940A010C940A010C940A0114
:100040000C9447030C940A010C9493020C946D02D7
:100050000C940A010C940A010C940A010C940A01F4
:100060000C940A010C940A01005EBCE2613FDD833E
:10007000C29C7E20A3FD1F419DC3217FFCA2401E88
:100080005F01E3BD3E6082DC237D9FC1421CFEA078
:10009000E1BF5D0380DE3C62BEE0025CDF81633D68
:1000A0007C22C09E1D43A1FF4618FAA427799BC558
:1000B00084DA3866E5BB5907DB856739BAE4065848
:1000C0001947A5FB7826C49A653BD987045AB8E638
:1000D000A7F91B45C6987A24F8A6441A99C7257B28
:1000E0003A6486D85B05E7B98CD2306EEDB3510F18
:1000F0004E10F2AC2F7193CD114FADF3702ECC9208
:10010000D38D6F31B2EC0E50AFF1134DCE90722CF7
:100110006D33D18F0C52B0EE326C8ED0530DEFB1E7
:10012000F0AE4C1291CF2D73CA947628ABF51749D7
:100130000856B4EA6937D58B5709EBB536688AD4C7
:1001400095CB2977F4AA4816E9B7550B88D6346AB7
:100150002B7597C94A14F6A8742AC896154BA9F7A7
:10016000B6E80A54D7896B35000000002400270048
:100170002A0000000000250028002B0000000008D5
:10018000000201000003040700000000000000005E
:1001900000000000230026002900040404040404D5
:1001A0000404020202020202030303030303010226
:1001B00004081020408001020408102001020408F5
:1001C0001020FA0C11241FBECFEFD8E0DEBFCDBF48
:1001D00022E0AAE6B1E001C01D92A63AB207E1F71B
:1001E00011E0A0E0B1E0ECEEFFE102C005900D925D
:1001F000AA36B107D9F710E0C2EED0E004C02197CB
:10020000FE010E94E90FC13ED107C9F70E94E40731
:100210000C94F40F0C940000FC01918D828D9817C2
:1002200061F0828DDF01A80FB11D5D968C91928DDA
:100230009F5F9F73928F90E008958FEF9FEF0895D7
:10024000FC01918D828D981731F0828DE80FF11DA0
:10025000858D90E008958FEF9FEF0895FC01918DBB
:10026000228D892F90E0805C9F4F821B91098F73B4
:100270009927089588E891E00E942E0121E0892BBA
:1002800009F420E0822F0895FC01848DDF01A80F7E
:10029000B11DA35ABF4F2C91848D90E001968F73AE
:1002A0009927848FA689B7892C93A089B1898C91CD
:1002B00080648C93938D848D981306C00288F38993
:1002C000E02D80818F7D80830895EF92FF920F93C0
:1002D0001F93CF93DF93EC0181E0888F9B8D8C8DF2
:1002E000981305C0E889F989808185FD24C0F62E20
:1002F0000B8D10E00F5F1F4F0F731127E02E8C8DB9
:10030000E8120CC00FB607FCFACFE889F9898081A2
:1003100085FFF5CFCE010E944401F1CF8B8DFE0108
:10032000E80FF11DE35AFF4FF0820B8FEA89FB893A
:100330008081806207C0EE89FF896083E889F9893E
:1003400080818064808381E090E0DF91CF911F9174
:100350000F91FF90EF900895CF93DF93EC01888D7C
:100360008823C9F0EA89FB89808185FD05C0A889B9
:10037000B9898C9186FD0FC00FB607FCF5CF80813F
:1003800085FFF2CFA889B9898C9185FFEDCFCE0189
:100390000E944401E7CFDF91CF91089580E090E083
:1003A000892B29F00E943A0181110C9400000895D4
:1003B000833081F028F4813099F08230A1F00895E3
:1003C0008730A9F08830B9F08430D1F48091800072
:1003D0008F7D03C0809180008F7780938000089587
:1003E00084B58F7702C084B58F7D84BD08958091D8
:1003F000B0008F7703C08091B0008F7D8093B000F4
:1004000008953FB7F89480916F0190917001A09189
:100410007101B091720126B5A89B05C02F3F19F05C
:100420000196A11DB11D3FBFBA2FA92F982F882774
:10043000820F911DA11DB11DBC01CD0142E0660FCF
:10044000771F881F991F4A95D1F708958F929F9221
:10045000AF92BF92CF92DF92EF92FF926B017C013D
:100460000E9401024B015C01C114D104E104F104BA
:10047000F1F00E940102DC01CB0188199909AA0957
:10048000BB09883E9340A105B10570F321E0C21A73
:10049000D108E108F10888EE880E83E0981EA11CBF
:1004A000B11CC114D104E104F10419F7DDCFFF90B0
:1004B000EF90DF90CF90BF90AF909F908F90089576
:1004C0002FB7F89460916B0170916C0180916D0170
:1004D00090916E012FBF089508951F920F920FB64D
:1004E0000F9211242F933F934F935F936F937F93BA
:1004F0008F939F93AF93BF93EF93FF9388E891E01F
:100500000E944401FF91EF91BF91AF919F918F9114
:100510007F916F915F914F913F912F910F900FBEFF
:100520000F901F9018951F920F920FB60F921124E3
:100530002F938F939F93EF93FF93E0919801F09106
:1005400099018081E0919E01F0919F0182FD12C08E
:1005500090818091A1018F5F8F732091A2018217FA
:1005600051F0E091A101F0E0E857FE4F958F8093A4
:10057000A10101C08081FF91EF919F918F912F91F7
:100580000F900FBE0F901F9018951F93CF93DF937E
:10059000282F30E0F901E458FE4F8491F901E2552B
:1005A000FE4FD491F901E656FE4FC491CC23C9F019
:1005B000162F81110E94D801EC2FF0E0EE0FFF1FE3
:1005C000EE58FE4FA591B4918FB7F894111105C064
:1005D0009C91ED2FE095E92302C0EC91ED2BEC937B
:1005E0008FBFDF91CF911F910895CF93DF93EC01DF
:1005F00060E08E810E94C50261E08E810E94C5028A
:1006000060E08E810E94C5028BE891E00197F1F7CE
:10061000DF91CF910895CF93DF9390E0FC01E255F5
:10062000FE4F2491FC01E656FE4F8491882361F130
:1006300090E0880F991FFC01E859FE4FC591D491B5
:10064000FC01EE58FE4FA591B491611109C09FB70E
:10065000F8948881209582238883EC912E230BC007
:10066000623061F49FB7F8943881822F809583239C
:100670008883EC912E2B2C939FBF06C08FB7F894E4
:10068000E8812E2B28838FBFDF91CF9108951F9291
:100690000F920FB60F9211242F933F938F939F9336
:1006A000AF93BF9380916B0190916C01A0916D010C
:1006B000B0916E0130916A0123E0230F2D3720F4B1
:1006C0000196A11DB11D05C026E8230F0296A11DAC
:1006D000B11D20936A0180936B0190936C01A093EC
:1006E0006D01B0936E0180916F0190917001A091A6
:1006F0007101B09172010196A11DB11D80936F012E
:1007000090937001A0937101B0937201BF91AF916A
:100710009F918F913F912F910F900FBE0F901F903F
:100720001895DC01E0E0615038F08D91E827F0E0A9
:10073000E859FF4FE491F7CF8E2F0895FC01908187
:100740000180F281E02DF8948181892B81832281BF
:10075000892F809528232283A7E0B0E01197F1F735
:10076000218182238183A3E2B0E01197F1F7808198
:100770007894EFECF0E03197F1F7982381E009F4F9
:1007800080E00895FC0190810180F281E02D892FA5
:10079000809560FF12C0F894228182238283818138
:1007A000892B8183A3E2B0E01197F1F78281982B26
:1007B0009283789487ED90E011C0F894228182238F
:1007C00082838181892B8183AFEFB0E01197F1F7AC
:1007D0008281982B928378948FE090E00197F1F7D3
:1007E0000895CF92DF92EF92FF920F931F93CF93D2
:1007F000DF931F92CDB7DEB76C01E62E08E010E064
:10080000FF24F39461E08F2D8E2109F460E0C6018E
:1008100049830E94C203FF0C01501109498101154F
:10082000110581F7411115C0F894D6011196ED918B
:10083000FC91129791818C918095892381831196E7
:10084000ED91FC91129792818C91809589238283FE
:1008500078940F90DF91CF911F910F91FF90EF90BF
:10086000DF90CF900895CF92DF92EF92FF920F9397
:100870001F93CF93DF931F92CDB7DEB78C01F62E77
:1008800040E065E579830E94F103CF2C7981D72E72
:10089000760188E0E80EF11CF60161916F0140E0FD
:1008A000C8010E94F103CE14DF04B1F70F90DF916D
:1008B000CF911F910F91FF90EF90DF90CF9008950F
:1008C000FC0190810180F281E02DF8948181292F33
:1008D00020958223818378948DE743E050E0815016
:1008E00021F1DA011197F1F730813923C1F3F8943E
:1008F0008281822382838181892B81837894ABE7F3
:10090000B7E01197F1F7F894818128232183A3E1BF
:10091000B1E01197F1F78081982381E009F080E040
:100920007894E3E6F6E03197F1F70895CF92DF92FD
:10093000EF92FF920F931F93CF93DF937C016C0193
:1009400087E0C80ED11CC0E0D0E0062F10E0B8014F
:100950000C2E02C0759567950A94E2F76170F60156
:1009600081916F010E94C5022196C430D10579F7AB
:10097000C701DF91CF911F910F91FF90EF90DF9012
:10098000CF900C94F502CF92DF92EF92FF920F93EB
:100990001F93CF93DF93EC01F62E642F8C810E947E
:1009A000C5028D818F3F19F060E00E94C5028F85DE
:1009B0000F2D10E084FF25C06E0187E0C80ED11C0A
:1009C000E12CF12CB8010E2C02C0759567950A94A4
:1009D000E2F76170F60181916F010E94C502FFEF9D
:1009E000EF1AFF0A88E0E816F10461F7CE01DF9103
:1009F000CF911F910F91FF90EF90DF90CF900C94CB
:100A0000F502B80184E0759567958A95E1F7CE0106
:100A10000E9496046F2DCE01DF91CF911F910F910F
:100A2000FF90EF90DF90CF900C94960441E00E94ED
:100A3000C30481E090E0089540E00C94C304CF9299
:100A4000DF92EF92FF920F931F93CF93DF936C018E
:100A50007A018B01C0E0D0E0CE15DF0589F0D80126
:100A60006D918D01D601ED91FC910190F081E02D09
:100A7000C6010995892B11F47E0102C02196ECCFA5
:100A8000C701DF91CF911F910F91FF90EF90DF9001
:100A9000CF9008950E94EF0FEF92FF920F931F9354
:100AA000CF93DF93EC01623018F08F8588608F87D9
:100AB0006B8B1C8A80E48D8B80E18E8B80E58F8B25
:100AC00061E08C810E940B038D818F3F19F061E002
:100AD0000E940B0361E08E810E940B037E0187E080
:100AE000E80EF11C00E010E08F8584FD03C084E077
:100AF00090E002C088E090E0081719074CF461E02C
:100B0000F70181917F010E940B030F5F1F4FECCF14
:100B10008BE39DE00197F1F760E08C810E94C502B4
:100B200060E08E810E94C5028D818F3F19F060E0E8
:100B30000E94C5026F8564FD1DC063E0CE010E9466
:100B400096040BE416E4C8010197F1F763E0CE01C7
:100B50000E949604C8010197F1F763E0CE010E945C
:100B6000960483E592E00197F1F762E0CE010E94DE
:100B7000960416C06062CE010E941C058BE496E4C8
:100B80000197F1F76F856062CE010E941C0583E535
:100B900092E00197F1F76F856062CE010E941C051B
:100BA0006F856062CE010E941C0584E0888B6CE03A
:100BB000CE010E941C0561E0CE010E941C058BE362
:100BC0009FE10197F1F782E0898B66E0CE01DF912A
:100BD000CF911F910F91FF90EF900C941C05E8E8C6
:100BE000F1E0A089B18982E08C93A485B5851C923F
:100BF000A685B7858FEC8C93108EA489B58986E085
:100C00008C93A289B3898C9180618C93A289B389DA
:100C10008C9188608C93A289B3898C9180688C9325
:100C20000288F389E02D80818F7D80830895E09193
:100C30008002F09181020190F081E02D682F80E820
:100C400092E00994AF92BF92CF92DF92EF92FF921F
:100C50000F931F93CF93DF938B01BC01809172029E
:100C6000909173020E94330440E06EEB8091720217
:100C7000909173020E94F103E801680189E0C80EB7
:100C8000D11CA0907202B090730288E0E82EF12C83
:100C900001E010E0C5010E949E038111102B000F9E
:100CA00081E0E81AF108B1F71993CC15DD0549F791
:100CB00080917202909173020E94600491E08130F1
:100CC00009F090E0892FDF91CF911F910F91FF9054
:100CD000EF90DF90CF90BF90AF900895AF92BF920A
:100CE000CF92DF92EF92FF920F931F93CF93DF93F8
:100CF0001F92CDB7DEB75C01D62EE72EFC018585AD
:100D0000811105C0C5010E946004811106C0F50172
:100D100013861586148680E065C040E060EFC5014B
:100D20000E94F10301E0F12CC12C11E0C5010E94E9
:100D30009E03682FC50169830E949E03698161300B
:100D400019F48130B9F433C04F2D50E068131BC043
:100D5000F5018385181730F4E40FF51F8381802394
:100D600049F402C0181731F060E0193058F4F50169
:100D7000148708C0F501EF0DF11D8381802B83835B
:100D800061E009C0C12EF501E40FF51F9381802FAA
:100D9000809589238383C5010E94C2031F5F000FD2
:100DA00011F4F39401E0F7E0FF1508F0BFCF113420
:100DB00008F4ADCFF501C386C11002C081E085877C
:100DC000F5018381882309F4A2CFD5011396ED2D77
:100DD000FE2D9501255F3F4F8D918193A217B3079B
:100DE000D9F781E00F90DF91CF911F910F91FF9084
:100DF000EF90DF90CF90BF90AF9008950F931F9327
:100E0000CF93DF93CDB7DEB729970FB6F894DEBF47
:100E10000FBECDBFFC012081203161F18C0180919A
:100E20007202909173020E946004882309F1BE014E
:100E30006F5F7F4FC8010E9422068823C9F068E0D7
:100E4000CE0101960E9491039985891311C08D816D
:100E50008F3361F020F48F3159F489E00CC08F3565
:100E600019F08F3739F004C08BE005C08AE003C069
:100E700080E001C08CE029960FB6F894DEBF0FBE6B
:100E8000CDBFDF91CF911F910F910895611571052D
:100E900079F0FB0101900020E9F73197AF01461B83
:100EA000570BDC01ED91FC910280F381E02D099458
:100EB00080E090E008954F925F926F927F92EF9260
:100EC000FF920F931F93CF93DF93CDB7DEB7A19718
:100ED0000FB6F894DEBF0FBECDBF7C01FA01CB0187
:100EE00019A2223008F42AE08E010F5D1F4F422E16
:100EF000512C612C712CBF01A30192010E94F90EAB
:100F0000F901CA01015011096A3014F4605D01C091
:100F1000695CD8016C93232B242B252B61F7B80136
:100F2000C7010E944607A1960FB6F894DEBF0FBE18
:100F3000CDBFDF91CF911F910F91FF90EF907F90E8
:100F40006F905F904F9008950F931F93CF93DF930F
:100F500000D000D0CDB7DEB7AC01990F660B770B90
:100F600077FF23C08DE249835A836B837C830E9481
:100F700017068C0149815A816B817C81709560953F
:100F8000509541955F4F6F4F7F4F2AE080E892E088
:100F90000E945B07800F911F0F900F900F900F9092
:100FA000DF91CF911F910F9108952AE080E892E0A0
:100FB0000F900F900F900F90DF91CF911F910F9195
:100FC0000C945B070C944607CF93DF93CDB7DEB745
:100FD00061970FB6F894DEBF0FBECDBF789484B58D
:100FE000826084BD84B5816084BD85B5826085BD25
:100FF00085B5816085BD80916E00816080936E00B3
:1010000010928100809181008260809381008091A4
:101010008100816080938100809180008160809355
:1010200080008091B10084608093B1008091B00015
:1010300081608093B00080917A00846080937A0010
:1010400080917A00826080937A0080917A0081603A
:1010500080937A0080917A00806880937A00109261
:10106000C1001092690210926A0210926B021092F3
:101070006C021092270210922802109229021092FC
:101080002A0260ED77E080E090E00E94260288E886
:1010900091E090936802809367020E94EF050E949E
:1010A0006002609327027093280280932902909334
:1010B0002A0268E271E080916702909168020E94C2
:1010C000E2076AE070E080E090E00E94260281E0A2
:1010D00080933B020E94EF05E0917202F09173024F
:1010E000138615861486DF011B9633961E92AE1763
:1010F000BF07E1F71092710211E0BE016F5F7F4FF1
:1011000080917202909173020E946E06882309F406
:101110004AC067E0CE0101960E9491039885891329
:10112000ECCF80916D02811127C080917202909165
:1011300073020E946004BE016F5F7F4F8091720254
:10114000909173020E94330440E064EB809172023C
:10115000909173020E94F103809172029091730248
:101160000E949E03082F80917202909173020E9448
:101170006004002309F4C8C300916E02CE010196F9
:101180000E94FE06801718F480916E0204C0CE0102
:1011900001960E94FE0680936E02809171028F5F1D
:1011A00080937102AACF60E480E892E00E941C055F
:1011B00000E011E0D8016D918D0180E892E00E947D
:1011C0001605B1E008301B07A9F761E089E00E942D
:1011D0000B0361E08CE00E940B0362E088E00E9458
:1011E0000B030E94600260937A0170937B018093ED
:1011F0007C0190937D0162E080E892E00E944C05C2
:1012000000E010E0602FC8010E94EB0E0F5F1F4F3F
:101210000115E1E01E07B1F715E0212E312C08EC95
:10122000802E912C8CE3A82EB12C0E946002672B9B
:10123000682B692B41F40E946002623071058105C0
:10124000910508F40EC10E946002609384017093BE
:101250008501809386019093870100918001109110
:10126000810120918201309183016017710782070B
:10127000930740F460938001709381018093820111
:10128000909383010091800110918101209182014E
:10129000309183016B017C01C01AD10AE20AF30A82
:1012A000970186010A3F11052105310508F4D9C0CF
:1012B00060938001709381018093820190938301F8
:1012C00084EF91E0A0E0B0E0809333029093340289
:1012D000A0933502B0933602109237021092380272
:1012E0001092390210923A0280912B0290912C02B6
:1012F000A0912D02B0912E0280932F029093300284
:10130000A0933102B09332020E94600260932B02DC
:1013100070932C0280932D0290932E020E94600203
:1013200060932702709328028093290290932A02E7
:101330000E9460026B017C016AE371E080916702A8
:10134000909168020E94E2072AE041E050E060E0EC
:1013500070E080916702909168020E945B0761E4EF
:1013600071E080916702909168020E94E2072AE092
:10137000B701A60180916702909168020E945B0705
:1013800063E471E080916702909168020E94E20735
:1013900080912B0290912C02A0912D02B0912E02EF
:1013A000B701A601481B590B6A0B7B0B2AE0809101
:1013B0006702909168020E945B0763E471E080918C
:1013C0006702909168020E94E20740912B025091BF
:1013D0002C0260912D0270912E0280912F0290912B
:1013E0003002A0913102B0913202481B590B6A0BB6
:1013F0007B0B2AE080916702909168020E945B0754
:1014000065E471E080916702909168020E94E207B2
:101410000E946002AB01BC012AE0809167029091BA
:1014200068020E945B07009167021091680267E4FE
:1014300071E0C8010E94460767E371E0C8010E949D
:10144000460762E070E080E090E00E9426020E9481
:10145000600260932B0270932C0280932D02909374
:101460002E0280917202909173020E94600440E00B
:101470006CEC80917202909173020E94F103409192
:101480006D0264E480917202909173020E94F103F4
:1014900080916F028823D9F1E0916E02E950E33028
:1014A00040F4F0E0EE0FFF1FE65FFE4F0081118178
:1014B00002C00EEE12E080917002882311F180913B
:1014C0006D0281111EC00E9460026B017C01280127
:1014D000110F6608770880917202909173020E9442
:1014E0009E038130A1F00E946002DC01CB018419CF
:1014F0009509A609B7098C159D05AE05BF0558F3DA
:1015000006C0B801110F880B990B0E9426020091AA
:1015100008011091090161E08BE00E940B030115A5
:10152000110511F460E004C00F3F110529F461E0DA
:101530008BE00E94C50243C0E7E8F1E0849183306C
:10154000F9F048F48130B9F08230A1F584B58062B9
:1015500084BD08BD34C08730E9F0883019F184308B
:1015600049F58091800080628093800010938B0009
:1015700000938A0024C084B5806884BD07BD1FC065
:101580008091800080688093800010938900009390
:10159000880015C08091B00080688093B0000093EF
:1015A000B3000DC08091B00080628093B0000093C2
:1015B000B40005C0003811050CF0B9CFB3CFE4E892
:1015C000F1E08491E6EBF1E01491E2EAF1E00491BC
:1015D000002309F49CC181110E94D801E02FF0E0A2
:1015E000EE0FFF1FE057FE4FA591B4918C91182389
:1015F00009F48DC160E089E00E94C502E1E08091BC
:1016000093028111E0E0E195F0E0E058FD4F64893C
:10161000606880E892E00E941C056EE471E080E85A
:1016200092E00E94E207E0917202F0917302138649
:1016300015861486DF011B96CF0103961E92A8170C
:10164000B907E1F7BE01665F7F4FCF010E946E06CA
:10165000882349F067E0CE010A960E949103998998
:10166000891709F46BC1C12CD12C8EEFE82E82ECC6
:10167000F82EA7019601C701B6010E94BC0F88236E
:1016800019F064E571E01AC026013701E89477F893
:101690002FEF3FEF4FE75FE7C301B2010E94BC0F9E
:1016A000811111C02FEF3FEF4FE75FE7C301B20198
:1016B0000E94C70D18163CF468E571E080E892E0DE
:1016C0000E94460779C02FEF3FEF4FE75FE4C70165
:1016D000B6010E94B70F18161CF46CE571E0EECF4E
:1016E0002FEF3FEF4FE75FECC701B6010E94C70D38
:1016F00087FDF3CF20E030E0A901C701B6010E94C9
:10170000C70D87FF07C08DE20E941706F7FAF09415
:10171000F7F8F0942AE037ED43EA5BE3C701B6013E
:101720000E941C0F2B013C010E94880F6B017C0161
:101730000E94CC0D9B01AC01C301B2010E941B0FA2
:101740002B013C012AE0B701A60180E892E00E944B
:101750005B078EE20E94170620E030E040E251E491
:10176000C301B2010E942D0E2B013C010E94880F83
:101770006B01E12CF12C2AE0B701A60180E892E090
:101780000E945B07C701B6010E94CC0D9B01AC0112
:10179000C301B2010E941B0F20E030E040E251E49F
:1017A0000E942D0E0E94880FAB0160E070E02AE0DD
:1017B00080E892E00E945B0780E00E94170660E6E6
:1017C00071E080E892E00E94E207E0919302E2304B
:1017D00010F4E15001C0E1E0F0E0E058FD4F648911
:1017E000606880E892E00E941C050E9460020091FF
:1017F0007A0110917B0120917C0130917D01601B69
:10180000710B820B930B28EE33E040E050E00E9416
:10181000F90E3093790120937801C901B5010E9436
:10182000C10FCB017093770160937601B5010E94DF
:10183000C10F709375016093740162E671E080E8F6
:1018400092E00E94E20780917401909175018A30C4
:10185000910544F480E090E00E94A4078091740117
:10186000909175010E94A40763E471E080E892E022
:101870000E94E2078091760190917701B5010E9464
:10188000C10F8A3091056CF468E671E080E892E05F
:101890000E94E2078091760190917701B5010E9444
:1018A000C10F0E94A40763E471E080E892E00E9407
:1018B000E2078091780190917901B5010E94C10FF2
:1018C0008A3091056CF468E671E080E892E00E944D
:1018D000E2078091780190917901B5010E94C10FD2
:1018E0000E94A40780917E0190917F0101969093C0
:1018F0007F0180937E0164EF71E080E090E00E94C0
:1019000026020E94CE0191CC10936D0235CC61E08D
:1019100089E00E94C50280917301811108C081E0B5
:1019200080937301909209018092080167CE3092F2
:101930000901209208011092730160CE8091720219
:10194000909173020E9460048823F1F1BE016F5FE1
:101950007F4FCE010A960E9422068823A9F168E0F3
:10196000CE0101960E949103998589132DC069814A
:10197000F8E06F9FB00111248A81282F30E0322FC8
:101980002227330F330F330F262B372B8A858031D5
:10199000C9F4688570E08F816B01C81AD108C6014F
:1019A0009695982F8827979587950E94C10F60512B
:1019B0007109207F53E0220F331F5A95E1F7620F20
:1019C000731F04C0B90102C060E874EE613844EED0
:1019D00074070CF448CE072E000C880B990B0E945C
:1019E000CE0D20E030E040E05CE30E942D0E6B0164
:1019F0007C013FCE10928B0110928A0188EE93E019
:101A0000A0E0B0E080938C0190938D01A0938E01B3
:101A1000B0938F0184E191E09093890180938801D4
:101A200085EC90E0909395018093940184EC90E094
:101A3000909397018093960180EC90E090939901A8
:101A40008093980181EC90E090939B0180939A01A0
:101A500082EC90E090939D0180939C0186EC90E055
:101A600090939F0180939E011092A1011092A20178
:101A70001092A3011092A40110922B0210922C023A
:101A800010922D0210922E0210922F02109230020C
:101A900010923102109232021092330210923402EC
:101AA00010923502109236021092370210923802CC
:101AB0001092390210923A0210928302109282021E
:101AC00084E291E0909381028093800282E080938F
:101AD00084028FEF8093850283E08093860284E006
:101AE0008093870285E08093880286E08093890254
:101AF00087E080938A0210928B0210928C021092DF
:101B00008D0210928E0210928F0261E080E892E0C6
:101B10000E944C0560E08EE00E940B03ECEBF1E0CC
:101B2000E491E0939802E8EAF1E0E491F0E0EE0F4E
:101B3000FF1FE057FE4F8591949190939A028093F6
:101B400099021092A3021092A5021092A402E3EA55
:101B5000F2E0129282E0EB39F807D9F78CE692E0D6
:101B600090937F0280937E0288E992E090937302C3
:101B7000809372021092710210926D0289E080933C
:101B80006E0281E080936F028093700208950E943C
:101B9000090E08F481E00895E89409C097FB3EF42B
:101BA00090958095709561957F4F8F4F9F4F9923AA
:101BB000A9F0F92F96E9BB279395F6958795779528
:101BC0006795B795F111F8CFFAF4BB0F11F460FFE8
:101BD0001BC06F5F7F4F8F4F9F4F16C0882311F040
:101BE00096E911C0772321F09EE8872F762F05C054
:101BF000662371F096E8862F70E060E02AF09A95EF
:101C0000660F771F881FDAF7880F9695879597F9E3
:101C10000895990F0008550FAA0BE0E8FEEF16167D
:101C20001706E807F907C0F012161306E407F507D0
:101C300098F0621B730B840B950B39F40A2661F044
:101C4000232B242B252B21F408950A2609F4A140E7
:101C5000A6958FEF811D811D08950E94400E0C9462
:101C6000B10E0E94A30E38F00E94AA0E20F0952318
:101C700011F00C949A0E0C94A00E11240C94E50E05
:101C80000E94C20E70F3959FC1F3950F50E0551F4F
:101C9000629FF001729FBB27F00DB11D639FAA27C1
:101CA000F00DB11DAA1F649F6627B00DA11D661F10
:101CB000829F2227B00DA11D621F739FB00DA11D31
:101CC000621F839FA00D611D221F749F3327A00DEB
:101CD000611D231F849F600D211D822F762F6A2F87
:101CE00011249F5750409AF0F1F088234AF0EE0FEC
:101CF000FF1FBB1F661F771F881F91505040A9F719
:101D00009E3F510580F00C949A0E0C94E50E5F3FB7
:101D1000E4F3983ED4F3869577956795B795F79554
:101D2000E7959F5FC1F7FE2B880F911D96958795CC
:101D300097F9089597F99F6780E870E060E008954B
:101D40009FEF80EC089500240A94161617061806D3
:101D50000906089500240A941216130614060506AF
:101D60000895092E0394000C11F4882352F0BB0F40
:101D700040F4BF2B11F460FF04C06F5F7F4F8F4FA3
:101D80009F4F089557FD9058440F551F59F05F3FDE
:101D900071F04795880F97FB991F61F09F3F79F08D
:101DA00087950895121613061406551FF2CF46950F
:101DB000F1DF08C0161617061806991FF1CF869591
:101DC0007105610508940895E894BB276627772775
:101DD000CB0197F90895262FF999FECF1FBA92BD2E
:101DE00081BD20BD0FB6F894FA9AF99A0FBE0196FC
:101DF0000895A1E21A2EAA1BBB1BFD010DC0AA1F4C
:101E0000BB1FEE1FFF1FA217B307E407F50720F063
:101E1000A21BB30BE40BF50B661F771F881F991FDE
:101E20001A9469F760957095809590959B01AC0127
:101E3000BD01CF0108955058BB27AA270E94330F38
:101E40000C94B10E0E94A30E38F00E94AA0E20F04E
:101E500039F49F3F19F426F40C94A00E0EF4E0958B
:101E6000E7FB0C949A0EE92F0E94C20E58F3BA17A2
:101E7000620773078407950720F079F4A6F50C94A0
:101E8000E40E0EF4E0950B2EBA2FA02D0B01B90134
:101E900090010C01CA01A0011124FF27591B99F0E0
:101EA000593F50F4503E68F11A16F040A22F232FEC
:101EB000342F4427585FF3CF469537952795A7953C
:101EC000F0405395C9F77EF41F16BA0B620B730BE3
:101ED000840BBAF09150A1F0FF0FBB1F661F771F54
:101EE000881FC2F70EC0BA0F621F731F841F48F409
:101EF000879577956795B795F7959E3F08F0B0CF92
:101F00009395880F08F09927EE0F97958795089578
:101F10000E94CA0E88F09F5798F0B92F9927B751A1
:101F2000B0F0E1F0660F771F881F991F1AF0BA957D
:101F3000C9F714C0B13091F00E94E40EB1E00895E9
:101F40000C94E40E672F782F8827B85F39F0B93FDB
:101F5000CCF3869577956795B395D9F73EF4909530
:101F60008095709561957F4F8F4F9F4F08950E9488
:101F7000090E08F48FEF08950E94090E880B990B43
:101F8000089597FB072E16F4009407D077FD09D02B
:101F90000E94D50F07FC05D03EF4909581959F4F88
:101FA0000895709561957F4F0895AA1BBB1B51E161
:101FB00007C0AA1FBB1FA617B70710F0A61BB70BB9
:101FC000881F991F5A95A9F780959095BC01CD015E
:101FD0000895EE0FFF1F0590F491E02D099481E024
:0C1FE00090E0F8940C94F40FF894FFCFFC
:101FEC00040A110A0400000014005E00BC00770112
:101FFC000000000065011F052E010C012001AC0141
:10200C000000000016051F05564D4450565F317CEC
:10201C00315F564D4450560D0A00564D4450455FA5
:10202C00003A323A007C005F564D445045005465EE
:10203C006D703A006E616E00696E66006F766600B8
:0A204C00430054696D653A0030004E
:107E0000112484B714BE81FFF0D085E080938100F7
:107E100082E08093C00088E18093C10086E0809377
:107E2000C20080E18093C4008EE0C9D0259A86E02C
:107E300020E33CEF91E0309385002093840096BBD3
:107E4000B09BFECF1D9AA8958150A9F7CC24DD24C4
:107E500088248394B5E0AB2EA1E19A2EF3E0BF2EE7
:107E6000A2D0813461F49FD0082FAFD0023811F036
:107E7000013811F484E001C083E08DD089C08234E0
:107E800011F484E103C0853419F485E0A6D080C0E4
:107E9000853579F488D0E82EFF2485D0082F10E0AE
:107EA000102F00270E291F29000F111F8ED06801E7
:107EB0006FC0863521F484E090D080E0DECF843638
:107EC00009F040C070D06FD0082F6DD080E0C81688
:107ED00080E7D80618F4F601B7BEE895C0E0D1E017
:107EE00062D089930C17E1F7F0E0CF16F0E7DF06D8
:107EF00018F0F601B7BEE89568D007B600FCFDCFD4
:107F0000A601A0E0B1E02C9130E011968C91119780
:107F100090E0982F8827822B932B1296FA010C0160
:107F200087BEE89511244E5F5F4FF1E0A038BF0790
:107F300051F7F601A7BEE89507B600FCFDCF97BE46
:107F4000E89526C08437B1F42ED02DD0F82E2BD052
:107F50003CD0F601EF2C8F010F5F1F4F84911BD097
:107F6000EA94F801C1F70894C11CD11CFA94CF0C13
:107F7000D11C0EC0853739F428D08EE10CD085E9AC
:107F80000AD08FE07ACF813511F488E018D01DD067
:107F900080E101D065CF982F8091C00085FFFCCF94
:107FA0009093C60008958091C00087FFFCCF809118
:107FB000C00084FD01C0A8958091C6000895E0E648
:107FC000F0E098E1908380830895EDDF803219F02E
:107FD00088E0F5DFFFCF84E1DECF1F93182FE3DFCA
:107FE0001150E9F7F2DF1F91089580E0E8DFEE27F6
:047FF000FF270994CA
:027FFE00040479
:0400000300007E007B
:00000001FF