:100000000C94E2000C940A010C940A010C940A016D
:100010000C940A010C940A010C940A010C940A0134
:100020000C940A010C940A010C940A010C940A0124
:100030000C940A010C940A010C940A010C940A0114
:100040000C94A6030C940A010C94AC020C94860246
:100050000C940A010C940A010C940A010C940A01F4
:100060000C940A010C940A01005EBCE2613FDD833E
:10007000C29C7E20A3FD1F419DC3217FFCA2401E88
:100080005F01E3BD3E6082DC237D9FC1421CFEA078
:10009000E1BF5D0380DE3C62BEE0025CDF81633D68
:1000A0007C22C09E1D43A1FF4618FAA427799BC558
:1000B00084DA3866E5BB5907DB856739BAE4065848
:1000C0001947A5FB7826C49A653BD987045AB8E638
:1000D000A7F91B45C6987A24F8A6441A99C7257B28
:1000E0003A6486D85B05E7B98CD2306EEDB3510F18
:1000F0004E10F2AC2F7193CD114FADF3702ECC9208
:10010000D38D6F31B2EC0E50AFF1134DCE90722CF7
:100110006D33D18F0C52B0EE326C8ED0530DEFB1E7
:10012000F0AE4C1291CF2D73CA947628ABF51749D7
:100130000856B4EA6937D58B5709EBB536688AD4C7
:1001400095CB2977F4AA4816E9B7550B88D6346AB7
:100150002B7597C94A14F6A8742AC896154BA9F7A7
:10016000B6E80A54D7896B35000000002400270048
:100170002A0000000000250028002B0000000008D5
:10018000000201000003040700000000000000005E
:1001900000000000230026002900040404040404D5
:1001A0000404020202020202030303030303010226
:1001B00004081020408001020408102001020408F5
:1001C0001020E10E11241FBECFEFD8E0DEBFCDBF5F
:1001D00022E0A6E6B1E001C01D92A53AB207E1F720
:1001E00011E0A0E0B1E0E8EDF3E202C005900D926D
:1001F000A636B107D9F710E0C2EED0E004C02197CF
:10020000FE010E94DF11C13ED107C9F70E947609A5
:100210000C94EA110C940000FC01918D828D9817CA
:1002200061F0828DDF01A80FB11D5D968C91928DDA
:100230009F5F9F73928F90E008958FEF9FEF0895D7
:10024000FC01918D828D981731F0828DE80FF11DA0
:10025000858D90E008958FEF9FEF0895FC01918DBB
:10026000228D892F90E0805C9F4F821B91098F73B4
:100270009927089587E891E00E942E0121E0892BBB
:1002800009F420E0822F0895FC01848DDF01A80F7E
:10029000B11DA35ABF4F2C91848D90E001968F73AE
:1002A0009927848FA689B7892C93A089B1898C91CD
:1002B00080648C93938D848D981306C00288F38993
:1002C000E02D80818F7D80830895EF92FF920F93C0
:1002D0001F93CF93DF93EC0181E0888F9B8D8C8DF2
:1002E000981305C0E889F989808185FD24C0F62E20
:1002F0000B8D10E00F5F1F4F0F731127E02E8C8DB9
:10030000E8120CC00FB607FCFACFE889F9898081A2
:1003100085FFF5CFCE010E944401F1CF8B8DFE0108
:10032000E80FF11DE35AFF4FF0820B8FEA89FB893A
:100330008081806207C0EE89FF896083E889F9893E
:1003400080818064808381E090E0DF91CF911F9174
:100350000F91FF90EF900895CF93DF93EC01888D7C
:100360008823C9F0EA89FB89808185FD05C0A889B9
:10037000B9898C9186FD0FC00FB607FCF5CF80813F
:1003800085FFF2CFA889B9898C9185FFEDCFCE0189
:100390000E944401E7CFDF91CF91089580E090E083
:1003A000892B29F00E943A0181110C9400000895D4
:1003B000833081F028F4813099F08230A1F00895E3
:1003C0008730A9F08830B9F08430D1F48091800072
:1003D0008F7D03C0809180008F7780938000089587
:1003E00084B58F7702C084B58F7D84BD08958091D8
:1003F000B0008F7703C08091B0008F7D8093B000F4
:1004000008953FB7F89480916B0190916C01A09191
:100410006D01B0916E0126B5A89B05C02F3F19F064
:100420000196A11DB11D3FBFBA2FA92F982F882774
:10043000820F911DA11DB11DBC01CD0142E0660FCF
:10044000771F881F991F4A95D1F708950895EF9255
:10045000FF920F931F93CF93DF931F92CDB7DEB719
:100460007C01FC0100811181C80169830E94D210C6
:100470006981681719F0C8010E94DA10C7010F904E
:10048000DF91CF911F910F91FF90EF900895EF9220
:10049000FF920F931F93CF93DF9300D0CDB7DEB7BA
:1004A0008C017B01FB0160819A838983CE010196D7
:1004B0000E942702F70161810F5F1F4F1A83098392
:1004C000CE0101960E942702C7010F900F90DF9185
:1004D000CF911F910F91FF90EF9008950F931F936D
:1004E000CF93DF9300D0CDB7DEB78B01FB016081E6
:1004F0009A838983CE0101960E942702C8010F903A
:100500000F90DF91CF911F910F9108951F920F923D
:100510000FB60F9211242F933F934F935F936F93D6
:100520007F938F939F93AF93BF93EF93FF9387E84E
:1005300091E00E944401FF91EF91BF91AF919F9193
:100540008F917F916F915F914F913F912F910F907C
:100550000FBE0F901F9018951F920F920FB60F921B
:1005600011242F938F939F93EF93FF93E091970123
:10057000F09198018081E0919D01F0919E0182FDB2
:1005800012C090818091A0018F5F8F732091A10193
:10059000821751F0E091A001F0E0E957FE4F958FEE
:1005A0008093A00101C08081FF91EF919F918F9175
:1005B0002F910F900FBE0F901F9018951F93CF9300
:1005C000DF93282F30E0F901E458FE4F8491F901C0
:1005D000E255FE4FD491F901E656FE4FC491CC236B
:1005E000C9F0162F81110E94D801EC2FF0E0EE0F18
:1005F000FF1FEE58FE4FA591B4918FB7F8941111DB
:1006000005C09C91ED2FE095E92302C0EC91ED2B04
:10061000EC938FBFDF91CF911F910895CF93DF931C
:10062000EC0160E08E810E94DE0261E08E810E941A
:10063000DE0260E08E810E94DE028BE891E001978D
:10064000F1F7DF91CF910895CF93DF9390E0FC0114
:10065000E255FE4F2491FC01E656FE4F849188231B
:1006600061F190E0880F991FFC01E859FE4FC59198
:10067000D491FC01EE58FE4FA591B491611109C0CF
:100680009FB7F8948881209582238883EC912E234C
:100690000BC0623061F49FB7F8943881822F809547
:1006A00083238883EC912E2B2C939FBF06C08FB79A
:1006B000F894E8812E2B28838FBFDF91CF91089586
:1006C0008F929F92AF92BF92CF92DF92EF92FF9262
:1006D0006B017C010E9401024B015C01C114D10439
:1006E000E104F104F1F00E940102DC01CB01881960
:1006F0009909AA09BB09883E9340A105B10570F389
:1007000021E0C21AD108E108F10888EE880E83E0E2
:10071000981EA11CB11CC114D104E104F10419F705
:10072000DDCFFF90EF90DF90CF90BF90AF909F9084
:100730008F9008952FB7F8946091670170916801C8
:100740008091690190916A012FBF08951F920F92C5
:100750000FB60F9211242F933F938F939F93AF93D4
:10076000BF938091670190916801A0916901B09158
:100770006A013091660123E0230F2D3720F40196A2
:10078000A11DB11D05C026E8230F0296A11DB11DB4
:10079000209366018093670190936801A09369019B
:1007A000B0936A0180916B0190916C01A0916D01F1
:1007B000B0916E010196A11DB11D80936B019093C4
:1007C0006C01A0936D01B0936E01BF91AF919F91A9
:1007D0008F913F912F910F900FBE0F901F90189502
:1007E000DC01E0E0615038F08D91E827F0E0E85955
:1007F000FF4FE491F7CF8E2F0895FC019081018087
:10080000F281E02DF8948181892B81832281892FC7
:10081000809528232283A7E0B0E01197F1F721818A
:1008200082238183A3E2B0E01197F1F7808178946D
:10083000EFECF0E03197F1F7982381E009F480E0E4
:100840000895FC0190810180F281E02D892F80952F
:1008500060FF12C0F8942281822382838181892BD8
:100860008183A3E2B0E01197F1F78281982B928304
:10087000789487ED90E011C0F894228182238283DE
:100880008181892B8183AFEFB0E01197F1F78281ED
:10089000982B928378948FE090E00197F1F7089578
:1008A000CF92DF92EF92FF920F931F93CF93DF933C
:1008B0001F92CDB7DEB76C01E62E08E010E0FF24F2
:1008C000F39461E08F2D8E2109F460E0C601498325
:1008D0000E942104FF0C01501109498101151105E5
:1008E00081F7411115C0F894D6011196ED91FC9154
:1008F000129791818C918095892381831196ED9136
:10090000FC91129792818C918095892382837894AF
:100910000F90DF91CF911F910F91FF90EF90DF909B
:10092000CF900895CF92DF92EF92FF920F931F9393
:10093000CF93DF931F92CDB7DEB78C01F62E40E048
:1009400065E579830E945004CF2C7981D72E7601FA
:1009500088E0E80EF11CF60161916F0140E0C801EA
:100960000E945004CE14DF04B1F70F90DF91CF91B5
:100970001F910F91FF90EF90DF90CF900895FC01B1
:1009800090810180F281E02DF8948181292F2095BA
:100990008223818378948DE743E050E0815021F1F8
:1009A000DA011197F1F730813923C1F3F89482818C
:1009B000822382838181892B81837894ABE7B7E09E
:1009C0001197F1F7F894818128232183A3E1B1E005
:1009D0001197F1F78081982381E009F080E0789405
:1009E000E3E6F6E03197F1F70895CF92DF92EF92C8
:1009F000FF920F931F93CF93DF937C016C0187E0ED
:100A0000C80ED11CC0E0D0E0062F10E0B8010C2EBB
:100A100002C0759567950A94E2F76170F6018191BD
:100A20006F010E94DE022196C430D10579F7C7011B
:100A3000DF91CF911F910F91FF90EF90DF90CF90BA
:100A40000C940E03CF92DF92EF92FF920F931F93BD
:100A5000CF93DF93EC01F62E642F8C810E94DE028F
:100A60008D818F3F19F060E00E94DE028F850F2D8F
:100A700010E084FF25C06E0187E0C80ED11CE12C78
:100A8000F12CB8010E2C02C0759567950A94E2F717
:100A90006170F60181916F010E94DE02FFEFEF1A93
:100AA000FF0A88E0E816F10461F7CE01DF91CF91EB
:100AB0001F910F91FF90EF90DF90CF900C940E0359
:100AC000B80184E0759567958A95E1F7CE010E949B
:100AD000F5046F2DCE01DF91CF911F910F91FF9003
:100AE000EF90DF90CF900C94F50441E00E94220536
:100AF00081E090E0089540E00C942205CF92DF92CF
:100B0000EF92FF920F931F93CF93DF936C017A01C3
:100B10008B01C0E0D0E0CE15DF0589F0D8016D91E2
:100B20008D01D601ED91FC910190F081E02DC6017F
:100B30000995892B11F47E0102C02196ECCFC701E3
:100B4000DF91CF911F910F91FF90EF90DF90CF90A9
:100B50000895AF92BF92CF92DF92EF92FF920F93E0
:100B60001F93CF93DF938B01BC0180917102909111
:100B700072020E94920440E06EEB809171029091AB
:100B800072020E945004E801680189E0C80ED11C7D
:100B9000A0907102B090720288E0E82EF12C01E082
:100BA00010E0C5010E94FD038111102B000F81E0B0
:100BB000E81AF108B1F71993CC15DD0549F78091D2
:100BC0007102909172020E94BF0491E0813009F09D
:100BD00090E0892FDF91CF911F910F91FF90EF90BF
:100BE000DF90CF90BF90AF9008950E94E511EF92F3
:100BF000FF920F931F93CF93DF93EC01623018F0B5
:100C00008F8588608F876B8B1C8A80E48D8B80E159
:100C10008E8B80E58F8B61E08C810E9424038D8117
:100C20008F3F19F061E00E94240361E08E810E94F1
:100C300024037E0187E0E80EF11C00E010E08F85C0
:100C400084FD03C084E090E002C088E090E00817D3
:100C500019074CF461E0F70181917F010E942403A0
:100C60000F5F1F4FECCF8BE39DE00197F1F760E042
:100C70008C810E94DE0260E08E810E94DE028D8106
:100C80008F3F19F060E00E94DE026F8564FD1DC099
:100C900063E0CE010E94F5040BE416E4C80101975D
:100CA000F1F763E0CE010E94F504C8010197F1F766
:100CB00063E0CE010E94F50483E592E00197F1F72D
:100CC00062E0CE010E94F50416C06062CE010E946F
:100CD0007B058BE496E40197F1F76F856062CE01A6
:100CE0000E947B0583E592E00197F1F76F856062D2
:100CF000CE010E947B056F856062CE010E947B055C
:100D000084E0888B6CE0CE010E947B0561E0CE011F
:100D10000E947B058BE39FE10197F1F782E0898BCD
:100D200066E0CE01DF91CF911F910F91FF90EF9080
:100D30000C947B05E7E8F1E0A089B18982E08C930F
:100D4000A485B5851C92A685B7858FEC8C93108EF3
:100D5000A489B58986E08C93A289B3898C9180613E
:100D60008C93A289B3898C9188608C93A289B38972
:100D70008C9180688C930288F389E02D80818F7D2F
:100D800080830895AF92BF92CF92DF92EF92FF924D
:100D90000F931F93CF93DF931F92CDB7DEB75C0104
:100DA000D62EE72EFC018585811105C0C5010E9464
:100DB000BF04811106C0F50113861586148680E0F4
:100DC00065C040E060EFC5010E94500401E0F12CD5
:100DD000C12C11E0C5010E94FD03682FC501698384
:100DE0000E94FD036981613019F48130B9F433C088
:100DF0004F2D50E068131BC0F5018385181730F4A0
:100E0000E40FF51F8381802349F402C0181731F0E5
:100E100060E0193058F4F501148708C0F501EF0DB2
:100E2000F11D8381802B838361E009C0C12EF50110
:100E3000E40FF51F9381802F809589238383C5015B
:100E40000E9421041F5F000F11F4F39401E0F7E00A
:100E5000FF1508F0BFCF113408F4ADCFF501C386FC
:100E6000C11002C081E08587F5018381882309F4E0
:100E7000A2CFD5011396ED2DFE2D9501255F3F4F95
:100E80008D918193A217B307D9F781E00F90DF917D
:100E9000CF911F910F91FF90EF90DF90CF90BF9077
:100EA000AF900895CF93DF93CDB7DEB761970FB6BC
:100EB000F894DEBF0FBECDBFE0917102F0917202D7
:100EC000138615861486DF011B96CF0103961E92AA
:100ED000A817B907E1F7BE01665F7F4FCF010E94F7
:100EE000C206882341F067E0CE010A960E94F00313
:100EF0009989891729F060E070E08EEF92EC59C073
:100F000080917102909172020E94BF048823F1F1D6
:100F1000BE016F5F7F4FCE010A960E94A90588230C
:100F2000A9F168E0CE0101960E94F003998589132A
:100F30002DC0698148E0649FB00111248A81282F67
:100F400030E0322F2227330F330F330F262B372B6E
:100F50008A858031C9F4688570E08F81AB01481BB8
:100F60005109CA019695982F8827979587950E94D1
:100F7000B71160517109207F53E0220F331F5A953A
:100F8000E1F7620F731F04C0B90102C060E874EE9C
:100F9000613854EE75070CF4AECF072E000C880BA9
:100FA000990B0E94B50F20E030E040E05CE30E9426
:100FB000141061960FB6F894DEBF0FBECDBFDF915F
:100FC000CF9108950F931F93CF93DF93CDB7DEB7E3
:100FD00029970FB6F894DEBF0FBECDBFFC0120816C
:100FE000203161F18C0180917102909172020E9416
:100FF000BF04882309F1BE016F5F7F4FC8010E94C3
:10100000A9058823C9F068E0CE0101960E94F0038B
:101010009985891311C08D818F3361F020F48F3150
:1010200059F489E00CC08F3519F08F3739F004C0BE
:101030008BE005C08AE003C080E001C08CE0299607
:101040000FB6F894DEBF0FBECDBFDF91CF911F91D9
:101050000F9108958F929F92AF92BF92CF92DF929D
:10106000EF92FF92CF93DF93809171029091720281
:101070000E94BF0440E06CEC80917102909172027A
:101080000E94500440916C0264E48091710290913E
:1010900072020E94500480916E02882309F445C0B8
:1010A000E0916D02E950E33040F4F0E0EE0FFF1FF5
:1010B000E65FFE4FC081D18102C0CEEED2E08091CA
:1010C0006F02882311F180916C0281111EC00E9471
:1010D0009A034B015C016E01DD0FEE08FF08809161
:1010E0007102909172020E94FD038130F1F00E9422
:1010F0009A03DC01CB018C199D09AE09BF09881543
:101100009905AA05BB0558F310C0BE01DD0F880B79
:10111000990BDF91CF91FF90EF90DF90CF90BF9030
:10112000AF909F908F900C946003DF91CF91FF90D0
:10113000EF90DF90CF90BF90AF909F908F900895E9
:10114000DC01ED91FC910190F081E02D0994611595
:10115000710579F0FB0101900020E9F73197AF01AB
:10116000461B570BDC01ED91FC910280F381E02DD1
:10117000099480E090E008954F925F926F927F9281
:10118000EF92FF920F931F93CF93DF93CDB7DEB70C
:10119000A1970FB6F894DEBF0FBECDBF7C01FA0158
:1011A000CB0119A2223008F42AE08E010F5D1F4FF7
:1011B000422E512C612C712CBF01A30192010E947F
:1011C000E810F901CA01015011096A3014F4605D98
:1011D00001C0695CD8016C93232B242B252B61F76C
:1011E000B801C7010E94A708A1960FB6F894DEBF08
:1011F0000FBECDBFDF91CF911F910F91FF90EF9068
:101200007F906F905F904F900895CF92DF92EF9212
:10121000FF92CF93DF936C01990FEE08FF08F7FE62
:1012200016C06DE287E891E00E94A008EC01442717
:101230005527BA014C195D096E097F092AE087E834
:1012400091E00E94BC087C01EC0EFD1E08C02AE063
:10125000B701A60187E891E00E94BC087C0167E322
:1012600071E087E891E00E94A7088E0D9F1DDF9135
:10127000CF91FF90EF90DF90CF900895CF92DF92C3
:10128000EF92FF920F931F93CF93DF936B01770F32
:10129000EE08FF08F7FE1BC0EC016DE20E94A008FB
:1012A0008C0144275527BA014C195D096E097F0945
:1012B0002AE0CE010E94BC08800F911FDF91CF91E0
:1012C0001F910F91FF90EF90DF90CF9008952AE04B
:1012D000B701A601DF91CF911F910F91FF90EF9081
:1012E000DF90CF900C94BC080C94A708CF93DF93A9
:1012F000CDB7DEB729970FB6F894DEBF0FBECDBFCE
:10130000789484B5826084BD84B5816084BD85B5E0
:10131000826085BD85B5816085BD80916E008160EC
:1013200080936E0010928100809181008260809392
:101330008100809181008160809381008091800094
:101340008160809380008091B10084608093B100BF
:101350008091B00081608093B00080917A008460B9
:1013600080937A0080917A00826080937A008091E5
:101370007A00816080937A0080917A0080688093FF
:101380007A001092C10010926802109269021092C5
:101390006A0210926B02109226021092270210929B
:1013A00028021092290260ED77E080E090E00E9430
:1013B000600387E891E090936702809366020E9441
:1013C0009A060E949A0360932602709327028093E4
:1013D00028029093290268E271E080916602909160
:1013E00067020E9474096AE070E080E090E00E9469
:1013F000600381E080933A020E949A06E0917102B4
:10140000F0917202138615861486DF011B963396BF
:101410001E92AE17BF07E1F71092700211E0BE01F5
:101420006F5F7F4F80917102909172020E94C2069D
:10143000882309F44AC067E0CE0101960E94F003B8
:1014400098858913ECCF80916C02811127C080911F
:101450007102909172020E94BF04BE016F5F7F4FC4
:1014600080917102909172020E94920440E064EBBC
:1014700080917102909172020E94500480917102D9
:10148000909172020E94FD03082F80917102909149
:1014900072020E94BF04002309F4EFC100916D02A3
:1014A000CE0101960E94E207801718F480916D0228
:1014B00004C0CE0101960E94E20780936D028091E4
:1014C00070028F5F80937002AACF60E48FE792E092
:1014D0000E947B0500E011E0D8016D918D018FE73E
:1014E00092E00E947505B1E008301B07A9F761E0A2
:1014F00089E00E94240361E08CE00E94240362E002
:1015000088E00E9424030E949A0360937001709304
:101510007101809372019093730162E08FE792E012
:101520000E94F70500E010E01A83098360E0CE0115
:1015300001960E9427020F5F1F4F0115E1E01E0771
:1015400099F798EE892E93E0992EA12CB12C0CE3FB
:1015500010E025E5222E312C0E949A03672B682B80
:10156000692B41F40E949A0362307105810591054F
:1015700008F40FC10E949A03609383017093840161
:101580008093850190938601C0907F01D090800167
:10159000E0908101F09082016C157D058E059F051C
:1015A00040F460937F017093800180938101909358
:1015B0008201C0907F01D0908001E0908101F09085
:1015C00082019B01AC012C193D094E095F0969019B
:1015D0007A013AEFC316D104E104F10408F4D9C04A
:1015E00060937F01709380018093810190938201C9
:1015F00084EF91E0A0E0B0E0809332029093330258
:10160000A0933402B0933502109236021092370242
:10161000109238021092390280912A0290912B0286
:10162000A0912C02B0912D0280932E0290932F0254
:10163000A0933002B09331020E949A0360932A0271
:1016400070932B0280932C0290932D020E949A0398
:1016500060932602709327028093280290932902B8
:101660000E949A036B017C016AE371E0809166023B
:10167000909167020E9474092AE041E050E060E026
:1016800070E080916602909167020E94BC0861E45C
:1016900071E080916602909167020E9474092AE0CD
:1016A000B701A60180916602909167020E94BC0872
:1016B00063E471E080916602909167020E94740970
:1016C00080912A0290912B02A0912C02B0912D02C0
:1016D000B701A601481B590B6A0B7B0B2AE08091CE
:1016E0006602909167020E94BC0863E471E08091F9
:1016F0006602909167020E94740940912A025091FB
:101700002B0260912C0270912D0280912E029091FB
:101710002F02A0913002B0913102481B590B6A0B85
:101720007B0B2AE080916602909167020E94BC08C0
:1017300065E471E080916602909167020E947409ED
:101740000E949A03AB01BC012AE08091660290914D
:1017500067020E94BC08E0906602F090670267E4AE
:1017600071E0C7010E94A70867E371E0C7010E940A
:10177000A70862E070E080E090E00E9460030E94B1
:101780009A0360932A0270932B0280932C02909309
:101790002D02E0900801F090090161E08BE00E94C9
:1017A0002403E114F10411F460E005C09FEFE91691
:1017B000F10429F461E08BE00E94DE0244C0E7E816
:1017C000F1E084918330F9F048F48130B9F082304F
:1017D000A1F584B5806284BDE8BC35C08730E9F0EE
:1017E000883019F1843049F58091800080628093BF
:1017F0008000F0928B00E0928A0025C084B580685A
:1018000084BDE7BC20C08091800080688093800008
:10181000F0928900E092880016C08091B000806844
:101820008093B000E092B3000EC08091B00080625F
:101830008093B000E092B40006C0F0E8EF16F10427
:101840000CF0B8CFB1CFE4E8F1E08491E6EBF1E041
:10185000F490E2EAF1E0E490EE2091F081110E9430
:10186000D801EE2DF0E0EE0FFF1FE057FE4FA591DF
:10187000B4918C91F82221F09FC210936C020ECE8D
:1018800061E089E00E94DE0280916F0181110AC04F
:1018900081E080936F0128EC30E0309309012093C0
:1018A000080106C0109209011092080110926F0100
:1018B000E1E0809192028111E0E0E195F0E0E158F1
:1018C000FD4F648960688FE792E00E947B056EE4BB
:1018D00071E08FE792E00E9474090E9452076B0149
:1018E0007C019B01AC010E94B211882319F064E5D0
:1018F00071E01AC026013701E89477F82FEF3FEF27
:101900004FE75FE7C301B2010E94B211811111C01C
:101910002FEF3FEF4FE75FE7C301B2010E94AE0F29
:1019200018163CF468E571E08FE792E00E94A70882
:101930007DC02FEF3FEF4FE75FE4C701B6010E9484
:10194000AD1118161CF46CE571E0EECF2FEF3FEFF0
:101950004FE75FECC701B6010E94AE0F87FDF3CFE2
:1019600020E030E0A901C701B6010E94AE0F87FF59
:1019700009C06DE28FE792E00E94A008F7FAF094A8
:10198000F7F8F0942AE037ED43EA5BE3C701B601CC
:101990000E940B112B013C010E947E116B017C0106
:1019A0000E94B30F9B01AC01C301B2010E940A1156
:1019B0002B013C012AE0B701A6018FE792E00E94CB
:1019C000BC086EE28FE792E00E94A00820E030E0C1
:1019D00040E251E4C301B2010E9414102B013C010A
:1019E0000E947E116B01E12CF12C2AE0B701A601C7
:1019F0008FE792E00E94BC08C701B6010E94B30FB6
:101A00009B01AC01C301B2010E940A1120E030E049
:101A100040E251E40E9414100E947E11AB0160E08C
:101A200070E02AE08FE792E00E94BC0860E08FE758
:101A300092E00E94A00860E671E08FE792E00E94C9
:101A40007409E0919202E23010F4E15001C0E1E04B
:101A5000F0E0E158FD4F648960688FE792E00E94F2
:101A60007B050E949A03C0907001D0907101E090B4
:101A70007201F09073016C197D098E099F09A5010F
:101A800094010E94E81030937B0120937A01C901F0
:101A9000B8010E94B711CB01709375016093740176
:101AA000B8010E94B711709377016093760160E0EE
:101AB00070E08FE792E00E943E096091760170919C
:101AC00077018FE792E00E943E0963E471E08FE7BF
:101AD00092E00E9474098091740190917501B8019F
:101AE0000E94B7118A3091056CF462E671E08FE7CD
:101AF00092E00E9474098091740190917501B8017F
:101B00000E94B711BC018FE792E00E943E0963E496
:101B100071E08FE792E00E94740980917A019091C0
:101B20007B01B8010E94B7118A3091056CF462E61E
:101B300071E08FE792E00E94740980917A019091A0
:101B40007B01B8010E94B711BC018FE792E00E94AF
:101B50003E09E0919202E23010F4E15001C0E1E070
:101B6000F0E0E158FD4F6489645F60688FE792E0C0
:101B70000E947B0560917C0170917D018FE792E06E
:101B80000E943E0980917E01811109C1E0907C0193
:101B9000F0907D013DEFE31633E0F3060CF0D5C085
:101BA00080917A0190917B01B1010E94B711892B3C
:101BB00009F05DC00E942A080E94520720E030E030
:101BC00040E251E40E9414102B013C0120E030E07F
:101BD000A9010E94AD1120E030E040E05FE387FD05
:101BE00005C0C301B2010E940B1104C0C301B201C0
:101BF0000E940A110E9477114CE9460F4983BE01E9
:101C00006F5F7F4FC70149870E946E0260917C0120
:101C100070917D016F5F7F4F70937D0160937C01B8
:101C200087E891E00E943E0964E671E087E891E070
:101C30000E947409498550E060E070E02AE087E87E
:101C400091E00E94BC0864E671E087E891E00E94A0
:101C5000740980917A0190917B010E94050980911D
:101C60007A0190917B019093790180937801209182
:101C70007A0130917B01C901B1010E94B71101972E
:101C800009F091C02150310980917801909179013A
:101C90008217930709F487C00E942A080E945207FE
:101CA00020E030E040E251E40E9414106B017C011E
:101CB00020E030E0A9010E94AD1120E030E040E0DA
:101CC0005FE387FD05C0C701B6010E940B1104C088
:101CD000C701B6010E940A110E9477114CE9460F14
:101CE0004983BE016F5F7F4F80917C0190917D01A0
:101CF00049870E946E0260917C0170917D016F5F47
:101D00007F4F70937D0160937C0187E891E00E9492
:101D10003E0964E671E087E891E00E947409498514
:101D200050E060E070E02AE087E891E00E94BC08A3
:101D300064E671E087E891E00E94740980917A017D
:101D400090917B010E9405092EC066E771E08DEF3E
:101D500093E00E9447028091740190917501B8014F
:101D60000E94B7119A838983BE016F5F7F4F8EEF08
:101D700093E00E94470280917A0190917B01B80123
:101D80000E94B7119A838983BE016F5F7F4F8FEFE7
:101D900093E00E94470281E080937E0104C061E0ED
:101DA0008CE00E94DE0264EF71E080E090E00E942F
:101DB00060030E94CE01D0CB60E089E00E94DE0289
:101DC00077CD10928A011092890188EE93E0A0E00D
:101DD000B0E080938B0190938C01A0938D01B09320
:101DE0008E0184E191E0909388018093870185ECD6
:101DF00090E0909394018093930184EC90E0909311
:101E000096018093950180EC90E0909398018093E7
:101E1000970181EC90E090939A018093990182EC74
:101E200090E090939C0180939B0186EC90E09093CE
:101E30009E0180939D011092A0011092A101109229
:101E4000A2011092A30110922A0210922B0210926A
:101E50002C0210922D0210922E0210922F0210923C
:101E6000300210923102109232021092330210921C
:101E700034021092350210923602109237021092FC
:101E8000380210923902109282021092810284E28A
:101E900091E09093800280937F0282E0809383029E
:101EA0008FEF8093840283E08093850284E08093A7
:101EB000860285E08093870286E08093880287E02F
:101EC0008093890210928A0210928B0210928C02E7
:101ED00010928D0210928E0261E08FE792E00E94D4
:101EE000F70560E08EE00E942403ECEBF1E0E49162
:101EF000E0939702E8EAF1E0E491F0E0EE0FFF1FD3
:101F0000E057FE4F859194919093990280939802A7
:101F10001092A2021092A4021092A302E2EAF2E04E
:101F2000129282E0EA39F807D9F786E292E09093BC
:101F30007E0280937D0287E992E090937202809303
:101F400071021092700210926C0289E080936D020F
:101F500081E080936E0280936F0208950E94F00FDB
:101F600008F481E00895E89409C097FB3EF4909549
:101F70008095709561957F4F8F4F9F4F9923A9F062
:101F8000F92F96E9BB279395F695879577956795F1
:101F9000B795F111F8CFFAF4BB0F11F460FF1BC035
:101FA0006F5F7F4F8F4F9F4F16C0882311F096E9C8
:101FB00011C0772321F09EE8872F762F05C0662376
:101FC00071F096E8862F70E060E02AF09A95660F2F
:101FD000771F881FDAF7880F9695879597F90895E8
:101FE000990F0008550FAA0BE0E8FEEF161617062A
:101FF000E807F907C0F012161306E407F50798F092
:10200000621B730B840B950B39F40A2661F0232BAA
:10201000242B252B21F408950A2609F4A140A69526
:102020008FEF811D811D08950E9427100C94981038
:102030000E948A1038F00E94911020F0952311F030
:102040000C9481100C94871011240C94CC100E94D5
:10205000A91070F3959FC1F3950F50E0551F629F33
:10206000F001729FBB27F00DB11D639FAA27F00DF1
:10207000B11DAA1F649F6627B00DA11D661F829F18
:102080002227B00DA11D621F739FB00DA11D621FFD
:10209000839FA00D611D221F749F3327A00D611D1A
:1020A000231F849F600D211D822F762F6A2F1124FC
:1020B0009F5750409AF0F1F088234AF0EE0FFF1F2F
:1020C000BB1F661F771F881F91505040A9F79E3F86
:1020D000510580F00C9481100C94CC105F3FE4F318
:1020E000983ED4F3869577956795B795F795E795DC
:1020F0009F5FC1F7FE2B880F911D9695879597F9E5
:10210000089597F99F6780E870E060E008959FEF79
:1021100080EC089500240A9416161706180609067E
:10212000089500240A94121613061406050608954D
:10213000092E0394000C11F4882352F0BB0F40F4D5
:10214000BF2B11F460FF04C06F5F7F4F8F4F9F4F15
:10215000089557FD9058440F551F59F05F3F71F097
:102160004795880F97FB991F61F09F3F79F08795FE
:102170000895121613061406551FF2CF4695F1DF87
:1021800008C0161617061806991FF1CF8695710517
:10219000610508940895E894BB2766277727CB014B
:1021A00097F90895F999FECF92BD81BDF89A9927C4
:1021B00080B50895262FF999FECF1FBA92BD81BD33
:1021C00020BD0FB6F894FA9AF99A0FBE01960895B9
:1021D000A1E21A2EAA1BBB1BFD010DC0AA1FBB1F2B
:1021E000EE1FFF1FA217B307E407F50720F0A21B9D
:1021F000B30BE40BF50B661F771F881F991F1A940A
:1022000069F760957095809590959B01AC01BD0133
:10221000CF0108955058BB27AA270E9422110C9481
:1022200098100E948A1038F00E94911020F039F422
:102230009F3F19F426F40C9487100EF4E095E7FB09
:102240000C948110E92F0E94A91058F3BA17620765
:1022500073078407950720F079F4A6F50C94CB104A
:102260000EF4E0950B2EBA2FA02D0B01B9019001B1
:102270000C01CA01A0011124FF27591B99F0593FF5
:1022800050F4503E68F11A16F040A22F232F342F3D
:102290004427585FF3CF469537952795A795F0408B
:1022A0005395C9F77EF41F16BA0B620B730B840BA0
:1022B000BAF09150A1F0FF0FBB1F661F771F881F58
:1022C000C2F70EC0BA0F621F731F841F48F48795B0
:1022D00077956795B795F7959E3F08F0B0CF9395A2
:1022E000880F08F09927EE0F9795879508950E941B
:1022F0007E116894B1110C94CC1008950E94B11015
:1023000088F09F5798F0B92F9927B751B0F0E1F0B6
:10231000660F771F881F991F1AF0BA95C9F714C066
:10232000B13091F00E94CB10B1E008950C94CB1025
:10233000672F782F8827B85F39F0B93FCCF386959F
:1023400077956795B395D9F73EF4909580957095FC
:1023500061957F4F8F4F9F4F08950E94F00F08F4B3
:102360008FEF08950E94F00F880B990B089597FB4B
:10237000072E16F4009407D077FD09D00E94CB11E8
:1023800007FC05D03EF4909581959F4F0895709578
:1023900061957F4F0895AA1BBB1B51E107C0AA1F7F
:1023A000BB1FA617B70710F0A61BB70B881F991FF6
:1023B0005A95A9F780959095BC01CD010895EE0F2F
:1023C000FF1F0590F491E02D099481E090E0F894CE
:0823D0000C94EA11F894FFCF10
:1023D800040A110A0400000014005E00BC00770122
:1023E8000000000065017E052E010C012001AC01F2
:1023F8000000000075057E05564D4450565F317C3F
:10240800315F564D4450560D0A00564D4450455FB5
:10241800003A323A007C005F564D445045005465FE
:102428006D703A006E616E00696E66006F766600C8
:06243800430030003B00F0
:107E0000112484B714BE81FFF0D085E080938100F7
:107E100082E08093C00088E18093C10086E0809377
:107E2000C20080E18093C4008EE0C9D0259A86E02C
:107E300020E33CEF91E0309385002093840096BBD3
:107E4000B09BFECF1D9AA8958150A9F7CC24DD24C4
:107E500088248394B5E0AB2EA1E19A2EF3E0BF2EE7
:107E6000A2D0813461F49FD0082FAFD0023811F036
:107E7000013811F484E001C083E08DD089C08234E0
:107E800011F484E103C0853419F485E0A6D080C0E4
:107E9000853579F488D0E82EFF2485D0082F10E0AE
:107EA000102F00270E291F29000F111F8ED06801E7
:107EB0006FC0863521F484E090D080E0DECF843638
:107EC00009F040C070D06FD0082F6DD080E0C81688
:107ED00080E7D80618F4F601B7BEE895C0E0D1E017
:107EE00062D089930C17E1F7F0E0CF16F0E7DF06D8
:107EF00018F0F601B7BEE89568D007B600FCFDCFD4
:107F0000A601A0E0B1E02C9130E011968C91119780
:107F100090E0982F8827822B932B1296FA010C0160
:107F200087BEE89511244E5F5F4FF1E0A038BF0790
:107F300051F7F601A7BEE89507B600FCFDCF97BE46
:107F4000E89526C08437B1F42ED02DD0F82E2BD052
:107F50003CD0F601EF2C8F010F5F1F4F84911BD097
:107F6000EA94F801C1F70894C11CD11CFA94CF0C13
:107F7000D11C0EC0853739F428D08EE10CD085E9AC
:107F80000AD08FE07ACF813511F488E018D01DD067
:107F900080E101D065CF982F8091C00085FFFCCF94
:107FA0009093C60008958091C00087FFFCCF809118
:107FB000C00084FD01C0A8958091C6000895E0E648
:107FC000F0E098E1908380830895EDDF803219F02E
:107FD00088E0F5DFFFCF84E1DECF1F93182FE3DFCA
:107FE0001150E9F7F2DF1F91089580E0E8DFEE27F6
:047FF000FF270994CA
:027FFE00040479
:0400000300007E007B
:00000001FF