:100000000C94E2000C940A010C940A010C940A016D
:100010000C940A010C940A010C940A010C940A0134
:100020000C940A010C940A010C940A010C940A0124
:100030000C940A010C940A010C940A010C940A0114
:100040000C94AF030C940A010C94B5020C948F022B
:100050000C940A010C940A010C940A010C940A01F4
:100060000C940A010C940A01005EBCE2613FDD833E
:10007000C29C7E20A3FD1F419DC3217FFCA2401E88
:100080005F01E3BD3E6082DC237D9FC1421CFEA078
:10009000E1BF5D0380DE3C62BEE0025CDF81633D68
:1000A0007C22C09E1D43A1FF4618FAA427799BC558
:1000B00084DA3866E5BB5907DB856739BAE4065848
:1000C0001947A5FB7826C49A653BD987045AB8E638
:1000D000A7F91B45C6987A24F8A6441A99C7257B28
:1000E0003A6486D85B05E7B98CD2306EEDB3510F18
:1000F0004E10F2AC2F7193CD114FADF3702ECC9208
:10010000D38D6F31B2EC0E50AFF1134DCE90722CF7
:100110006D33D18F0C52B0EE326C8ED0530DEFB1E7
:10012000F0AE4C1291CF2D73CA947628ABF51749D7
:100130000856B4EA6937D58B5709EBB536688AD4C7
:1001400095CB2977F4AA4816E9B7550B88D6346AB7
:100150002B7597C94A14F6A8742AC896154BA9F7A7
:10016000B6E80A54D7896B35000000002400270048
:100170002A0000000000250028002B0000000008D5
:10018000000201000003040700000000000000005E
:1001900000000000230026002900040404040404D5
:1001A0000404020202020202030303030303010226
:1001B00004081020408001020408102001020408F5
:1001C00010200C0F11241FBECFEFD8E0DEBFCDBF33
:1001D00022E0A8E8B1E001C01D92A73CB207E1F718
:1001E00011E0A0E0B1E0E4E0F5E202C005900D927C
:1001F000A838B107D9F710E0C2EED0E004C02197CB
:10020000FE010E947512C13ED107C9F70E94610A22
:100210000C9480120C940000FC01918D828D981733
:1002200061F0828DDF01A80FB11D5D968C91928DDA
:100230009F5F9F73928F90E008958FEF9FEF0895D7
:10024000FC01918D828D981731F0828DE80FF11DA0
:10025000858D90E008958FEF9FEF0895FC01918DBB
:10026000228D892F90E0805C9F4F821B91098F73B4
:100270009927089589EA91E00E942E0121E0892BB7
:1002800009F420E0822F0895FC01848DDF01A80F7E
:10029000B11DA35ABF4F2C91848D90E001968F73AE
:1002A0009927848FA689B7892C93A089B1898C91CD
:1002B00080648C93938D848D981306C00288F38993
:1002C000E02D80818F7D80830895EF92FF920F93C0
:1002D0001F93CF93DF93EC0181E0888F9B8D8C8DF2
:1002E000981305C0E889F989808185FD24C0F62E20
:1002F0000B8D10E00F5F1F4F0F731127E02E8C8DB9
:10030000E8120CC00FB607FCFACFE889F9898081A2
:1003100085FFF5CFCE010E944401F1CF8B8DFE0108
:10032000E80FF11DE35AFF4FF0820B8FEA89FB893A
:100330008081806207C0EE89FF896083E889F9893E
:1003400080818064808381E090E0DF91CF911F9174
:100350000F91FF90EF900895CF93DF93EC01888D7C
:100360008823C9F0EA89FB89808185FD05C0A889B9
:10037000B9898C9186FD0FC00FB607FCF5CF80813F
:1003800085FFF2CFA889B9898C9185FFEDCFCE0189
:100390000E944401E7CFDF91CF91089580E090E083
:1003A000892B29F00E943A0181110C9400000895D4
:1003B000833081F028F4813099F08230A1F00895E3
:1003C0008730A9F08830B9F08430D1F48091800072
:1003D0008F7D03C0809180008F7780938000089587
:1003E00084B58F7702C084B58F7D84BD08958091D8
:1003F000B0008F7703C08091B0008F7D8093B000F4
:1004000008953FB7F89480918D0190918E01A0914D
:100410008F01B091900126B5A89B05C02F3F19F020
:100420000196A11DB11D3FBFBA2FA92F982F882774
:10043000820F911DA11DB11DBC01CD0142E0660FCF
:10044000771F881F991F4A95D1F708950895AF9295
:10045000BF92CF92DF92EF92FF920F931F93CF93B1
:10046000DF931F92CDB7DEB75C017B018B016C017E
:1004700084E0C80ED11CF80161918F01C501698328
:100480000E94FD106981681719F0C5010E940511CD
:10049000FFEFAF1ABF0AAC14BD0469F7C7010F9094
:1004A000DF91CF911F910F91FF90EF90DF90CF9050
:1004B000BF90AF900895AF92BF92CF92DF92EF922C
:1004C000FF920F931F93CF93DF931F92CDB7DEB7A9
:1004D0005C017B018B016C0182E0C80ED11CF8012C
:1004E00061918F01C50169830E94FD1069816817C0
:1004F00019F0C5010E940511FFEFAF1ABF0AAC1435
:10050000BD0469F7C7010F90DF91CF911F910F9143
:10051000FF90EF90DF90CF90BF90AF9008951F9223
:100520000F920FB60F9211242F933F934F935F9327
:100530006F937F938F939F93AF93BF93EF93FF93AB
:1005400089EA91E00E944401FF91EF91BF91AF9140
:100550009F918F917F916F915F914F913F912F91DB
:100560000F900FBE0F901F9018951F920F920FB60D
:100570000F9211242F938F939F93EF93FF93E0910A
:10058000B901F091BA018081E091BF01F091C00101
:1005900082FD12C090818091C2018F5F8F73209184
:1005A000C301821751F0E091C201F0E0E755FE4F20
:1005B000958F8093C20101C08081FF91EF919F913F
:1005C0008F912F910F900FBE0F901F9018951F9332
:1005D000CF93DF93282F30E0F901E458FE4F849148
:1005E000F901E255FE4FD491F901E656FE4FC49150
:1005F000CC23C9F0162F81110E94D801EC2FF0E016
:10060000EE0FFF1FEE58FE4FA591B4918FB7F894EF
:10061000111105C09C91ED2FE095E92302C0EC91EA
:10062000ED2BEC938FBFDF91CF911F910895CF9366
:10063000DF93EC0160E08E810E94E70261E08E8131
:100640000E94E70260E08E810E94E7028BE891E061
:100650000197F1F7DF91CF910895CF93DF9390E069
:10066000FC01E255FE4F2491FC01E656FE4F8491B9
:10067000882361F190E0880F991FFC01E859FE4F33
:10068000C591D491FC01EE58FE4FA591B491611132
:1006900009C09FB7F8948881209582238883EC91C4
:1006A0002E230BC0623061F49FB7F8943881822FFB
:1006B000809583238883EC912E2B2C939FBF06C0BB
:1006C0008FB7F894E8812E2B28838FBFDF91CF91CD
:1006D00008958F929F92AF92BF92CF92DF92EF9246
:1006E000FF926B017C010E9401024B015C01C1146D
:1006F000D104E104F104F1F00E940102DC01CB011C
:1007000088199909AA09BB09883E9340A105B1053A
:1007100070F321E0C21AD108E108F10888EE880ED2
:1007200083E0981EA11CB11CC114D104E104F104A2
:1007300019F7DDCFFF90EF90DF90CF90BF90AF9093
:100740009F908F9008952FB7F894609189017091D0
:100750008A0180918B0190918C012FBF08951F9287
:100760000F920FB60F9211242F933F938F939F9365
:10077000AF93BF938091890190918A01A0918B01E1
:10078000B0918C013091880123E0230F2D3720F4A4
:100790000196A11DB11D05C026E8230F0296A11DDB
:1007A000B11D209388018093890190938A01A093C1
:1007B0008B01B0938C0180918D0190918E01A0915D
:1007C0008F01B09190010196A11DB11D80938D0103
:1007D00090938E01A0938F01B0939001BF91AF9140
:1007E0009F918F913F912F910F900FBE0F901F906F
:1007F0001895DC01E0E0615038F08D91E827F0E0D9
:10080000E859FF4FE491F7CF8E2F0895FC019081B6
:100810000180F281E02DF8948181892B81832281EE
:10082000892F809528232283A7E0B0E01197F1F764
:10083000218182238183A3E2B0E01197F1F78081C7
:100840007894EFECF0E03197F1F7982381E009F428
:1008500080E00895FC0190810180F281E02D892FD4
:10086000809560FF12C0F894228182238283818167
:10087000892B8183A3E2B0E01197F1F78281982B55
:100880009283789487ED90E011C0F89422818223BE
:1008900082838181892B8183AFEFB0E01197F1F7DB
:1008A0008281982B928378948FE090E00197F1F702
:1008B0000895CF92DF92EF92FF920F931F93CF9301
:1008C000DF931F92CDB7DEB76C01E62E08E010E093
:1008D000FF24F39461E08F2D8E2109F460E0C601BE
:1008E00049830E942A04FF0C015011094981011516
:1008F000110581F7411115C0F894D6011196ED91BB
:10090000FC91129791818C91809589238183119616
:10091000ED91FC91129792818C918095892382832D
:1009200078940F90DF91CF911F910F91FF90EF90EE
:10093000DF90CF900895CF92DF92EF92FF920F93C6
:100940001F93CF93DF931F92CDB7DEB78C01F62EA6
:1009500040E065E579830E945904CF2C7981D72E38
:10096000760188E0E80EF11CF60161916F0140E02C
:10097000C8010E945904CE14DF04B1F70F90DF9133
:10098000CF911F910F91FF90EF90DF90CF9008953E
:10099000FC0190810180F281E02DF8948181292F62
:1009A00020958223818378948DE743E050E0815045
:1009B00021F1DA011197F1F730813923C1F3F8946D
:1009C0008281822382838181892B81837894ABE722
:1009D000B7E01197F1F7F894818128232183A3E1EF
:1009E000B1E01197F1F78081982381E009F080E070
:1009F0007894E3E6F6E03197F1F70895CF92DF922D
:100A0000EF92FF920F931F93CF93DF937C016C01C2
:100A100087E0C80ED11CC0E0D0E0062F10E0B8017E
:100A20000C2E02C0759567950A94E2F76170F60185
:100A300081916F010E94E7022196C430D10579F7B8
:100A4000C701DF91CF911F910F91FF90EF90DF9041
:100A5000CF900C941703CF92DF92EF92FF920F93F7
:100A60001F93CF93DF93EC01F62E642F8C810E94AD
:100A7000E7028D818F3F19F060E00E94E7028F85C9
:100A80000F2D10E084FF25C06E0187E0C80ED11C39
:100A9000E12CF12CB8010E2C02C0759567950A94D3
:100AA000E2F76170F60181916F010E94E702FFEFAA
:100AB000EF1AFF0A88E0E816F10461F7CE01DF9132
:100AC000CF911F910F91FF90EF90DF90CF900C94FA
:100AD0001703B80184E0759567958A95E1F7CE0113
:100AE0000E94FE046F2DCE01DF91CF911F910F91D7
:100AF000FF90EF90DF90CF900C94FE0441E00E94B5
:100B00002B0581E090E0089540E00C942B05EF92D6
:100B1000FF920F931F93CF93DF93EC01623018F095
:100B20008F8588608F876B8B1C8A80E48D8B80E13A
:100B30008E8B80E58F8B61E08C810E942D038D81EF
:100B40008F3F19F061E00E942D0361E08E810E94C9
:100B50002D037E0187E0E80EF11C00E010E08F8598
:100B600084FD03C084E090E002C088E090E00817B4
:100B700019074CF461E0F70181917F010E942D0378
:100B80000F5F1F4FECCF8BE39DE00197F1F760E023
:100B90008C810E94E70260E08E810E94E7028D81D5
:100BA0008F3F19F060E00E94E7026F8564FD1DC071
:100BB00063E0CE010E94FE040BE416E4C801019735
:100BC000F1F763E0CE010E94FE04C8010197F1F73E
:100BD00063E0CE010E94FE0483E592E00197F1F705
:100BE00062E0CE010E94FE0416C06062CE010E9447
:100BF00084058BE496E40197F1F76F856062CE017E
:100C00000E94840583E592E00197F1F76F856062A9
:100C1000CE010E9484056F856062CE010E9484052A
:100C200084E0888B6CE0CE010E94840561E0CE01F7
:100C30000E9484058BE39FE10197F1F782E0898BA5
:100C400066E0CE01DF91CF911F910F91FF90EF9061
:100C50000C948405E9EAF1E0A089B18982E08C93E3
:100C6000A485B5851C92A685B7858FEC8C93108ED4
:100C7000A489B58986E08C93A289B3898C9180611F
:100C80008C93A289B3898C9188608C93A289B38953
:100C90008C9180688C930288F389E02D80818F7D10
:100CA000808308958F929F92AF92BF92CF92DF92EE
:100CB000EF92FF92CF93DF938091930290919402F1
:100CC0000E94C80440E06CEC8091930290919402E1
:100CD0000E94590440918E0264E4809193029091A5
:100CE00094020E94590480919002882309F445C01F
:100CF000E0918F02E950E33040F4F0E0EE0FFF1F87
:100D0000E65FFE4FC081D18102C0CEEED2E080917D
:100D10009102882311F180918E0281111EC00E94E0
:100D2000A3034B015C016E01DD0FEE08FF0880910B
:100D30009302909194020E9406048130F1F00E9487
:100D4000A303DC01CB018C199D09AE09BF098815ED
:100D50009905AA05BB0558F310C0BE01DD0F880B2D
:100D6000990BDF91CF91FF90EF90DF90CF90BF90E4
:100D7000AF909F908F900C946903DF91CF91FF907B
:100D8000EF90DF90CF90BF90AF909F908F9008959D
:100D9000AF92BF92CF92DF92EF92FF920F931F9389
:100DA000CF93DF938B01BC018091930290919402C9
:100DB0000E949B0440E06EEB80919302909194021C
:100DC0000E945904E801680189E0C80ED11CA09076
:100DD0009302B090940288E0E82EF12C01E010E03C
:100DE000C5010E9406048111102B000F81E0E81A52
:100DF000F108B1F71993CC15DD0549F780919302FD
:100E0000909194020E94C80491E0813009F090E032
:100E1000892FDF91CF911F910F91FF90EF90DF907D
:100E2000CF90BF90AF900895AF92BF92CF92DF92D4
:100E3000EF92FF920F931F93CF93DF931F92CDB743
:100E4000DEB75C01D62EE72EFC018585811105C039
:100E5000C5010E94C804811106C0F50113861586DC
:100E6000148680E065C040E060EFC5010E9459042F
:100E700001E0F12CC12C11E0C5010E940604682F8D
:100E8000C50169830E9406046981613019F48130CB
:100E9000B9F433C04F2D50E068131BC0F5018385B2
:100EA000181730F4E40FF51F8381802349F402C042
:100EB000181731F060E0193058F4F501148708C0B4
:100EC000F501EF0DF11D8381802B838361E009C063
:100ED000C12EF501E40FF51F9381802F80958923A2
:100EE0008383C5010E942A041F5F000F11F4F3944D
:100EF00001E0F7E0FF1508F0BFCF113408F4ADCFE3
:100F0000F501C386C11002C081E08587F5018381A8
:100F1000882309F4A2CFD5011396ED2DFE2D95015E
:100F2000255F3F4F8D918193A217B307D9F781E0D9
:100F30000F90DF91CF911F910F91FF90EF90DF9075
:100F4000CF90BF90AF900895CF93DF93CDB7DEB72A
:100F500061970FB6F894DEBF0FBECDBFE09193024C
:100F6000F0919402138615861486DF011B96CF013B
:100F700003961E92A817B907E1F7BE01665F7F4F7F
:100F8000CF010E941407882341F067E0CE010A9642
:100F90000E94F9039989891729F060E070E08EEFCB
:100FA00092EC59C080919302909194020E94C804DF
:100FB0008823F1F1BE016F5F7F4FCE010A960E9438
:100FC000C8068823A9F168E0CE0101960E94F903C2
:100FD000998589132DC0698148E0649FB00111246F
:100FE0008A81282F30E0322F2227330F330F330F1F
:100FF000262B372B8A858031C9F4688570E08F8174
:10100000AB01481B5109CA019695982F88279795DF
:1010100087950E944D1260517109207F53E0220F85
:10102000331F5A95E1F7620F731F04C0B90102C064
:1010300060E874EE613854EE75070CF4AECF072EFD
:10104000000C880B990B0E94E00F20E030E040E09C
:101050005CE30E943F1061960FB6F894DEBF0FBEAE
:10106000CDBFDF91CF910895CF92DF92EF92FF92A3
:101070000F931F93CF93DF936C017A018B01C0E034
:10108000D0E0CE15DF0589F0D8016D918D01D60134
:10109000ED91FC910190F081E02DC6010995892B1D
:1010A00011F47E0102C02196ECCFC701DF91CF91F0
:1010B0001F910F91FF90EF90DF90CF9008950E94C5
:1010C0007B120F931F93CF93DF93CDB7DEB7299792
:1010D0000FB6F894DEBF0FBECDBFFC0120812031DA
:1010E00061F18C0180919302909194020E94C80456
:1010F000882309F1BE016F5F7F4FC8010E94C806B7
:101100008823C9F068E0CE0101960E94F903998511
:10111000891311C08D818F3361F020F48F3159F420
:1011200089E00CC08F3519F08F3739F004C08BE09F
:1011300005C08AE003C080E001C08CE029960FB6AC
:10114000F894DEBF0FBECDBFDF91CF911F910F91FD
:101150000895DC01ED91FC910190F081E02D09945E
:101160006115710579F0FB0101900020E9F73197D5
:10117000AF01461B570BDC01ED91FC910280F3811E
:10118000E02D099480E090E008954F925F926F9275
:101190007F92EF92FF920F931F93CF93DF93CDB780
:1011A000DEB7A1970FB6F894DEBF0FBECDBF7C01AE
:1011B000FA01CB0119A2223008F42AE08E010F5D5A
:1011C0001F4F422E512C612C712CBF01A3019201A3
:1011D0000E941311F901CA01015011096A3014F477
:1011E000605D01C0695CD8016C93232B242B252BF7
:1011F00061F7B801C7010E94B008A1960FB6F89434
:10120000DEBF0FBECDBFDF91CF911F910F91FF9039
:10121000EF907F906F905F904F900895CF92DF9204
:10122000EF92FF92CF93DF936C01990FEE08FF08C6
:10123000F7FE16C06DE289EA91E00E94A908EC0170
:1012400044275527BA014C195D096E097F092AE028
:1012500089EA91E00E94C5087C01EC0EFD1E08C0E1
:101260002AE0B701A60189EA91E00E94C5087C0145
:1012700067E371E089EA91E00E94B0088E0D9F1D3E
:10128000DF91CF91FF90EF90DF90CF900895CF92B4
:10129000DF92EF92FF920F931F93CF93DF936B0137
:1012A000770FEE08FF08F7FE1BC0EC016DE20E940D
:1012B000A9088C0144275527BA014C195D096E090C
:1012C0007F092AE0CE010E94C508800F911FDF919F
:1012D000CF911F910F91FF90EF90DF90CF900895E5
:1012E0002AE0B701A601DF91CF911F910F91FF90E6
:1012F000EF90DF90CF900C94C5084F925F926F9261
:101300007F928F929F92AF92BF92CF92DF92EF9295
:10131000FF92CF93DF93EC016A017B01B22E9A0119
:10132000AB01C701B6010E944812882319F06BE790
:1013300071E027C026013701E89477F82FEF3FEFDF
:101340004FE75FE7C301B2010E94481281110DC04F
:101350002FEF3FEF4FE75FE7C301B2010E94D90FC4
:1013600018161CF46FE771E00CC02FEF3FEF4FE74A
:101370005FE4C701B6010E94431218169CF463E8AB
:1013800071E0CE01DF91CF91FF90EF90DF90CF9091
:10139000BF90AF909F908F907F906F905F904F9095
:1013A0000C94B0082FEF3FEF4FE75FECC701B60199
:1013B0000E94D90F87FDE3CF20E030E0A901C701EB
:1013C000B6010E94D90F87FF0AC06DE2CE010E94CC
:1013D000A9084C01F7FAF094F7F8F09402C0812CB8
:1013E000912CA12C60E070E080E09FE3AB1441F011
:1013F00020E030E040E251E40E94A211A394F6CF35
:101400009B01AC01C701B6010E9436112B013C01C2
:101410000E9414126B017C010E94DE0F9B01AC0143
:10142000C301B2010E9435112B013C012AE0B70132
:10143000A601CE010E94C5087C01E80CF91CBB2066
:1014400031F06EE2CE010E94A908E80EF91EDB2CF5
:10145000DD2029F120E030E040E251E4C301B20197
:101460000E943F102B013C010E9414124B01A12C41
:10147000B12C2AE0B501A401CE010E94C508E80EF6
:10148000F91EC501B4010E94DE0F9B01AC01C3012E
:10149000B2010E9435112B013C01DA94D9CFC7016A
:1014A000DF91CF91FF90EF90DF90CF90BF90AF9002
:1014B0009F908F907F906F905F904F9008950C94C5
:1014C000B008CF93DF93CDB7DEB72A970FB6F89465
:1014D000DEBF0FBECDBF789484B5826084BD84B575
:1014E000816084BD85B5826085BD85B5816085BD1F
:1014F00080916E00816080936E00109281008091D7
:10150000810082608093810080918100816080935E
:101510008100809180008160809380008091B10083
:1015200084608093B1008091B00081608093B000AE
:1015300080917A00846080937A0080917A00826042
:1015400080937A0080917A00816080937A00809104
:101550007A00806880937A001092C10010928A020B
:1015600010928B0210928C0210928D0210924802FF
:101570001092490210924A0210924B0260ED77E0FD
:1015800080E090E00E94690389EA91E090938902EB
:10159000809388020E942A060E94A3036093480257
:1015A0007093490280934A0290934B0268E271E083
:1015B00080918802909189020E945F0A6AE070E03F
:1015C00080E090E00E94690381E080935C020E94C9
:1015D0002A06E0919302F0919402138615861486F0
:1015E000DF011B9633961E92AE17BF07E1F71092EC
:1015F000920211E0BE016F5F7F4F80919302909144
:1016000094020E941407882309F44AC067E0CE01BF
:1016100001960E94F90398858913ECCF80918E0280
:10162000811127C080919302909194020E94C80476
:10163000BE016F5F7F4F80919302909194020E9450
:101640009B0440E064EB80919302909194020E948D
:10165000590480919302909194020E940604082FED
:1016600080919302909194020E94C804002309F48F
:10167000F0C100918F02CE0101960E94610880178F
:1016800018F480918F0204C0CE0101960E94610877
:1016900080938F02809192028F5F80939202AACFF3
:1016A00060E481EA92E00E94840500E011E0F80124
:1016B00061918F0181EA92E00E947E05F1E008309D
:1016C0001F07A9F761E089E00E942D0361E08CE02B
:1016D0000E942D0362E088E00E942D0300E010E0EC
:1016E00060E0C8010E9405110F5F1F4F011524E043
:1016F0001207B1F70E94A3036093960170939701BC
:10170000809398019093990162E081EA92E00E94AF
:10171000870524EF822E99249394A12CB12C38ECC8
:10172000232E312C48EE442E43E0542E612C712C94
:101730000CE310E00E94A303672B682B692B41F494
:101740000E94A303623071058105910508F40BC165
:101750000E94A3036093A5017093A6018093A70143
:101760009093A8012091A1013091A2014091A30181
:101770005091A401621773078407950740F46093A2
:10178000A1017093A2018093A3019093A401C09042
:10179000A101D090A201E090A301F090A4019B01CF
:1017A000AC012C193D094E095F0969017A013AEF34
:1017B000C316D104E104F10408F4D5C06093A1017B
:1017C0007093A2018093A3019093A401809254028C
:1017D00090925502A0925602B0925702109258026F
:1017E0001092590210925A0210925B0280914C02A0
:1017F00090914D02A0914E02B0914F028093500201
:1018000090935102A0935202B09353020E94A303FB
:1018100060934C0270934D0280934E0290934F025E
:101820000E94A303609348027093490280934A0286
:1018300090934B020E94A3036B017C016AE371E069
:1018400080918802909189020E945F0A2AE041E01B
:1018500050E060E070E080918802909189020E94DF
:10186000C50861E471E080918802909189020E942C
:101870005F0A2AE0B701A60180918802909189024F
:101880000E94C50863E471E080918802909189020A
:101890000E945F0A80914C0290914D02A0914E02ED
:1018A000B0914F02B701A601481B590B6A0B7B0B85
:1018B0002AE080918802909189020E94C50863E421
:1018C00071E080918802909189020E945F0A4091A4
:1018D0004C0250914D0260914E0270914F028091E6
:1018E000500290915102A0915202B0915302481BB4
:1018F000590B6A0B7B0B2AE0809188029091890238
:101900000E94C50865E471E0809188029091890287
:101910000E945F0A0E94A303AB01BC012AE08091F0
:101920008802909189020E94C508E0908802F09098
:10193000890267E471E0C7010E94B00867E371E0C3
:10194000C7010E94B00862E070E080E090E00E9471
:1019500069030E94A30360934C0270934D0280932D
:101960004E0290934F020E945206E0900801F090C0
:10197000090161E08BE00E942D03E114F10411F4F0
:1019800060E005C04FEFE416F10429F461E08BE05C
:101990000E94E70244C0E7E8F1E084918330F9F067
:1019A00048F48130B9F08230A1F584B5806284BDFD
:1019B000E8BC35C08730E9F0883019F1843049F54A
:1019C00080918000806280938000F0928B00E09292
:1019D0008A0025C084B5806884BDE7BC20C08091A2
:1019E0008000806880938000F0928900E0928800F7
:1019F00016C08091B00080688093B000E092B30080
:101A00000EC08091B00080628093B000E092B4007C
:101A100006C0F0E8EF16F1040CF0B8CFB1CFE4E85F
:101A2000F1E08491E6EBF1E0F490E2EAF1E0E49099
:101A3000EE2091F081110E94D801EE2DF0E0EE0F22
:101A4000FF1FE057FE4FA591B4918C91F82221F031
:101A5000DEC110938E020DCE61E089E00E94E702A4
:101A600080919101811108C081E0809391013092B1
:101A700009012092080108C025E030E030930901F7
:101A80002093080110929101E1E08091B40281114C
:101A9000E0E0E195F0E0EF55FD4F6489606881EA90
:101AA00092E00E9484056EE471E081EA92E00E9477
:101AB0005F0A0E94A407AB01BC0122E081EA92E028
:101AC0000E947D0960E081EA92E00E94A90864E535
:101AD00071E081EA92E00E945F0AE091B402E23094
:101AE00010F4E15001C0E1E0F0E0EF55FD4F6489F2
:101AF000606881EA92E00E9484050E94A30320911D
:101B00009601309197014091980150919901621B83
:101B1000730B840B950BA30192010E941311309358
:101B20009B0120939A01C901B8010E944D12CB017B
:101B30007093950160939401B8010E944D127093C7
:101B400093016093920166E571E081EA92E00E9460
:101B50005F0A60919201709193016A30710554F4AB
:101B600060E070E081EA92E00E9447096091920192
:101B70007091930181EA92E00E94470963E471E069
:101B800081EA92E00E945F0A809194019091950110
:101B9000B8010E944D128A3091056CF46CE571E039
:101BA00081EA92E00E945F0A8091940190919501F0
:101BB000B8010E944D12BC0181EA92E00E944709DF
:101BC00063E471E081EA92E00E945F0A80919A01E9
:101BD00090919B01B8010E944D128A3091056CF4DE
:101BE0006CE571E081EA92E00E945F0A80919A01BF
:101BF00090919B01B8010E944D12BC0181EA92E0D4
:101C00000E94470980919F019091A00101969093B5
:101C1000A00180939F0164EF71E080E090E00E945A
:101C2000690380919E018111EBC0E0909C01F090CE
:101C30009D013DEFE31631E0F3060CF0C1C0809149
:101C40009A0190919B016AEA70E00E944D12892BE3
:101C500009F049C00E9452060E94A40769837A8352
:101C60008B839C83BE016F5F7F4FC7010E94270259
:101C700080919C0190919D016AE971E09E5F0E94B4
:101C80005B026EE571E089EA91E00E945F0A609173
:101C90009C0170919D0189EA91E00E9447096EE6DE
:101CA00071E089EA91E00E945F0A49815A816B8163
:101CB0007C8122E089EA91E00E947D0964E771E07D
:101CC00089EA91E00E945F0A80919A0190919B01BC
:101CD0000E940E0980919C0190919D010196909324
:101CE0009D0180939C01E0909C01F0909D01C701B3
:101CF00081509E4F0E94FD108987C7019E5F0E9400
:101D0000FD108A8720919A0130919B01C9016AEAEE
:101D100070E00E944D12019709F076C02150310900
:101D200089859A858217930709F46EC00E9452062E
:101D30000E94A40769837A838B839C83BE016F5FB3
:101D40007F4FC7010E94270280919C0190919D01C5
:101D50006AE971E09E5F0E945B026EE571E089EACC
:101D600091E00E945F0A60919C0170919D0189EA57
:101D700091E00E9447096EE671E089EA91E00E94D5
:101D80005F0A49815A816B817C8122E089EA91E076
:101D90000E947D0964E771E089EA91E00E945F0A90
:101DA00080919A0190919B010E940E0980919C0163
:101DB00090919D01019690939D0180939C0124C078
:101DC0008DEFE82EFF24F3941A821982BE016F5F13
:101DD0007F4FC7010E945B021A821982BE016F5FAA
:101DE0007F4FC7019E5F0E945B024FEFE41AF40A27
:101DF000E11452E0F50641F781E080939E0104C0B2
:101E000061E08CE00E94E7020E94CE0193CC60E08A
:101E100089E00E94E70238CE1092AC011092AB012B
:101E200088EE93E0A0E0B0E08093AD019093AE0126
:101E3000A093AF01B093B00184E191E09093AA0127
:101E40008093A90185EC90E09093B6018093B50151
:101E500084EC90E09093B8018093B70180EC90E01F
:101E60009093BA018093B90181EC90E09093BC010A
:101E70008093BB0182EC90E09093BE018093BD0102
:101E800086EC90E09093C0018093BF011092C20154
:101E90001092C3011092C4011092C50110924C021D
:101EA00010924D0210924E0210924F021092500268
:101EB0001092510210925202109253021092540248
:101EC0001092550210925602109257021092580228
:101ED0001092590210925A0210925B021092A402C0
:101EE0001092A30284E291E09093A2028093A10257
:101EF00082E08093A5028FEF8093A60283E0809317
:101F0000A70284E08093A80285E08093A90286E07E
:101F10008093AA0287E08093AB021092AC021092E9
:101F2000AD021092AE021092AF021092B00261E0C8
:101F300081EA92E00E94870560E08EE00E942D0316
:101F4000ECEBF1E0E491E093B902E8EAF1E0E4912E
:101F5000F0E0EE0FFF1FE057FE4F859194919093B4
:101F6000BB028093BA021092C4021092C602109271
:101F7000C502E4ECF2E0129282E0EC3BF807D9F7FC
:101F800086E292E09093A00280939F0289EB92E018
:101F900090939402809393021092920210928E0278
:101FA00089E080938F0281E0809390028093910278
:101FB00008950E941B1008F481E00895E89409C078
:101FC00097FB3EF490958095709561957F4F8F4F6C
:101FD0009F4F9923A9F0F92F96E9BB279395F69582
:101FE000879577956795B795F111F8CFFAF4BB0F00
:101FF00011F460FF1BC06F5F7F4F8F4F9F4F16C064
:10200000882311F096E911C0772321F09EE8872FED
:10201000762F05C0662371F096E8862F70E060E0A9
:102020002AF09A95660F771F881FDAF7880F969522
:10203000879597F90895990F0008550FAA0BE0E8C6
:10204000FEEF16161706E807F907C0F0121613067A
:10205000E407F50798F0621B730B840B950B39F4BA
:102060000A2661F0232B242B252B21F408950A2620
:1020700009F4A140A6958FEF811D811D08950E944E
:1020800052100C94C3100E94B51038F00E94BC107E
:1020900020F0952311F00C94AC100C94B210112484
:1020A0000C94F7100E94D41070F3959FC1F3950F14
:1020B00050E0551F629FF001729FBB27F00DB11DCC
:1020C000639FAA27F00DB11DAA1F649F6627B00D5C
:1020D000A11D661F829F2227B00DA11D621F739F45
:1020E000B00DA11D621F839FA00D611D221F749F53
:1020F0003327A00D611D231F849F600D211D822F9A
:10210000762F6A2F11249F5750409AF0F1F08823C0
:102110004AF0EE0FFF1FBB1F661F771F881F9150ED
:102120005040A9F79E3F510580F00C94AC100C94E0
:10213000F7105F3FE4F3983ED4F386957795679563
:10214000B795F795E7959F5FC1F7FE2B880F911D17
:102150009695879597F9089597F99F6780E870E0BD
:1021600060E008959FEF80EC089500240A9416160D
:10217000170618060906089500240A941216130675
:10218000140605060895092E0394000C11F4882303
:1021900052F0BB0F40F4BF2B11F460FF04C06F5F1F
:1021A0007F4F8F4F9F4F089557FD9058440F551FF5
:1021B00059F05F3F71F04795880F97FB991F61F0C9
:1021C0009F3F79F087950895121613061406551F40
:1021D000F2CF4695F1DF08C0161617061806991FAC
:1021E000F1CF86957105610508940895E894BB27A1
:1021F00066277727CB0197F90895F999FECF92BD0D
:1022000081BDF89A992780B50895262FF999FECFB8
:102210001FBA92BD81BD20BD0FB6F894FA9AF99A03
:102220000FBE01960895A1E21A2EAA1BBB1BFD0149
:102230000DC0AA1FBB1FEE1FFF1FA217B307E407A5
:10224000F50720F0A21BB30BE40BF50B661F771FFD
:10225000881F991F1A9469F76095709580959095DD
:102260009B01AC01BD01CF0108955058BB27AA279F
:102270000E944D110C94C3100E94B51038F00E94BA
:10228000BC1020F039F49F3F19F426F40C94B210DE
:102290000EF4E095E7FB0C94AC10E92F0E94D410EB
:1022A00058F3BA17620773078407950720F079F48B
:1022B000A6F50C94F6100EF4E0950B2EBA2FA02D77
:1022C0000B01B90190010C01CA01A0011124FF27E3
:1022D000591B99F0593F50F4503E68F11A16F040DE
:1022E000A22F232F342F4427585FF3CF46953795DD
:1022F0002795A795F0405395C9F77EF41F16BA0BA2
:10230000620B730B840BBAF09150A1F0FF0FBB1F4F
:10231000661F771F881FC2F70EC0BA0F621F731F98
:10232000841F48F4879577956795B795F7959E3FF5
:1023300008F0B0CF9395880F08F09927EE0F979586
:10234000879508950E94B6110C94C3100E94BC108A
:1023500058F00E94B51040F029F45F3F29F00C942A
:10236000AC1051110C94F7100C94B2100E94D410C0
:1023700068F39923B1F3552391F3951B550BBB27B4
:10238000AA2762177307840738F09F5F5F4F220FF9
:10239000331F441FAA1FA9F335D00E2E3AF0E0E8F0
:1023A00032D091505040E695001CCAF72BD0FE2F3A
:1023B00029D0660F771F881FBB1F261737074807CE
:1023C000AB07B0E809F0BB0B802DBF01FF27935886
:1023D0005F4F3AF09E3F510578F00C94AC100C948E
:1023E000F7105F3FE4F3983ED4F3869577956795B1
:1023F000B795F7959F5FC9F7880F911D96958795BB
:1024000097F90895E1E0660F771F881FBB1F6217D9
:1024100073078407BA0720F0621B730B840BBA0B97
:10242000EE1F88F7E09508950E94DC1088F09F5712
:1024300098F0B92F9927B751B0F0E1F0660F771FE8
:10244000881F991F1AF0BA95C9F714C0B13091F0DE
:102450000E94F610B1E008950C94F610672F782FC3
:102460008827B85F39F0B93FCCF3869577956795A3
:10247000B395D9F73EF490958095709561957F4F0F
:102480008F4F9F4F08950E941B1008F48FEF0895FF
:102490000E941B10880B990B089597FB072E16F4CA
:1024A000009407D077FD09D00E94611207FC05D087
:1024B0003EF4909581959F4F0895709561957F4F5B
:1024C0000895AA1BBB1B51E107C0AA1FBB1FA6177B
:1024D000B70710F0A61BB70B881F991F5A95A9F7CD
:1024E00080959095BC01CD010895EE0FFF1F0590DA
:1024F000F491E02D099481E090E0F8940C9480121E
:04250000F894FFCF7D
:10250400040A110A0400000014005E00BC007701F4
:1025140000000000650134082E010C012001AC010B
:10252400000000007E053408564D4450565F317C4F
:10253400315F564D4450560D0A00564D4450455F88
:10254400003A323A007C005F564D445045005465D1
:102554006D703A00430054696D653A0030006C694F
:10256400637A6E696B5A61706973616E3A005C7468
:10257400656D70005C637A61733A006E616E006928
:082584006E66006F7666000030
:107E0000112484B714BE81FFF0D085E080938100F7
:107E100082E08093C00088E18093C10086E0809377
:107E2000C20080E18093C4008EE0C9D0259A86E02C
:107E300020E33CEF91E0309385002093840096BBD3
:107E4000B09BFECF1D9AA8958150A9F7CC24DD24C4
:107E500088248394B5E0AB2EA1E19A2EF3E0BF2EE7
:107E6000A2D0813461F49FD0082FAFD0023811F036
:107E7000013811F484E001C083E08DD089C08234E0
:107E800011F484E103C0853419F485E0A6D080C0E4
:107E9000853579F488D0E82EFF2485D0082F10E0AE
:107EA000102F00270E291F29000F111F8ED06801E7
:107EB0006FC0863521F484E090D080E0DECF843638
:107EC00009F040C070D06FD0082F6DD080E0C81688
:107ED00080E7D80618F4F601B7BEE895C0E0D1E017
:107EE00062D089930C17E1F7F0E0CF16F0E7DF06D8
:107EF00018F0F601B7BEE89568D007B600FCFDCFD4
:107F0000A601A0E0B1E02C9130E011968C91119780
:107F100090E0982F8827822B932B1296FA010C0160
:107F200087BEE89511244E5F5F4FF1E0A038BF0790
:107F300051F7F601A7BEE89507B600FCFDCF97BE46
:107F4000E89526C08437B1F42ED02DD0F82E2BD052
:107F50003CD0F601EF2C8F010F5F1F4F84911BD097
:107F6000EA94F801C1F70894C11CD11CFA94CF0C13
:107F7000D11C0EC0853739F428D08EE10CD085E9AC
:107F80000AD08FE07ACF813511F488E018D01DD067
:107F900080E101D065CF982F8091C00085FFFCCF94
:107FA0009093C60008958091C00087FFFCCF809118
:107FB000C00084FD01C0A8958091C6000895E0E648
:107FC000F0E098E1908380830895EDDF803219F02E
:107FD00088E0F5DFFFCF84E1DECF1F93182FE3DFCA
:107FE0001150E9F7F2DF1F91089580E0E8DFEE27F6
:047FF000FF270994CA
:027FFE00040479
:0400000300007E007B
:00000001FF